{
  "_format": "hh-sol-artifact-1",
  "contractName": "BaseStaking",
  "sourceName": "contracts/examples/BaseStaking.sol",
  "abi": [
    {
      "inputs": [
        {
          "internalType": "address",
          "name": "_stakingToken",
          "type": "address"
        }
      ],
      "stateMutability": "nonpayable",
      "type": "constructor"
    },
    {
      "anonymous": false,
      "inputs": [
        {
          "indexed": true,
          "internalType": "address",
          "name": "previousOwner",
          "type": "address"
        },
        {
          "indexed": true,
          "internalType": "address",
          "name": "newOwner",
          "type": "address"
        }
      ],
      "name": "OwnershipTransferred",
      "type": "event"
    },
    {
      "anonymous": false,
      "inputs": [
        {
          "indexed": false,
          "internalType": "address",
          "name": "account",
          "type": "address"
        }
      ],
      "name": "Paused",
      "type": "event"
    },
    {
      "anonymous": false,
      "inputs": [
        {
          "indexed": true,
          "internalType": "address",
          "name": "user",
          "type": "address"
        },
        {
          "indexed": false,
          "internalType": "uint256",
          "name": "amount",
          "type": "uint256"
        }
      ],
      "name": "RewardClaimed",
      "type": "event"
    },
    {
      "anonymous": false,
      "inputs": [
        {
          "indexed": true,
          "internalType": "address",
          "name": "user",
          "type": "address"
        },
        {
          "indexed": false,
          "internalType": "uint256",
          "name": "amount",
          "type": "uint256"
        }
      ],
      "name": "Staked",
      "type": "event"
    },
    {
      "anonymous": false,
      "inputs": [
        {
          "indexed": false,
          "internalType": "address",
          "name": "account",
          "type": "address"
        }
      ],
      "name": "Unpaused",
      "type": "event"
    },
    {
      "anonymous": false,
      "inputs": [
        {
          "indexed": true,
          "internalType": "address",
          "name": "user",
          "type": "address"
        },
        {
          "indexed": false,
          "internalType": "uint256",
          "name": "amount",
          "type": "uint256"
        }
      ],
      "name": "Unstaked",
      "type": "event"
    },
    {
      "inputs": [],
      "name": "BASIS_POINTS",
      "outputs": [
        {
          "internalType": "uint256",
          "name": "",
          "type": "uint256"
        }
      ],
      "stateMutability": "view",
      "type": "function"
    },
    {
      "inputs": [
        {
          "internalType": "address",
          "name": "user",
          "type": "address"
        }
      ],
      "name": "calculateReward",
      "outputs": [
        {
          "internalType": "uint256",
          "name": "",
          "type": "uint256"
        }
      ],
      "stateMutability": "view",
      "type": "function"
    },
    {
      "inputs": [],
      "name": "claimRewards",
      "outputs": [],
      "stateMutability": "nonpayable",
      "type": "function"
    },
    {
      "inputs": [],
      "name": "emergencyWithdraw",
      "outputs": [],
      "stateMutability": "nonpayable",
      "type": "function"
    },
    {
      "inputs": [
        {
          "internalType": "address",
          "name": "user",
          "type": "address"
        }
      ],
      "name": "getTotalRewards",
      "outputs": [
        {
          "internalType": "uint256",
          "name": "",
          "type": "uint256"
        }
      ],
      "stateMutability": "view",
      "type": "function"
    },
    {
      "inputs": [],
      "name": "owner",
      "outputs": [
        {
          "internalType": "address",
          "name": "",
          "type": "address"
        }
      ],
      "stateMutability": "view",
      "type": "function"
    },
    {
      "inputs": [],
      "name": "pause",
      "outputs": [],
      "stateMutability": "nonpayable",
      "type": "function"
    },
    {
      "inputs": [],
      "name": "paused",
      "outputs": [
        {
          "internalType": "bool",
          "name": "",
          "type": "bool"
        }
      ],
      "stateMutability": "view",
      "type": "function"
    },
    {
      "inputs": [],
      "name": "renounceOwnership",
      "outputs": [],
      "stateMutability": "nonpayable",
      "type": "function"
    },
    {
      "inputs": [],
      "name": "rewardRate",
      "outputs": [
        {
          "internalType": "uint256",
          "name": "",
          "type": "uint256"
        }
      ],
      "stateMutability": "view",
      "type": "function"
    },
    {
      "inputs": [
        {
          "internalType": "address",
          "name": "",
          "type": "address"
        }
      ],
      "name": "rewards",
      "outputs": [
        {
          "internalType": "uint256",
          "name": "",
          "type": "uint256"
        }
      ],
      "stateMutability": "view",
      "type": "function"
    },
    {
      "inputs": [
        {
          "internalType": "uint256",
          "name": "newRate",
          "type": "uint256"
        }
      ],
      "name": "setRewardRate",
      "outputs": [],
      "stateMutability": "nonpayable",
      "type": "function"
    },
    {
      "inputs": [
        {
          "internalType": "uint256",
          "name": "amount",
          "type": "uint256"
        }
      ],
      "name": "stake",
      "outputs": [],
      "stateMutability": "nonpayable",
      "type": "function"
    },
    {
      "inputs": [
        {
          "internalType": "address",
          "name": "",
          "type": "address"
        }
      ],
      "name": "stakes",
      "outputs": [
        {
          "internalType": "uint256",
          "name": "amount",
          "type": "uint256"
        },
        {
          "internalType": "uint256",
          "name": "timestamp",
          "type": "uint256"
        },
        {
          "internalType": "uint256",
          "name": "rewardRate",
          "type": "uint256"
        }
      ],
      "stateMutability": "view",
      "type": "function"
    },
    {
      "inputs": [],
      "name": "stakingToken",
      "outputs": [
        {
          "internalType": "contract IERC20",
          "name": "",
          "type": "address"
        }
      ],
      "stateMutability": "view",
      "type": "function"
    },
    {
      "inputs": [],
      "name": "totalStaked",
      "outputs": [
        {
          "internalType": "uint256",
          "name": "",
          "type": "uint256"
        }
      ],
      "stateMutability": "view",
      "type": "function"
    },
    {
      "inputs": [
        {
          "internalType": "address",
          "name": "newOwner",
          "type": "address"
        }
      ],
      "name": "transferOwnership",
      "outputs": [],
      "stateMutability": "nonpayable",
      "type": "function"
    },
    {
      "inputs": [],
      "name": "unpause",
      "outputs": [],
      "stateMutability": "nonpayable",
      "type": "function"
    },
    {
      "inputs": [
        {
          "internalType": "uint256",
          "name": "amount",
          "type": "uint256"
        }
      ],
      "name": "unstake",
      "outputs": [],
      "stateMutability": "nonpayable",
      "type": "function"
    }
  ],
  "bytecode": "0x6080604052606460065534801561001557600080fd5b50604051610ee3380380610ee3833981016040819052610034916100c3565b61003d33610073565b6000805460ff60a01b1916905560018055600480546001600160a01b0319166001600160a01b03929092169190911790556100f3565b600080546001600160a01b038381166001600160a01b0319831681178455604051919092169283917f8be0079c531659141344cd1fd0a4f28419497f9722a3daafe3b4186f6b6457e09190a35050565b6000602082840312156100d557600080fd5b81516001600160a01b03811681146100ec57600080fd5b9392505050565b610de1806101026000396000f3fe608060405234801561001057600080fd5b50600436106101215760003560e01c80637b0a47ee116100ad578063a694fc3a11610071578063a694fc3a14610268578063d82e39621461027b578063db2e21bc1461028e578063e1f1c4a714610296578063f2fde38b1461029f57600080fd5b80637b0a47ee1461022a578063817b1cd2146102335780638456cb591461023c5780638da5cb5b146102445780639e447fc61461025557600080fd5b8063372500ab116100f4578063372500ab146101ca5780633f4ba83a146101d25780635c975abb146101da578063715018a6146101f757806372f702f3146101ff57600080fd5b80630700037d1461012657806316934fc4146101595780632bcf161c146101a25780632e17de78146101b5575b600080fd5b610146610134366004610c68565b60036020526000908152604090205481565b6040519081526020015b60405180910390f35b610187610167366004610c68565b600260208190526000918252604090912080546001820154919092015483565b60408051938452602084019290925290820152606001610150565b6101466101b0366004610c68565b6102b2565b6101c86101c3366004610c98565b6102e6565b005b6101c86104d0565b6101c86104ec565b600054600160a01b900460ff166040519015158152602001610150565b6101c86104fc565b600454610212906001600160a01b031681565b6040516001600160a01b039091168152602001610150565b61014660065481565b61014660055481565b6101c861050e565b6000546001600160a01b0316610212565b6101c8610263366004610c98565b61051e565b6101c8610276366004610c98565b610587565b610146610289366004610c68565b610712565b6101c86107b0565b61014661271081565b6101c86102ad366004610c68565b61091c565b60006102bd82610712565b6001600160a01b0383166000908152600360205260409020546102e09190610cc7565b92915050565b6102ee610992565b600081116103175760405162461bcd60e51b815260040161030e90610cda565b60405180910390fd5b336000908152600260205260409020548111156103865760405162461bcd60e51b815260206004820152602760248201527f426173655374616b696e673a20696e73756666696369656e74207374616b656460448201526608185b5bdd5b9d60ca1b606482015260840161030e565b61038f336109eb565b33600090815260026020526040812080548392906103ae908490610d24565b9250508190555080600560008282546103c79190610d24565b90915550506004805460405163a9059cbb60e01b81523392810192909252602482018390526001600160a01b03169063a9059cbb906044016020604051808303816000875af115801561041e573d6000803e3d6000fd5b505050506040513d601f19601f820116820180604052508101906104429190610d37565b61048e5760405162461bcd60e51b815260206004820152601c60248201527f426173655374616b696e673a207472616e73666572206661696c656400000000604482015260640161030e565b60405181815233907f0f5bb82176feb1b5e747e28471aa92156a04d9f3ab9f45f28e2d704232b93f75906020015b60405180910390a26104cd60018055565b50565b6104d8610992565b6104e1336109eb565b6104ea60018055565b565b6104f4610a89565b6104ea610ae3565b610504610a89565b6104ea6000610b38565b610516610a89565b6104ea610b88565b610526610a89565b6103e88111156105825760405162461bcd60e51b815260206004820152602160248201527f426173655374616b696e673a20726577617264207261746520746f6f206869676044820152600d60fb1b606482015260840161030e565b600655565b61058f610992565b610597610bcb565b600081116105b75760405162461bcd60e51b815260040161030e90610cda565b600480546040516323b872dd60e01b81523392810192909252306024830152604482018390526001600160a01b0316906323b872dd906064016020604051808303816000875af115801561060f573d6000803e3d6000fd5b505050506040513d601f19601f820116820180604052508101906106339190610d37565b61067f5760405162461bcd60e51b815260206004820152601c60248201527f426173655374616b696e673a207472616e73666572206661696c656400000000604482015260640161030e565b610688336109eb565b33600090815260026020526040812080548392906106a7908490610cc7565b90915550503360009081526002602081905260408220426001820155600654910155600580548392906106db908490610cc7565b909155505060405181815233907f9e71bc8eea02a63969f509818f2dafb9254532904319f9dbda79b67bd34a5f3d906020016104bc565b6001600160a01b03811660009081526002602081815260408084208151606081018352815480825260018301549482019490945293015490830152820361075c5750600092915050565b600081602001514261076e9190610d24565b9050600061078161271062015180610d59565b60408401518451849161079391610d59565b61079d9190610d59565b6107a79190610d70565b95945050505050565b6107b8610a89565b600480546040516370a0823160e01b815230928101929092526000916001600160a01b03909116906370a0823190602401602060405180830381865afa158015610806573d6000803e3d6000fd5b505050506040513d601f19601f8201168201806040525081019061082a9190610d92565b6004549091506001600160a01b031663a9059cbb6108506000546001600160a01b031690565b6040516001600160e01b031960e084901b1681526001600160a01b039091166004820152602481018490526044016020604051808303816000875af115801561089d573d6000803e3d6000fd5b505050506040513d601f19601f820116820180604052508101906108c19190610d37565b6104cd5760405162461bcd60e51b815260206004820152602660248201527f426173655374616b696e673a20656d657267656e63792077697468647261772060448201526519985a5b195960d21b606482015260840161030e565b610924610a89565b6001600160a01b0381166109895760405162461bcd60e51b815260206004820152602660248201527f4f776e61626c653a206e6577206f776e657220697320746865207a65726f206160448201526564647265737360d01b606482015260840161030e565b6104cd81610b38565b6002600154036109e45760405162461bcd60e51b815260206004820152601f60248201527f5265656e7472616e637947756172643a207265656e7472616e742063616c6c00604482015260640161030e565b6002600155565b60006109f682610712565b90508015610a85576001600160a01b03821660009081526003602052604081208054839290610a26908490610cc7565b90915550506001600160a01b0382166000818152600260205260409081902042600190910155517f106f923f993c2149d49b4255ff723acafa1f2d94393f561d3eda32ae348f724190610a7c9084815260200190565b60405180910390a25b5050565b6000546001600160a01b031633146104ea5760405162461bcd60e51b815260206004820181905260248201527f4f776e61626c653a2063616c6c6572206973206e6f7420746865206f776e6572604482015260640161030e565b610aeb610c18565b6000805460ff60a01b191690557f5db9ee0a495bf2e6ff9c91a7834c1ba4fdd244a5e8aa4e537bd38aeae4b073aa335b6040516001600160a01b03909116815260200160405180910390a1565b600080546001600160a01b038381166001600160a01b0319831681178455604051919092169283917f8be0079c531659141344cd1fd0a4f28419497f9722a3daafe3b4186f6b6457e09190a35050565b610b90610bcb565b6000805460ff60a01b1916600160a01b1790557f62e78cea01bee320cd4e420270b5ea74000d11b0c9f74754ebdbfc544b05a258610b1b3390565b600054600160a01b900460ff16156104ea5760405162461bcd60e51b815260206004820152601060248201526f14185d5cd8589b194e881c185d5cd95960821b604482015260640161030e565b600054600160a01b900460ff166104ea5760405162461bcd60e51b815260206004820152601460248201527314185d5cd8589b194e881b9bdd081c185d5cd95960621b604482015260640161030e565b600060208284031215610c7a57600080fd5b81356001600160a01b0381168114610c9157600080fd5b9392505050565b600060208284031215610caa57600080fd5b5035919050565b634e487b7160e01b600052601160045260246000fd5b808201808211156102e0576102e0610cb1565b6020808252602a908201527f426173655374616b696e673a20616d6f756e74206d75737420626520677265616040820152690746572207468616e20360b41b606082015260800190565b818103818111156102e0576102e0610cb1565b600060208284031215610d4957600080fd5b81518015158114610c9157600080fd5b80820281158282048414176102e0576102e0610cb1565b600082610d8d57634e487b7160e01b600052601260045260246000fd5b500490565b600060208284031215610da457600080fd5b505191905056fea2646970667358221220a3b7935a5a95b217e911977c4646cd6a86f01b402f08c64087b2f6ce409bbe1a64736f6c63430008130033",
  "linkReferences": {},
  "deployedLinkReferences": {}
}