{
  "_format": "hh-sol-artifact-1",
  "contractName": "BaseGovernance",
  "sourceName": "contracts/examples/BaseGovernance.sol",
  "abi": [
    {
      "inputs": [
        {
          "internalType": "address",
          "name": "_governanceToken",
          "type": "address"
        }
      ],
      "stateMutability": "nonpayable",
      "type": "constructor"
    },
    {
      "anonymous": false,
      "inputs": [
        {
          "indexed": true,
          "internalType": "address",
          "name": "delegator",
          "type": "address"
        },
        {
          "indexed": true,
          "internalType": "address",
          "name": "fromDelegate",
          "type": "address"
        },
        {
          "indexed": true,
          "internalType": "address",
          "name": "toDelegate",
          "type": "address"
        }
      ],
      "name": "DelegationChanged",
      "type": "event"
    },
    {
      "anonymous": false,
      "inputs": [
        {
          "indexed": true,
          "internalType": "address",
          "name": "previousOwner",
          "type": "address"
        },
        {
          "indexed": true,
          "internalType": "address",
          "name": "newOwner",
          "type": "address"
        }
      ],
      "name": "OwnershipTransferred",
      "type": "event"
    },
    {
      "anonymous": false,
      "inputs": [
        {
          "indexed": false,
          "internalType": "address",
          "name": "account",
          "type": "address"
        }
      ],
      "name": "Paused",
      "type": "event"
    },
    {
      "anonymous": false,
      "inputs": [
        {
          "indexed": true,
          "internalType": "uint256",
          "name": "proposalId",
          "type": "uint256"
        }
      ],
      "name": "ProposalCanceled",
      "type": "event"
    },
    {
      "anonymous": false,
      "inputs": [
        {
          "indexed": true,
          "internalType": "uint256",
          "name": "proposalId",
          "type": "uint256"
        },
        {
          "indexed": true,
          "internalType": "address",
          "name": "proposer",
          "type": "address"
        },
        {
          "indexed": false,
          "internalType": "string",
          "name": "title",
          "type": "string"
        },
        {
          "indexed": false,
          "internalType": "uint256",
          "name": "startTime",
          "type": "uint256"
        },
        {
          "indexed": false,
          "internalType": "uint256",
          "name": "endTime",
          "type": "uint256"
        }
      ],
      "name": "ProposalCreated",
      "type": "event"
    },
    {
      "anonymous": false,
      "inputs": [
        {
          "indexed": true,
          "internalType": "uint256",
          "name": "proposalId",
          "type": "uint256"
        }
      ],
      "name": "ProposalExecuted",
      "type": "event"
    },
    {
      "anonymous": false,
      "inputs": [
        {
          "indexed": false,
          "internalType": "uint256",
          "name": "oldProposalThreshold",
          "type": "uint256"
        },
        {
          "indexed": false,
          "internalType": "uint256",
          "name": "newProposalThreshold",
          "type": "uint256"
        }
      ],
      "name": "ProposalThresholdSet",
      "type": "event"
    },
    {
      "anonymous": false,
      "inputs": [
        {
          "indexed": false,
          "internalType": "uint256",
          "name": "oldQuorum",
          "type": "uint256"
        },
        {
          "indexed": false,
          "internalType": "uint256",
          "name": "newQuorum",
          "type": "uint256"
        }
      ],
      "name": "QuorumSet",
      "type": "event"
    },
    {
      "anonymous": false,
      "inputs": [
        {
          "indexed": false,
          "internalType": "address",
          "name": "account",
          "type": "address"
        }
      ],
      "name": "Unpaused",
      "type": "event"
    },
    {
      "anonymous": false,
      "inputs": [
        {
          "indexed": true,
          "internalType": "address",
          "name": "voter",
          "type": "address"
        },
        {
          "indexed": true,
          "internalType": "uint256",
          "name": "proposalId",
          "type": "uint256"
        },
        {
          "indexed": false,
          "internalType": "uint8",
          "name": "support",
          "type": "uint8"
        },
        {
          "indexed": false,
          "internalType": "uint256",
          "name": "votes",
          "type": "uint256"
        }
      ],
      "name": "VoteCast",
      "type": "event"
    },
    {
      "anonymous": false,
      "inputs": [
        {
          "indexed": false,
          "internalType": "uint256",
          "name": "oldVotingDelay",
          "type": "uint256"
        },
        {
          "indexed": false,
          "internalType": "uint256",
          "name": "newVotingDelay",
          "type": "uint256"
        }
      ],
      "name": "VotingDelaySet",
      "type": "event"
    },
    {
      "anonymous": false,
      "inputs": [
        {
          "indexed": false,
          "internalType": "uint256",
          "name": "oldVotingPeriod",
          "type": "uint256"
        },
        {
          "indexed": false,
          "internalType": "uint256",
          "name": "newVotingPeriod",
          "type": "uint256"
        }
      ],
      "name": "VotingPeriodSet",
      "type": "event"
    },
    {
      "inputs": [],
      "name": "BASIS_POINTS",
      "outputs": [
        {
          "internalType": "uint256",
          "name": "",
          "type": "uint256"
        }
      ],
      "stateMutability": "view",
      "type": "function"
    },
    {
      "inputs": [],
      "name": "DELEGATION_TYPEHASH",
      "outputs": [
        {
          "internalType": "bytes32",
          "name": "",
          "type": "bytes32"
        }
      ],
      "stateMutability": "view",
      "type": "function"
    },
    {
      "inputs": [],
      "name": "DOMAIN_SEPARATOR",
      "outputs": [
        {
          "internalType": "bytes32",
          "name": "",
          "type": "bytes32"
        }
      ],
      "stateMutability": "view",
      "type": "function"
    },
    {
      "inputs": [],
      "name": "DOMAIN_TYPEHASH",
      "outputs": [
        {
          "internalType": "bytes32",
          "name": "",
          "type": "bytes32"
        }
      ],
      "stateMutability": "view",
      "type": "function"
    },
    {
      "inputs": [
        {
          "internalType": "uint256",
          "name": "proposalId",
          "type": "uint256"
        }
      ],
      "name": "cancel",
      "outputs": [],
      "stateMutability": "nonpayable",
      "type": "function"
    },
    {
      "inputs": [
        {
          "internalType": "uint256",
          "name": "proposalId",
          "type": "uint256"
        },
        {
          "internalType": "uint8",
          "name": "support",
          "type": "uint8"
        }
      ],
      "name": "castVote",
      "outputs": [],
      "stateMutability": "nonpayable",
      "type": "function"
    },
    {
      "inputs": [
        {
          "internalType": "address",
          "name": "",
          "type": "address"
        },
        {
          "internalType": "uint256",
          "name": "",
          "type": "uint256"
        }
      ],
      "name": "checkpoints",
      "outputs": [
        {
          "internalType": "uint32",
          "name": "fromBlock",
          "type": "uint32"
        },
        {
          "internalType": "uint224",
          "name": "votes",
          "type": "uint224"
        }
      ],
      "stateMutability": "view",
      "type": "function"
    },
    {
      "inputs": [
        {
          "internalType": "address",
          "name": "delegatee",
          "type": "address"
        }
      ],
      "name": "delegate",
      "outputs": [],
      "stateMutability": "nonpayable",
      "type": "function"
    },
    {
      "inputs": [
        {
          "internalType": "address",
          "name": "delegator",
          "type": "address"
        },
        {
          "internalType": "address",
          "name": "delegatee",
          "type": "address"
        },
        {
          "internalType": "uint256",
          "name": "nonce",
          "type": "uint256"
        },
        {
          "internalType": "uint256",
          "name": "expiry",
          "type": "uint256"
        },
        {
          "internalType": "uint8",
          "name": "v",
          "type": "uint8"
        },
        {
          "internalType": "bytes32",
          "name": "r",
          "type": "bytes32"
        },
        {
          "internalType": "bytes32",
          "name": "s",
          "type": "bytes32"
        }
      ],
      "name": "delegateBySig",
      "outputs": [],
      "stateMutability": "nonpayable",
      "type": "function"
    },
    {
      "inputs": [
        {
          "internalType": "address",
          "name": "",
          "type": "address"
        }
      ],
      "name": "delegates",
      "outputs": [
        {
          "internalType": "address",
          "name": "",
          "type": "address"
        }
      ],
      "stateMutability": "view",
      "type": "function"
    },
    {
      "inputs": [
        {
          "internalType": "uint256",
          "name": "proposalId",
          "type": "uint256"
        }
      ],
      "name": "execute",
      "outputs": [],
      "stateMutability": "payable",
      "type": "function"
    },
    {
      "inputs": [
        {
          "internalType": "address",
          "name": "account",
          "type": "address"
        }
      ],
      "name": "getCurrentVotes",
      "outputs": [
        {
          "internalType": "uint256",
          "name": "votes",
          "type": "uint256"
        }
      ],
      "stateMutability": "view",
      "type": "function"
    },
    {
      "inputs": [],
      "name": "getGovernanceParams",
      "outputs": [
        {
          "internalType": "uint256",
          "name": "delay",
          "type": "uint256"
        },
        {
          "internalType": "uint256",
          "name": "period",
          "type": "uint256"
        },
        {
          "internalType": "uint256",
          "name": "quorum",
          "type": "uint256"
        },
        {
          "internalType": "uint256",
          "name": "threshold",
          "type": "uint256"
        }
      ],
      "stateMutability": "view",
      "type": "function"
    },
    {
      "inputs": [
        {
          "internalType": "uint256",
          "name": "proposalId",
          "type": "uint256"
        }
      ],
      "name": "getProposal",
      "outputs": [
        {
          "components": [
            {
              "internalType": "uint256",
              "name": "id",
              "type": "uint256"
            },
            {
              "internalType": "address",
              "name": "proposer",
              "type": "address"
            },
            {
              "internalType": "address[]",
              "name": "targets",
              "type": "address[]"
            },
            {
              "internalType": "uint256[]",
              "name": "values",
              "type": "uint256[]"
            },
            {
              "internalType": "string[]",
              "name": "signatures",
              "type": "string[]"
            },
            {
              "internalType": "bytes[]",
              "name": "calldatas",
              "type": "bytes[]"
            },
            {
              "internalType": "uint256",
              "name": "startTime",
              "type": "uint256"
            },
            {
              "internalType": "uint256",
              "name": "endTime",
              "type": "uint256"
            },
            {
              "internalType": "uint256",
              "name": "forVotes",
              "type": "uint256"
            },
            {
              "internalType": "uint256",
              "name": "againstVotes",
              "type": "uint256"
            },
            {
              "internalType": "uint256",
              "name": "abstainVotes",
              "type": "uint256"
            },
            {
              "internalType": "bool",
              "name": "canceled",
              "type": "bool"
            },
            {
              "internalType": "bool",
              "name": "executed",
              "type": "bool"
            },
            {
              "internalType": "string",
              "name": "title",
              "type": "string"
            },
            {
              "internalType": "string",
              "name": "description",
              "type": "string"
            }
          ],
          "internalType": "struct BaseGovernance.Proposal",
          "name": "proposal",
          "type": "tuple"
        }
      ],
      "stateMutability": "view",
      "type": "function"
    },
    {
      "inputs": [
        {
          "internalType": "uint256",
          "name": "proposalId",
          "type": "uint256"
        }
      ],
      "name": "getProposalStats",
      "outputs": [
        {
          "internalType": "uint256",
          "name": "forVotes",
          "type": "uint256"
        },
        {
          "internalType": "uint256",
          "name": "againstVotes",
          "type": "uint256"
        },
        {
          "internalType": "uint256",
          "name": "abstainVotes",
          "type": "uint256"
        },
        {
          "internalType": "uint256",
          "name": "totalVotes",
          "type": "uint256"
        }
      ],
      "stateMutability": "view",
      "type": "function"
    },
    {
      "inputs": [
        {
          "internalType": "uint256",
          "name": "proposalId",
          "type": "uint256"
        },
        {
          "internalType": "address",
          "name": "voter",
          "type": "address"
        }
      ],
      "name": "getReceipt",
      "outputs": [
        {
          "components": [
            {
              "internalType": "bool",
              "name": "hasVoted",
              "type": "bool"
            },
            {
              "internalType": "uint8",
              "name": "support",
              "type": "uint8"
            },
            {
              "internalType": "uint256",
              "name": "votes",
              "type": "uint256"
            }
          ],
          "internalType": "struct BaseGovernance.Receipt",
          "name": "receipt",
          "type": "tuple"
        }
      ],
      "stateMutability": "view",
      "type": "function"
    },
    {
      "inputs": [
        {
          "internalType": "address",
          "name": "account",
          "type": "address"
        },
        {
          "internalType": "uint256",
          "name": "blockNumber",
          "type": "uint256"
        }
      ],
      "name": "getVotes",
      "outputs": [
        {
          "internalType": "uint256",
          "name": "votes",
          "type": "uint256"
        }
      ],
      "stateMutability": "view",
      "type": "function"
    },
    {
      "inputs": [],
      "name": "governanceToken",
      "outputs": [
        {
          "internalType": "address",
          "name": "",
          "type": "address"
        }
      ],
      "stateMutability": "view",
      "type": "function"
    },
    {
      "inputs": [
        {
          "internalType": "uint256",
          "name": "proposalId",
          "type": "uint256"
        }
      ],
      "name": "hasQuorum",
      "outputs": [
        {
          "internalType": "bool",
          "name": "reached",
          "type": "bool"
        }
      ],
      "stateMutability": "view",
      "type": "function"
    },
    {
      "inputs": [
        {
          "internalType": "address",
          "name": "",
          "type": "address"
        }
      ],
      "name": "numCheckpoints",
      "outputs": [
        {
          "internalType": "uint256",
          "name": "",
          "type": "uint256"
        }
      ],
      "stateMutability": "view",
      "type": "function"
    },
    {
      "inputs": [],
      "name": "owner",
      "outputs": [
        {
          "internalType": "address",
          "name": "",
          "type": "address"
        }
      ],
      "stateMutability": "view",
      "type": "function"
    },
    {
      "inputs": [],
      "name": "pause",
      "outputs": [],
      "stateMutability": "nonpayable",
      "type": "function"
    },
    {
      "inputs": [],
      "name": "paused",
      "outputs": [
        {
          "internalType": "bool",
          "name": "",
          "type": "bool"
        }
      ],
      "stateMutability": "view",
      "type": "function"
    },
    {
      "inputs": [],
      "name": "proposalCount",
      "outputs": [
        {
          "internalType": "uint256",
          "name": "",
          "type": "uint256"
        }
      ],
      "stateMutability": "view",
      "type": "function"
    },
    {
      "inputs": [
        {
          "internalType": "uint256",
          "name": "",
          "type": "uint256"
        },
        {
          "internalType": "address",
          "name": "",
          "type": "address"
        }
      ],
      "name": "proposalReceipts",
      "outputs": [
        {
          "internalType": "bool",
          "name": "hasVoted",
          "type": "bool"
        },
        {
          "internalType": "uint8",
          "name": "support",
          "type": "uint8"
        },
        {
          "internalType": "uint256",
          "name": "votes",
          "type": "uint256"
        }
      ],
      "stateMutability": "view",
      "type": "function"
    },
    {
      "inputs": [],
      "name": "proposalThreshold",
      "outputs": [
        {
          "internalType": "uint256",
          "name": "",
          "type": "uint256"
        }
      ],
      "stateMutability": "view",
      "type": "function"
    },
    {
      "inputs": [
        {
          "internalType": "uint256",
          "name": "",
          "type": "uint256"
        }
      ],
      "name": "proposals",
      "outputs": [
        {
          "internalType": "uint256",
          "name": "id",
          "type": "uint256"
        },
        {
          "internalType": "address",
          "name": "proposer",
          "type": "address"
        },
        {
          "internalType": "uint256",
          "name": "startTime",
          "type": "uint256"
        },
        {
          "internalType": "uint256",
          "name": "endTime",
          "type": "uint256"
        },
        {
          "internalType": "uint256",
          "name": "forVotes",
          "type": "uint256"
        },
        {
          "internalType": "uint256",
          "name": "againstVotes",
          "type": "uint256"
        },
        {
          "internalType": "uint256",
          "name": "abstainVotes",
          "type": "uint256"
        },
        {
          "internalType": "bool",
          "name": "canceled",
          "type": "bool"
        },
        {
          "internalType": "bool",
          "name": "executed",
          "type": "bool"
        },
        {
          "internalType": "string",
          "name": "title",
          "type": "string"
        },
        {
          "internalType": "string",
          "name": "description",
          "type": "string"
        }
      ],
      "stateMutability": "view",
      "type": "function"
    },
    {
      "inputs": [
        {
          "internalType": "address[]",
          "name": "targets",
          "type": "address[]"
        },
        {
          "internalType": "uint256[]",
          "name": "values",
          "type": "uint256[]"
        },
        {
          "internalType": "string[]",
          "name": "signatures",
          "type": "string[]"
        },
        {
          "internalType": "bytes[]",
          "name": "calldatas",
          "type": "bytes[]"
        },
        {
          "internalType": "string",
          "name": "title",
          "type": "string"
        },
        {
          "internalType": "string",
          "name": "description",
          "type": "string"
        }
      ],
      "name": "propose",
      "outputs": [
        {
          "internalType": "uint256",
          "name": "",
          "type": "uint256"
        }
      ],
      "stateMutability": "nonpayable",
      "type": "function"
    },
    {
      "inputs": [],
      "name": "quorumVotes",
      "outputs": [
        {
          "internalType": "uint256",
          "name": "",
          "type": "uint256"
        }
      ],
      "stateMutability": "view",
      "type": "function"
    },
    {
      "inputs": [],
      "name": "renounceOwnership",
      "outputs": [],
      "stateMutability": "nonpayable",
      "type": "function"
    },
    {
      "inputs": [
        {
          "internalType": "uint256",
          "name": "newProposalThreshold",
          "type": "uint256"
        }
      ],
      "name": "setProposalThreshold",
      "outputs": [],
      "stateMutability": "nonpayable",
      "type": "function"
    },
    {
      "inputs": [
        {
          "internalType": "uint256",
          "name": "newQuorumVotes",
          "type": "uint256"
        }
      ],
      "name": "setQuorum",
      "outputs": [],
      "stateMutability": "nonpayable",
      "type": "function"
    },
    {
      "inputs": [
        {
          "internalType": "uint256",
          "name": "newVotingDelay",
          "type": "uint256"
        }
      ],
      "name": "setVotingDelay",
      "outputs": [],
      "stateMutability": "nonpayable",
      "type": "function"
    },
    {
      "inputs": [
        {
          "internalType": "uint256",
          "name": "newVotingPeriod",
          "type": "uint256"
        }
      ],
      "name": "setVotingPeriod",
      "outputs": [],
      "stateMutability": "nonpayable",
      "type": "function"
    },
    {
      "inputs": [
        {
          "internalType": "uint256",
          "name": "proposalId",
          "type": "uint256"
        }
      ],
      "name": "state",
      "outputs": [
        {
          "internalType": "enum BaseGovernance.ProposalState",
          "name": "proposalState",
          "type": "uint8"
        }
      ],
      "stateMutability": "view",
      "type": "function"
    },
    {
      "inputs": [
        {
          "internalType": "address",
          "name": "newOwner",
          "type": "address"
        }
      ],
      "name": "transferOwnership",
      "outputs": [],
      "stateMutability": "nonpayable",
      "type": "function"
    },
    {
      "inputs": [],
      "name": "unpause",
      "outputs": [],
      "stateMutability": "nonpayable",
      "type": "function"
    },
    {
      "inputs": [],
      "name": "votingDelay",
      "outputs": [
        {
          "internalType": "uint256",
          "name": "",
          "type": "uint256"
        }
      ],
      "stateMutability": "view",
      "type": "function"
    },
    {
      "inputs": [],
      "name": "votingPeriod",
      "outputs": [
        {
          "internalType": "uint256",
          "name": "",
          "type": "uint256"
        }
      ],
      "stateMutability": "view",
      "type": "function"
    }
  ],
  "bytecode": "0x60a06040526001600955614380600a556103e8600b556064600c553480156200002757600080fd5b50604051620042b8380380620042b88339810160408190526200004a9162000172565b620000553362000122565b600180556002805460ff19169055600d80546001600160a01b0319166001600160a01b0392909216919091179055604080518082018252600e81526d42617365476f7665726e616e636560901b60209182015281517f8cad95687ba82c2ce50e74f7b754645e5117c3a5bec8151c0726d5857980a866818301527fcb5bdd43c8c07cdfd7fb58cdb8c4ee6a9f0443a95430a584ed0e7f343e3a7960818401524660608201523060808083019190915283518083038201815260a090920190935280519101209052620001a4565b600080546001600160a01b038381166001600160a01b0319831681178455604051919092169283917f8be0079c531659141344cd1fd0a4f28419497f9722a3daafe3b4186f6b6457e09190a35050565b6000602082840312156200018557600080fd5b81516001600160a01b03811681146200019d57600080fd5b9392505050565b6080516140f1620001c760003960008181610393015261211801526140f16000f3fe6080604052600436106102305760003560e01c806370b0f6601161012e578063da35c664116100ab578063eb9019d41161006f578063eb9019d41461078b578063ece40cc1146107ab578063f2fde38b146107cb578063f96dae0a146107eb578063fe0d94c11461080b57600080fd5b8063da35c664146106c4578063e1f1c4a7146106da578063e23a9a52146106f0578063e7a324dc14610737578063ea0217cf1461076b57600080fd5b8063b58131b0116100f2578063b58131b014610621578063bbf8cf8214610637578063c1ba4e5914610657578063c7234e4d14610677578063c7f758a81461069757600080fd5b806370b0f66014610599578063715018a6146105b95780638456cb59146105ce5780638da5cb5b146105e3578063b4b5ea571461060157600080fd5b80633e4f49e6116101bc578063587cde1e11610180578063587cde1e1461046f5780635c19a95c146104bd5780635c975abb146104dd57806366176743146105015780636fcfff451461056c57600080fd5b80633e4f49e6146103cb5780633f4ba83a146103f857806340e58ee51461040f578063490145c81461042f578063567813881461044f57600080fd5b806320606b701161020357806320606b701461031757806324bc1a641461034b578063307a064f146103615780633644e515146103815780633932abb1146103b557600080fd5b8063013cf08b1461023557806302a251a314610275578063078f6208146102995780630cdfebfa146102d3575b600080fd5b34801561024157600080fd5b50610255610250366004613526565b61081e565b60405161026c9b9a9998979695949392919061358f565b60405180910390f35b34801561028157600080fd5b5061028b600a5481565b60405190815260200161026c565b3480156102a557600080fd5b50600954600a54600b54600c545b60408051948552602085019390935291830152606082015260800161026c565b3480156102df57600080fd5b506102f36102ee36600461362a565b61099a565b6040805163ffffffff90931683526001600160e01b0390911660208301520161026c565b34801561032357600080fd5b5061028b7f8cad95687ba82c2ce50e74f7b754645e5117c3a5bec8151c0726d5857980a86681565b34801561035757600080fd5b5061028b600b5481565b34801561036d57600080fd5b506102b361037c366004613526565b6109e1565b34801561038d57600080fd5b5061028b7f000000000000000000000000000000000000000000000000000000000000000081565b3480156103c157600080fd5b5061028b60095481565b3480156103d757600080fd5b506103eb6103e6366004613526565b610e39565b60405161026c919061366a565b34801561040457600080fd5b5061040d611324565b005b34801561041b57600080fd5b5061040d61042a366004613526565b611336565b34801561043b57600080fd5b5061028b61044a36600461395e565b61147a565b34801561045b57600080fd5b5061040d61046a366004613a64565b6117f7565b34801561047b57600080fd5b506104a561048a366004613a90565b6005602052600090815260409020546001600160a01b031681565b6040516001600160a01b03909116815260200161026c565b3480156104c957600080fd5b5061040d6104d8366004613a90565b611a78565b3480156104e957600080fd5b5060025460ff165b604051901515815260200161026c565b34801561050d57600080fd5b5061054d61051c366004613aab565b60046020908152600092835260408084209091529082529020805460019091015460ff808316926101009004169083565b60408051931515845260ff90921660208401529082015260600161026c565b34801561057857600080fd5b5061028b610587366004613a90565b60076020526000908152604090205481565b3480156105a557600080fd5b5061040d6105b4366004613526565b611a85565b3480156105c557600080fd5b5061040d611b30565b3480156105da57600080fd5b5061040d611b42565b3480156105ef57600080fd5b506000546001600160a01b03166104a5565b34801561060d57600080fd5b5061028b61061c366004613a90565b611b52565b34801561062d57600080fd5b5061028b600c5481565b34801561064357600080fd5b506104f1610652366004613526565b611bd8565b34801561066357600080fd5b5061040d610672366004613526565b612002565b34801561068357600080fd5b5061040d610692366004613ace565b612048565b3480156106a357600080fd5b506106b76106b2366004613526565b61224b565b60405161026c9190613c01565b3480156106d057600080fd5b5061028b60085481565b3480156106e657600080fd5b5061028b61271081565b3480156106fc57600080fd5b5061071061070b366004613aab565b61270d565b6040805182511515815260208084015160ff1690820152918101519082015260600161026c565b34801561074357600080fd5b5061028b7fe48329057bfd03d55e49b547132e39cffd9c1820ad7b9d4c5307691425d15adf81565b34801561077757600080fd5b5061040d610786366004613526565b61277a565b34801561079757600080fd5b5061028b6107a636600461362a565b61281f565b3480156107b757600080fd5b5061040d6107c6366004613526565b612adb565b3480156107d757600080fd5b5061040d6107e6366004613a90565b612b21565b3480156107f757600080fd5b50600d546104a5906001600160a01b031681565b61040d610819366004613526565b612b97565b6003602052600090815260409020805460018201546006830154600784015460088501546009860154600a870154600b880154600c8901805498996001600160a01b03909816989697959694959394929360ff80841694610100909404169290919061088990613d4f565b80601f01602080910402602001604051908101604052809291908181526020018280546108b590613d4f565b80156109025780601f106108d757610100808354040283529160200191610902565b820191906000526020600020905b8154815290600101906020018083116108e557829003601f168201915b50505050509080600d01805461091790613d4f565b80601f016020809104026020016040519081016040528092919081815260200182805461094390613d4f565b80156109905780601f1061096557610100808354040283529160200191610990565b820191906000526020600020905b81548152906001019060200180831161097357829003601f168201915b505050505090508b565b600660205281600052604060002081815481106109b657600080fd5b60009182526020909120015463ffffffff8116925064010000000090046001600160e01b0316905082565b600081815260036020908152604080832081516101e0810183528154815260018201546001600160a01b031681850152600282018054845181870281018701865281815287968796879687969590949186019392909190830182828015610a7157602002820191906000526020600020905b81546001600160a01b03168152600190910190602001808311610a53575b5050505050815260200160038201805480602002602001604051908101604052809291908181526020018280548015610ac957602002820191906000526020600020905b815481526020019060010190808311610ab5575b5050505050815260200160048201805480602002602001604051908101604052809291908181526020016000905b82821015610ba3578382906000526020600020018054610b1690613d4f565b80601f0160208091040260200160405190810160405280929190818152602001828054610b4290613d4f565b8015610b8f5780601f10610b6457610100808354040283529160200191610b8f565b820191906000526020600020905b815481529060010190602001808311610b7257829003601f168201915b505050505081526020019060010190610af7565b50505050815260200160058201805480602002602001604051908101604052809291908181526020016000905b82821015610c7c578382906000526020600020018054610bef90613d4f565b80601f0160208091040260200160405190810160405280929190818152602001828054610c1b90613d4f565b8015610c685780601f10610c3d57610100808354040283529160200191610c68565b820191906000526020600020905b815481529060010190602001808311610c4b57829003601f168201915b505050505081526020019060010190610bd0565b5050509082525060068201546020820152600782015460408201526008820154606082015260098201546080820152600a82015460a0820152600b82015460ff808216151560c08401526101009182900416151560e0830152600c83018054919092019190610cea90613d4f565b80601f0160208091040260200160405190810160405280929190818152602001828054610d1690613d4f565b8015610d635780601f10610d3857610100808354040283529160200191610d63565b820191906000526020600020905b815481529060010190602001808311610d4657829003601f168201915b50505050508152602001600d82018054610d7c90613d4f565b80601f0160208091040260200160405190810160405280929190818152602001828054610da890613d4f565b8015610df55780601f10610dca57610100808354040283529160200191610df5565b820191906000526020600020905b815481529060010190602001808311610dd857829003601f168201915b5050505050815250509050806101000151945080610120015193508061014001519250828486610e259190613d99565b610e2f9190613d99565b9150509193509193565b6000816008541015610e665760405162461bcd60e51b8152600401610e5d90613dac565b60405180910390fd5b600082815260036020908152604080832081516101e0810183528154815260018201546001600160a01b031681850152600282018054845181870281018701865281815292959394860193830182828015610eea57602002820191906000526020600020905b81546001600160a01b03168152600190910190602001808311610ecc575b5050505050815260200160038201805480602002602001604051908101604052809291908181526020018280548015610f4257602002820191906000526020600020905b815481526020019060010190808311610f2e575b5050505050815260200160048201805480602002602001604051908101604052809291908181526020016000905b8282101561101c578382906000526020600020018054610f8f90613d4f565b80601f0160208091040260200160405190810160405280929190818152602001828054610fbb90613d4f565b80156110085780601f10610fdd57610100808354040283529160200191611008565b820191906000526020600020905b815481529060010190602001808311610feb57829003601f168201915b505050505081526020019060010190610f70565b50505050815260200160058201805480602002602001604051908101604052809291908181526020016000905b828210156110f557838290600052602060002001805461106890613d4f565b80601f016020809104026020016040519081016040528092919081815260200182805461109490613d4f565b80156110e15780601f106110b6576101008083540402835291602001916110e1565b820191906000526020600020905b8154815290600101906020018083116110c457829003601f168201915b505050505081526020019060010190611049565b5050509082525060068201546020820152600782015460408201526008820154606082015260098201546080820152600a82015460a0820152600b82015460ff808216151560c08401526101009182900416151560e0830152600c8301805491909201919061116390613d4f565b80601f016020809104026020016040519081016040528092919081815260200182805461118f90613d4f565b80156111dc5780601f106111b1576101008083540402835291602001916111dc565b820191906000526020600020905b8154815290600101906020018083116111bf57829003601f168201915b50505050508152602001600d820180546111f590613d4f565b80601f016020809104026020016040519081016040528092919081815260200182805461122190613d4f565b801561126e5780601f106112435761010080835404028352916020019161126e565b820191906000526020600020905b81548152906001019060200180831161125157829003601f168201915b50505050508152505090508061016001511561128d5750600292915050565b8060c0015142116112a15750600092915050565b8060e0015142116112b55750600192915050565b8061012001518161010001511115806112d45750600b54816101000151105b156112e25750600392915050565b806101800151156112f65750600792915050565b60e0810151611306906001613d99565b42106113155750600692915050565b50600492915050565b50919050565b61132c612e0e565b611334612e68565b565b600061134182610e39565b9050600781600781111561135757611357613654565b036113bc5760405162461bcd60e51b815260206004820152602f60248201527f42617365476f7665726e616e63653a2063616e6e6f742063616e63656c20657860448201526e1958dd5d1959081c1c9bdc1bdcd85b608a1b6064820152608401610e5d565b600082815260036020526040902060018101546001600160a01b03163314806113ef57506000546001600160a01b031633145b61143b5760405162461bcd60e51b815260206004820152601e60248201527f42617365476f7665726e616e63653a206e6f7420617574686f72697a656400006044820152606401610e5d565b600b8101805460ff1916600117905560405183907f789cf55be980739dad1d0699b93b58e806b51c9d96619bfa8fe0a28abaa7b30c90600090a2505050565b6000611484612eba565b600c54611496336107a6600143613def565b10156114fb5760405162461bcd60e51b815260206004820152602e60248201527f42617365476f7665726e616e63653a2070726f706f73657220766f746573206260448201526d195b1bddc81d1a1c995cda1bdb1960921b6064820152608401610e5d565b855187511461151c5760405162461bcd60e51b8152600401610e5d90613e02565b845187511461153d5760405162461bcd60e51b8152600401610e5d90613e02565b835187511461155e5760405162461bcd60e51b8152600401610e5d90613e02565b60008751116115bb5760405162461bcd60e51b8152602060048201526024808201527f42617365476f7665726e616e63653a206d7573742070726f7669646520616374604482015263696f6e7360e01b6064820152608401610e5d565b6008546009546000906115ce9042613d99565b90506000600a54826115e09190613d99565b6008805491925060006115f283613e5f565b9091555050604080516101e0810182528481523360208083019182528284018e8152606084018e9052608084018d905260a084018c905260c0840187905260e084018690526000610100850181905261012085018190526101408501819052610160850181905261018085018190526101a085018c90526101c085018b905288815260038352949094208351815591516001830180546001600160a01b0319166001600160a01b0390921691909117905592518051929391926116bb9260028501920190613359565b50606082015180516116d79160038401916020909101906133be565b50608082015180516116f39160048401916020909101906133f9565b5060a0820151805161170f91600584019160209091019061344b565b5060c0820151600682015560e082015160078201556101008083015160088301556101208301516009830155610140830151600a830155610160830151600b8301805461018086015161ffff1990911692151561ff001916929092179115159092021790556101a0820151600c8201906117899082613ec6565b506101c0820151600d82019061179f9082613ec6565b50905050336001600160a01b0316837f6c98a8c940418b35614f0cd02412d5c9606faff474cbb6cdd6640ba5d1a9f06b8885856040516117e193929190613f86565b60405180910390a3509098975050505050505050565b6117ff612eba565b600161180a83610e39565b600781111561181b5761181b613654565b146118685760405162461bcd60e51b815260206004820181905260248201527f42617365476f7665726e616e63653a20766f74696e6720697320636c6f7365646044820152606401610e5d565b60028160ff1611156118c65760405162461bcd60e51b815260206004820152602160248201527f42617365476f7665726e616e63653a20696e76616c696420766f7465207479706044820152606560f81b6064820152608401610e5d565b600082815260036020908152604080832060048352818420338552909252909120805460ff16156119455760405162461bcd60e51b815260206004820152602360248201527f42617365476f7665726e616e63653a20766f74657220616c726561647920766f6044820152621d195960ea1b6064820152608401610e5d565b600061195533846006015461281f565b9050600081116119a75760405162461bcd60e51b815260206004820152601860248201527f42617365476f7665726e616e63653a206e6f20766f74657300000000000000006044820152606401610e5d565b8360ff166000036119cc578083600901546119c29190613d99565b6009840155611a12565b8360ff166001036119f1578083600801546119e79190613d99565b6008840155611a12565b8360ff16600203611a12578083600a0154611a0c9190613d99565b600a8401555b815460ff8516610100810261ffff19909216919091176001908117845583018290556040805191825260208201839052869133917f2c9deb38f462962eadbd85a9d3a4120503ee091f1582eaaa10aa8c6797651d29910160405180910390a35050505050565b611a823382612f00565b50565b611a8d612e0e565b6001811015611aea5760405162461bcd60e51b8152602060048201526024808201527f42617365476f7665726e616e63653a20766f74696e672064656c617920746f6f604482015263206c6f7760e01b6064820152608401610e5d565b600980549082905560408051828152602081018490527fc565b045403dc03c2eea82b81a0465edad9e2e7fc4d97e11421c209da93d7a9391015b60405180910390a15050565b611b38612e0e565b6113346000612ff2565b611b4a612e0e565b611334613042565b6001600160a01b03811660009081526007602052604081205480611b77576000611bc8565b6001600160a01b0383166000908152600660205260409020611b9a600183613def565b81548110611baa57611baa613fab565b60009182526020909120015464010000000090046001600160e01b03165b6001600160e01b03169392505050565b600081815260036020908152604080832081516101e0810183528154815260018201546001600160a01b03168185015260028201805484518187028101870186528181528796939586019390929190830182828015611c6057602002820191906000526020600020905b81546001600160a01b03168152600190910190602001808311611c42575b5050505050815260200160038201805480602002602001604051908101604052809291908181526020018280548015611cb857602002820191906000526020600020905b815481526020019060010190808311611ca4575b5050505050815260200160048201805480602002602001604051908101604052809291908181526020016000905b82821015611d92578382906000526020600020018054611d0590613d4f565b80601f0160208091040260200160405190810160405280929190818152602001828054611d3190613d4f565b8015611d7e5780601f10611d5357610100808354040283529160200191611d7e565b820191906000526020600020905b815481529060010190602001808311611d6157829003601f168201915b505050505081526020019060010190611ce6565b50505050815260200160058201805480602002602001604051908101604052809291908181526020016000905b82821015611e6b578382906000526020600020018054611dde90613d4f565b80601f0160208091040260200160405190810160405280929190818152602001828054611e0a90613d4f565b8015611e575780601f10611e2c57610100808354040283529160200191611e57565b820191906000526020600020905b815481529060010190602001808311611e3a57829003601f168201915b505050505081526020019060010190611dbf565b5050509082525060068201546020820152600782015460408201526008820154606082015260098201546080820152600a82015460a0820152600b82015460ff808216151560c08401526101009182900416151560e0830152600c83018054919092019190611ed990613d4f565b80601f0160208091040260200160405190810160405280929190818152602001828054611f0590613d4f565b8015611f525780601f10611f2757610100808354040283529160200191611f52565b820191906000526020600020905b815481529060010190602001808311611f3557829003601f168201915b50505050508152602001600d82018054611f6b90613d4f565b80601f0160208091040260200160405190810160405280929190818152602001828054611f9790613d4f565b8015611fe45780601f10611fb957610100808354040283529160200191611fe4565b820191906000526020600020905b815481529060010190602001808311611fc757829003601f168201915b5050505050815250509050600b548161010001511015915050919050565b61200a612e0e565b600b80549082905560408051828152602081018490527fefd756ffab26c83a9c410308c3bce2daf19f87e2dfd240775beafe2d2be6bc0b9101611b24565b428410156120a25760405162461bcd60e51b815260206004820152602160248201527f42617365476f7665726e616e63653a207369676e6174757265206578706972656044820152601960fa1b6064820152608401610e5d565b604080517fe48329057bfd03d55e49b547132e39cffd9c1820ad7b9d4c5307691425d15adf6020808301919091526001600160a01b038a811683850152891660608301526080820188905260a08083018890528351808403909101815260c08301845280519082012061190160f01b60e08401527f000000000000000000000000000000000000000000000000000000000000000060e2840152610102808401829052845180850390910181526101228401808652815191840191909120600091829052610142850180875281905260ff891661016286015261018285018890526101a28501879052945191949390926001926101c280840193601f198301929081900390910190855afa1580156121be573d6000803e3d6000fd5b505050602060405103519050896001600160a01b0316816001600160a01b0316146122355760405162461bcd60e51b815260206004820152602160248201527f42617365476f7665726e616e63653a20696e76616c6964207369676e617475726044820152606560f81b6064820152608401610e5d565b61223f8a8a612f00565b50505050505050505050565b6122d1604051806101e001604052806000815260200160006001600160a01b0316815260200160608152602001606081526020016060815260200160608152602001600081526020016000815260200160008152602001600081526020016000815260200160001515815260200160001515815260200160608152602001606081525090565b8160085410156122f35760405162461bcd60e51b8152600401610e5d90613dac565b60008281526003602090815260409182902082516101e0810184528154815260018201546001600160a01b0316818401526002820180548551818602810186018752818152929593949386019383018282801561237957602002820191906000526020600020905b81546001600160a01b0316815260019091019060200180831161235b575b50505050508152602001600382018054806020026020016040519081016040528092919081815260200182805480156123d157602002820191906000526020600020905b8154815260200190600101908083116123bd575b5050505050815260200160048201805480602002602001604051908101604052809291908181526020016000905b828210156124ab57838290600052602060002001805461241e90613d4f565b80601f016020809104026020016040519081016040528092919081815260200182805461244a90613d4f565b80156124975780601f1061246c57610100808354040283529160200191612497565b820191906000526020600020905b81548152906001019060200180831161247a57829003601f168201915b5050505050815260200190600101906123ff565b50505050815260200160058201805480602002602001604051908101604052809291908181526020016000905b828210156125845783829060005260206000200180546124f790613d4f565b80601f016020809104026020016040519081016040528092919081815260200182805461252390613d4f565b80156125705780601f1061254557610100808354040283529160200191612570565b820191906000526020600020905b81548152906001019060200180831161255357829003601f168201915b5050505050815260200190600101906124d8565b5050509082525060068201546020820152600782015460408201526008820154606082015260098201546080820152600a82015460a0820152600b82015460ff808216151560c08401526101009182900416151560e0830152600c830180549190920191906125f290613d4f565b80601f016020809104026020016040519081016040528092919081815260200182805461261e90613d4f565b801561266b5780601f106126405761010080835404028352916020019161266b565b820191906000526020600020905b81548152906001019060200180831161264e57829003601f168201915b50505050508152602001600d8201805461268490613d4f565b80601f01602080910402602001604051908101604052809291908181526020018280546126b090613d4f565b80156126fd5780601f106126d2576101008083540402835291602001916126fd565b820191906000526020600020905b8154815290600101906020018083116126e057829003601f168201915b5050505050815250509050919050565b604080516060808201835260008083526020808401829052928401819052858152600483528381206001600160a01b0386168252835283902083519182018452805460ff808216151584526101009091041692820192909252600190910154918101919091525b92915050565b612782612e0e565b60018110156127e15760405162461bcd60e51b815260206004820152602560248201527f42617365476f7665726e616e63653a20766f74696e6720706572696f6420746f6044820152646f206c6f7760d81b6064820152608401610e5d565b600a80549082905560408051828152602081018490527f7e3f7f0708a84de9203036abaa450dccc85ad5ff52f78c170f3edb55cf5e88289101611b24565b60004382111561287c5760405162461bcd60e51b815260206004820152602260248201527f42617365476f7665726e616e63653a206e6f74207965742064657465726d696e604482015261195960f21b6064820152608401610e5d565b6001600160a01b038316600090815260076020526040812054908190036128a7576000915050612774565b6001600160a01b038416600090815260066020526040902083906128cc600184613def565b815481106128dc576128dc613fab565b60009182526020909120015463ffffffff161161294c576001600160a01b0384166000908152600660205260409020612916600183613def565b8154811061292657612926613fab565b60009182526020909120015464010000000090046001600160e01b031691506127749050565b6001600160a01b0384166000908152600660205260408120805485929061297557612975613fab565b60009182526020909120015463ffffffff161115612997576000915050612774565b6000806129a5600184613def565b90505b81811115612a8a57600060026129be8484613def565b6129c89190613fc1565b6129d29083613def565b6001600160a01b03881660009081526006602052604081208054929350909183908110612a0157612a01613fab565b60009182526020918290206040805180820190915291015463ffffffff81168083526401000000009091046001600160e01b0316928201929092529150879003612a5e57602001516001600160e01b031694506127749350505050565b805163ffffffff16871115612a7557819350612a83565b612a80600183613def565b92505b50506129a8565b6001600160a01b0386166000908152600660205260409020805483908110612ab457612ab4613fab565b60009182526020909120015464010000000090046001600160e01b03169695505050505050565b612ae3612e0e565b600c80549082905560408051828152602081018490527fccb45da8d5717e6c4544694297c4ba5cf151d455c9bb0ed4fc7a38411bc054619101611b24565b612b29612e0e565b6001600160a01b038116612b8e5760405162461bcd60e51b815260206004820152602660248201527f4f776e61626c653a206e6577206f776e657220697320746865207a65726f206160448201526564647265737360d01b6064820152608401610e5d565b611a8281612ff2565b612b9f61307f565b612ba7612eba565b6004612bb282610e39565b6007811115612bc357612bc3613654565b14612c1f5760405162461bcd60e51b815260206004820152602660248201527f42617365476f7665726e616e63653a2070726f706f73616c206e6f742073756360448201526518d95959195960d21b6064820152608401610e5d565b6000818152600360205260408120600b8101805461ff001916610100179055905b6002820154811015612dd857600080836002018381548110612c6457612c64613fab565b6000918252602090912001546003850180546001600160a01b039092169185908110612c9257612c92613fab565b9060005260206000200154856004018581548110612cb257612cb2613fab565b90600052602060002001604051612cc99190614056565b6040518091039020866005018681548110612ce657612ce6613fab565b90600052602060002001604051602001612d01929190614062565b60408051601f1981840301815290829052612d1b91614086565b60006040518083038185875af1925050503d8060008114612d58576040519150601f19603f3d011682016040523d82523d6000602084013e612d5d565b606091505b509150915081612dc35760405162461bcd60e51b815260206004820152602b60248201527f42617365476f7665726e616e63653a2070726f706f73616c206578656375746960448201526a1bdb881c995d995c9d195960aa1b6064820152608401610e5d565b50508080612dd090613e5f565b915050612c40565b5060405182907f712ae1383f79ac853f8d882153778e0260ef8f03b504e2866e0593e04d2b291f90600090a250611a8260018055565b6000546001600160a01b031633146113345760405162461bcd60e51b815260206004820181905260248201527f4f776e61626c653a2063616c6c6572206973206e6f7420746865206f776e65726044820152606401610e5d565b612e706130d8565b6002805460ff191690557f5db9ee0a495bf2e6ff9c91a7834c1ba4fdd244a5e8aa4e537bd38aeae4b073aa335b6040516001600160a01b03909116815260200160405180910390a1565b60025460ff16156113345760405162461bcd60e51b815260206004820152601060248201526f14185d5cd8589b194e881c185d5cd95960821b6044820152606401610e5d565b6001600160a01b0382811660008181526005602052604080822054600d5491516370a0823160e01b8152600481019490945284169391929116906370a0823190602401602060405180830381865afa158015612f60573d6000803e3d6000fd5b505050506040513d601f19601f82011682018060405250810190612f8491906140a2565b6001600160a01b0385811660008181526005602052604080822080546001600160a01b031916898616908117909155905194955093928616927fdc66b2a0c2e9f8ef38f442117eb813788791a117772b1a45985da7988e8c485c9190a4612fec828483613121565b50505050565b600080546001600160a01b038381166001600160a01b0319831681178455604051919092169283917f8be0079c531659141344cd1fd0a4f28419497f9722a3daafe3b4186f6b6457e09190a35050565b61304a612eba565b6002805460ff191660011790557f62e78cea01bee320cd4e420270b5ea74000d11b0c9f74754ebdbfc544b05a258612e9d3390565b6002600154036130d15760405162461bcd60e51b815260206004820152601f60248201527f5265656e7472616e637947756172643a207265656e7472616e742063616c6c006044820152606401610e5d565b6002600155565b60025460ff166113345760405162461bcd60e51b815260206004820152601460248201527314185d5cd8589b194e881b9bdd081c185d5cd95960621b6044820152606401610e5d565b816001600160a01b0316836001600160a01b0316141580156131435750600081115b156131ba576001600160a01b03831615613181576000613163844361281f565b905060006131718383613def565b905061317e8583836131bf565b50505b6001600160a01b038216156131ba57600061319c834361281f565b905060006131aa8383613d99565b90506131b78483836131bf565b50505b505050565b6001600160a01b0383166000908152600760205260409020544390801580159061323357506001600160a01b038516600090815260066020526040902063ffffffff83169061320f600184613def565b8154811061321f5761321f613fab565b60009182526020909120015463ffffffff16145b156132a3576001600160a01b0385166000908152600660205260409020839061325d600184613def565b8154811061326d5761326d613fab565b9060005260206000200160000160046101000a8154816001600160e01b0302191690836001600160e01b031602179055506131b7565b60405180604001604052808363ffffffff168152602001846001600160e01b031681525060066000876001600160a01b03166001600160a01b0316815260200190815260200160002082815481106132fd576132fd613fab565b6000918252602091829020835193909201516001600160e01b03166401000000000263ffffffff90931692909217910155613339816001613d99565b6001600160a01b0386166000908152600760205260409020555050505050565b8280548282559060005260206000209081019282156133ae579160200282015b828111156133ae57825182546001600160a01b0319166001600160a01b03909116178255602090920191600190910190613379565b506133ba92915061349d565b5090565b8280548282559060005260206000209081019282156133ae579160200282015b828111156133ae5782518255916020019190600101906133de565b82805482825590600052602060002090810192821561343f579160200282015b8281111561343f578251829061342f9082613ec6565b5091602001919060010190613419565b506133ba9291506134b2565b828054828255906000526020600020908101928215613491579160200282015b8281111561349157825182906134819082613ec6565b509160200191906001019061346b565b506133ba9291506134cf565b5b808211156133ba576000815560010161349e565b808211156133ba5760006134c682826134ec565b506001016134b2565b808211156133ba5760006134e382826134ec565b506001016134cf565b5080546134f890613d4f565b6000825580601f10613508575050565b601f016020900490600052602060002090810190611a82919061349d565b60006020828403121561353857600080fd5b5035919050565b60005b8381101561355a578181015183820152602001613542565b50506000910152565b6000815180845261357b81602086016020860161353f565b601f01601f19169290920160200192915050565b60006101608d835260018060a01b038d1660208401528b60408401528a60608401528960808401528860a08401528760c084015286151560e0840152851515610100840152806101208401526135e781840186613563565b90508281036101408401526135fc8185613563565b9e9d5050505050505050505050505050565b80356001600160a01b038116811461362557600080fd5b919050565b6000806040838503121561363d57600080fd5b6136468361360e565b946020939093013593505050565b634e487b7160e01b600052602160045260246000fd5b602081016008831061368c57634e487b7160e01b600052602160045260246000fd5b91905290565b634e487b7160e01b600052604160045260246000fd5b604051601f8201601f1916810167ffffffffffffffff811182821017156136d1576136d1613692565b604052919050565b600067ffffffffffffffff8211156136f3576136f3613692565b5060051b60200190565b600082601f83011261370e57600080fd5b8135602061372361371e836136d9565b6136a8565b82815260059290921b8401810191818101908684111561374257600080fd5b8286015b84811015613764576137578161360e565b8352918301918301613746565b509695505050505050565b600082601f83011261378057600080fd5b8135602061379061371e836136d9565b82815260059290921b840181019181810190868411156137af57600080fd5b8286015b8481101561376457803583529183019183016137b3565b600067ffffffffffffffff8311156137e4576137e4613692565b6137f7601f8401601f19166020016136a8565b905082815283838301111561380b57600080fd5b828260208301376000602084830101529392505050565b600082601f83011261383357600080fd5b613842838335602085016137ca565b9392505050565b600082601f83011261385a57600080fd5b8135602061386a61371e836136d9565b82815260059290921b8401810191818101908684111561388957600080fd5b8286015b8481101561376457803567ffffffffffffffff8111156138ad5760008081fd5b6138bb8986838b0101613822565b84525091830191830161388d565b600082601f8301126138da57600080fd5b813560206138ea61371e836136d9565b82815260059290921b8401810191818101908684111561390957600080fd5b8286015b8481101561376457803567ffffffffffffffff81111561392d5760008081fd5b8701603f8101891361393f5760008081fd5b6139508986830135604084016137ca565b84525091830191830161390d565b60008060008060008060c0878903121561397757600080fd5b863567ffffffffffffffff8082111561398f57600080fd5b61399b8a838b016136fd565b975060208901359150808211156139b157600080fd5b6139bd8a838b0161376f565b965060408901359150808211156139d357600080fd5b6139df8a838b01613849565b955060608901359150808211156139f557600080fd5b613a018a838b016138c9565b94506080890135915080821115613a1757600080fd5b613a238a838b01613822565b935060a0890135915080821115613a3957600080fd5b50613a4689828a01613822565b9150509295509295509295565b803560ff8116811461362557600080fd5b60008060408385031215613a7757600080fd5b82359150613a8760208401613a53565b90509250929050565b600060208284031215613aa257600080fd5b6138428261360e565b60008060408385031215613abe57600080fd5b82359150613a876020840161360e565b600080600080600080600060e0888a031215613ae957600080fd5b613af28861360e565b9650613b006020890161360e565b95506040880135945060608801359350613b1c60808901613a53565b925060a0880135915060c0880135905092959891949750929550565b600081518084526020808501945080840160005b83811015613b715781516001600160a01b031687529582019590820190600101613b4c565b509495945050505050565b600081518084526020808501945080840160005b83811015613b7157815187529582019590820190600101613b90565b600081518084526020808501808196508360051b8101915082860160005b85811015613bf4578284038952613be2848351613563565b98850198935090840190600101613bca565b5091979650505050505050565b602081528151602082015260006020830151613c2860408401826001600160a01b03169052565b5060408301516101e0806060850152613c45610200850183613b38565b91506060850151601f1980868503016080870152613c638483613b7c565b935060808701519150808685030160a0870152613c808483613bac565b935060a08701519150808685030160c0870152613c9d8483613bac565b60c088015160e088810191909152880151610100808901919091528801516101208089019190915288015161014080890191909152880151610160808901919091528801519094509150610180613cf78188018415159052565b87015191506101a0613d0c8782018415159052565b808801519250506101c0818786030181880152613d298584613563565b908801518782039092018488015293509050613d458382613563565b9695505050505050565b600181811c90821680613d6357607f821691505b60208210810361131e57634e487b7160e01b600052602260045260246000fd5b634e487b7160e01b600052601160045260246000fd5b8082018082111561277457612774613d83565b60208082526023908201527f42617365476f7665726e616e63653a20696e76616c69642070726f706f73616c604082015262081a5960ea1b606082015260800190565b8181038181111561277457612774613d83565b6020808252603c908201527f42617365476f7665726e616e63653a2070726f706f73616c2066756e6374696f60408201527f6e20696e666f726d6174696f6e206172697479206d69736d6174636800000000606082015260800190565b600060018201613e7157613e71613d83565b5060010190565b601f8211156131ba57600081815260208120601f850160051c81016020861015613e9f5750805b601f850160051c820191505b81811015613ebe57828155600101613eab565b505050505050565b815167ffffffffffffffff811115613ee057613ee0613692565b613ef481613eee8454613d4f565b84613e78565b602080601f831160018114613f295760008415613f115750858301515b600019600386901b1c1916600185901b178555613ebe565b600085815260208120601f198616915b82811015613f5857888601518255948401946001909101908401613f39565b5085821015613f765787850151600019600388901b60f8161c191681555b5050505050600190811b01905550565b606081526000613f996060830186613563565b60208301949094525060400152919050565b634e487b7160e01b600052603260045260246000fd5b600082613fde57634e487b7160e01b600052601260045260246000fd5b500490565b60008154613ff081613d4f565b60018281168015614008576001811461401d5761404c565b60ff198416875282151583028701945061404c565b8560005260208060002060005b858110156140435781548a82015290840190820161402a565b50505082870194505b5050505092915050565b60006138428284613fe3565b6001600160e01b031983168152600061407e6004830184613fe3565b949350505050565b6000825161409881846020870161353f565b9190910192915050565b6000602082840312156140b457600080fd5b505191905056fea2646970667358221220fb62d7331e963421de2c6dabf193701228e88eb3e4bb81fc8ae02945b833534964736f6c63430008130033",
  "linkReferences": {},
  "deployedLinkReferences": {}
}