{
  "_format": "hh-sol-artifact-1",
  "contractName": "BaseDEX",
  "sourceName": "contracts/examples/BaseDEX.sol",
  "abi": [
    {
      "inputs": [],
      "stateMutability": "nonpayable",
      "type": "constructor"
    },
    {
      "anonymous": false,
      "inputs": [
        {
          "indexed": true,
          "internalType": "address",
          "name": "token",
          "type": "address"
        },
        {
          "indexed": false,
          "internalType": "uint256",
          "name": "amount",
          "type": "uint256"
        }
      ],
      "name": "FeeCollected",
      "type": "event"
    },
    {
      "anonymous": false,
      "inputs": [
        {
          "indexed": true,
          "internalType": "address",
          "name": "provider",
          "type": "address"
        },
        {
          "indexed": true,
          "internalType": "address",
          "name": "tokenA",
          "type": "address"
        },
        {
          "indexed": true,
          "internalType": "address",
          "name": "tokenB",
          "type": "address"
        },
        {
          "indexed": false,
          "internalType": "uint256",
          "name": "amountA",
          "type": "uint256"
        },
        {
          "indexed": false,
          "internalType": "uint256",
          "name": "amountB",
          "type": "uint256"
        },
        {
          "indexed": false,
          "internalType": "uint256",
          "name": "liquidity",
          "type": "uint256"
        }
      ],
      "name": "LiquidityAdded",
      "type": "event"
    },
    {
      "anonymous": false,
      "inputs": [
        {
          "indexed": true,
          "internalType": "address",
          "name": "provider",
          "type": "address"
        },
        {
          "indexed": true,
          "internalType": "address",
          "name": "tokenA",
          "type": "address"
        },
        {
          "indexed": true,
          "internalType": "address",
          "name": "tokenB",
          "type": "address"
        },
        {
          "indexed": false,
          "internalType": "uint256",
          "name": "amountA",
          "type": "uint256"
        },
        {
          "indexed": false,
          "internalType": "uint256",
          "name": "amountB",
          "type": "uint256"
        },
        {
          "indexed": false,
          "internalType": "uint256",
          "name": "liquidity",
          "type": "uint256"
        }
      ],
      "name": "LiquidityRemoved",
      "type": "event"
    },
    {
      "anonymous": false,
      "inputs": [
        {
          "indexed": true,
          "internalType": "address",
          "name": "previousOwner",
          "type": "address"
        },
        {
          "indexed": true,
          "internalType": "address",
          "name": "newOwner",
          "type": "address"
        }
      ],
      "name": "OwnershipTransferred",
      "type": "event"
    },
    {
      "anonymous": false,
      "inputs": [
        {
          "indexed": false,
          "internalType": "address",
          "name": "account",
          "type": "address"
        }
      ],
      "name": "Paused",
      "type": "event"
    },
    {
      "anonymous": false,
      "inputs": [
        {
          "indexed": true,
          "internalType": "address",
          "name": "tokenA",
          "type": "address"
        },
        {
          "indexed": true,
          "internalType": "address",
          "name": "tokenB",
          "type": "address"
        },
        {
          "indexed": true,
          "internalType": "address",
          "name": "pool",
          "type": "address"
        }
      ],
      "name": "PoolCreated",
      "type": "event"
    },
    {
      "anonymous": false,
      "inputs": [
        {
          "indexed": true,
          "internalType": "address",
          "name": "user",
          "type": "address"
        },
        {
          "indexed": true,
          "internalType": "address",
          "name": "tokenIn",
          "type": "address"
        },
        {
          "indexed": true,
          "internalType": "address",
          "name": "tokenOut",
          "type": "address"
        },
        {
          "indexed": false,
          "internalType": "uint256",
          "name": "amountIn",
          "type": "uint256"
        },
        {
          "indexed": false,
          "internalType": "uint256",
          "name": "amountOut",
          "type": "uint256"
        }
      ],
      "name": "SwapExecuted",
      "type": "event"
    },
    {
      "anonymous": false,
      "inputs": [
        {
          "indexed": false,
          "internalType": "address",
          "name": "account",
          "type": "address"
        }
      ],
      "name": "Unpaused",
      "type": "event"
    },
    {
      "inputs": [],
      "name": "FEE_DENOMINATOR",
      "outputs": [
        {
          "internalType": "uint256",
          "name": "",
          "type": "uint256"
        }
      ],
      "stateMutability": "view",
      "type": "function"
    },
    {
      "inputs": [
        {
          "internalType": "address",
          "name": "tokenA",
          "type": "address"
        },
        {
          "internalType": "address",
          "name": "tokenB",
          "type": "address"
        },
        {
          "internalType": "uint256",
          "name": "amountA",
          "type": "uint256"
        },
        {
          "internalType": "uint256",
          "name": "amountB",
          "type": "uint256"
        },
        {
          "internalType": "uint256",
          "name": "minLiquidityA",
          "type": "uint256"
        },
        {
          "internalType": "uint256",
          "name": "minLiquidityB",
          "type": "uint256"
        }
      ],
      "name": "addLiquidity",
      "outputs": [],
      "stateMutability": "nonpayable",
      "type": "function"
    },
    {
      "inputs": [
        {
          "internalType": "address",
          "name": "user",
          "type": "address"
        },
        {
          "internalType": "address",
          "name": "tokenA",
          "type": "address"
        },
        {
          "internalType": "address",
          "name": "tokenB",
          "type": "address"
        }
      ],
      "name": "calculateFeeShare",
      "outputs": [
        {
          "internalType": "uint256",
          "name": "feeShare",
          "type": "uint256"
        }
      ],
      "stateMutability": "view",
      "type": "function"
    },
    {
      "inputs": [
        {
          "internalType": "address",
          "name": "tokenA",
          "type": "address"
        },
        {
          "internalType": "address",
          "name": "tokenB",
          "type": "address"
        }
      ],
      "name": "claimFees",
      "outputs": [],
      "stateMutability": "nonpayable",
      "type": "function"
    },
    {
      "inputs": [
        {
          "internalType": "address",
          "name": "tokenA",
          "type": "address"
        },
        {
          "internalType": "address",
          "name": "tokenB",
          "type": "address"
        },
        {
          "internalType": "uint256",
          "name": "feeRate",
          "type": "uint256"
        }
      ],
      "name": "createPool",
      "outputs": [],
      "stateMutability": "nonpayable",
      "type": "function"
    },
    {
      "inputs": [],
      "name": "defaultFeeRate",
      "outputs": [
        {
          "internalType": "uint256",
          "name": "",
          "type": "uint256"
        }
      ],
      "stateMutability": "view",
      "type": "function"
    },
    {
      "inputs": [
        {
          "internalType": "address",
          "name": "token",
          "type": "address"
        },
        {
          "internalType": "uint256",
          "name": "amount",
          "type": "uint256"
        }
      ],
      "name": "emergencyWithdraw",
      "outputs": [],
      "stateMutability": "nonpayable",
      "type": "function"
    },
    {
      "inputs": [],
      "name": "feeRecipient",
      "outputs": [
        {
          "internalType": "address",
          "name": "",
          "type": "address"
        }
      ],
      "stateMutability": "view",
      "type": "function"
    },
    {
      "inputs": [
        {
          "internalType": "address",
          "name": "tokenIn",
          "type": "address"
        },
        {
          "internalType": "address",
          "name": "tokenOut",
          "type": "address"
        },
        {
          "internalType": "uint256",
          "name": "amountIn",
          "type": "uint256"
        }
      ],
      "name": "getAmountOut",
      "outputs": [
        {
          "internalType": "uint256",
          "name": "amountOut",
          "type": "uint256"
        }
      ],
      "stateMutability": "view",
      "type": "function"
    },
    {
      "inputs": [
        {
          "internalType": "address",
          "name": "user",
          "type": "address"
        },
        {
          "internalType": "address",
          "name": "tokenA",
          "type": "address"
        },
        {
          "internalType": "address",
          "name": "tokenB",
          "type": "address"
        }
      ],
      "name": "getLiquidityPosition",
      "outputs": [
        {
          "internalType": "uint256",
          "name": "amount",
          "type": "uint256"
        },
        {
          "internalType": "uint256",
          "name": "timestamp",
          "type": "uint256"
        }
      ],
      "stateMutability": "view",
      "type": "function"
    },
    {
      "inputs": [
        {
          "internalType": "address",
          "name": "tokenA",
          "type": "address"
        },
        {
          "internalType": "address",
          "name": "tokenB",
          "type": "address"
        }
      ],
      "name": "getPoolInfo",
      "outputs": [
        {
          "internalType": "uint256",
          "name": "reserveA",
          "type": "uint256"
        },
        {
          "internalType": "uint256",
          "name": "reserveB",
          "type": "uint256"
        },
        {
          "internalType": "uint256",
          "name": "totalSupply",
          "type": "uint256"
        },
        {
          "internalType": "uint256",
          "name": "feeRate",
          "type": "uint256"
        }
      ],
      "stateMutability": "view",
      "type": "function"
    },
    {
      "inputs": [
        {
          "internalType": "address",
          "name": "tokenIn",
          "type": "address"
        },
        {
          "internalType": "address",
          "name": "tokenOut",
          "type": "address"
        },
        {
          "internalType": "uint256",
          "name": "amountIn",
          "type": "uint256"
        }
      ],
      "name": "getQuote",
      "outputs": [
        {
          "internalType": "uint256",
          "name": "amountOut",
          "type": "uint256"
        },
        {
          "internalType": "uint256",
          "name": "priceImpact",
          "type": "uint256"
        }
      ],
      "stateMutability": "view",
      "type": "function"
    },
    {
      "inputs": [
        {
          "internalType": "address",
          "name": "",
          "type": "address"
        },
        {
          "internalType": "address",
          "name": "",
          "type": "address"
        },
        {
          "internalType": "address",
          "name": "",
          "type": "address"
        }
      ],
      "name": "liquidityPositions",
      "outputs": [
        {
          "internalType": "uint256",
          "name": "amount",
          "type": "uint256"
        },
        {
          "internalType": "uint256",
          "name": "timestamp",
          "type": "uint256"
        },
        {
          "internalType": "uint256",
          "name": "feeShare",
          "type": "uint256"
        }
      ],
      "stateMutability": "view",
      "type": "function"
    },
    {
      "inputs": [],
      "name": "minLiquidity",
      "outputs": [
        {
          "internalType": "uint256",
          "name": "",
          "type": "uint256"
        }
      ],
      "stateMutability": "view",
      "type": "function"
    },
    {
      "inputs": [],
      "name": "owner",
      "outputs": [
        {
          "internalType": "address",
          "name": "",
          "type": "address"
        }
      ],
      "stateMutability": "view",
      "type": "function"
    },
    {
      "inputs": [],
      "name": "pause",
      "outputs": [],
      "stateMutability": "nonpayable",
      "type": "function"
    },
    {
      "inputs": [],
      "name": "paused",
      "outputs": [
        {
          "internalType": "bool",
          "name": "",
          "type": "bool"
        }
      ],
      "stateMutability": "view",
      "type": "function"
    },
    {
      "inputs": [
        {
          "internalType": "address",
          "name": "",
          "type": "address"
        },
        {
          "internalType": "address",
          "name": "",
          "type": "address"
        }
      ],
      "name": "pools",
      "outputs": [
        {
          "internalType": "address",
          "name": "tokenA",
          "type": "address"
        },
        {
          "internalType": "address",
          "name": "tokenB",
          "type": "address"
        },
        {
          "internalType": "uint256",
          "name": "reserveA",
          "type": "uint256"
        },
        {
          "internalType": "uint256",
          "name": "reserveB",
          "type": "uint256"
        },
        {
          "internalType": "uint256",
          "name": "totalSupply",
          "type": "uint256"
        },
        {
          "internalType": "uint256",
          "name": "feeRate",
          "type": "uint256"
        },
        {
          "internalType": "bool",
          "name": "exists",
          "type": "bool"
        }
      ],
      "stateMutability": "view",
      "type": "function"
    },
    {
      "inputs": [],
      "name": "protocolFeeRate",
      "outputs": [
        {
          "internalType": "uint256",
          "name": "",
          "type": "uint256"
        }
      ],
      "stateMutability": "view",
      "type": "function"
    },
    {
      "inputs": [
        {
          "internalType": "address",
          "name": "tokenA",
          "type": "address"
        },
        {
          "internalType": "address",
          "name": "tokenB",
          "type": "address"
        },
        {
          "internalType": "uint256",
          "name": "liquidity",
          "type": "uint256"
        },
        {
          "internalType": "uint256",
          "name": "minAmountA",
          "type": "uint256"
        },
        {
          "internalType": "uint256",
          "name": "minAmountB",
          "type": "uint256"
        }
      ],
      "name": "removeLiquidity",
      "outputs": [],
      "stateMutability": "nonpayable",
      "type": "function"
    },
    {
      "inputs": [],
      "name": "renounceOwnership",
      "outputs": [],
      "stateMutability": "nonpayable",
      "type": "function"
    },
    {
      "inputs": [
        {
          "internalType": "uint256",
          "name": "newFeeRate",
          "type": "uint256"
        }
      ],
      "name": "setDefaultFeeRate",
      "outputs": [],
      "stateMutability": "nonpayable",
      "type": "function"
    },
    {
      "inputs": [
        {
          "internalType": "address",
          "name": "newFeeRecipient",
          "type": "address"
        }
      ],
      "name": "setFeeRecipient",
      "outputs": [],
      "stateMutability": "nonpayable",
      "type": "function"
    },
    {
      "inputs": [
        {
          "internalType": "uint256",
          "name": "newProtocolFeeRate",
          "type": "uint256"
        }
      ],
      "name": "setProtocolFeeRate",
      "outputs": [],
      "stateMutability": "nonpayable",
      "type": "function"
    },
    {
      "inputs": [
        {
          "internalType": "address",
          "name": "tokenIn",
          "type": "address"
        },
        {
          "internalType": "address",
          "name": "tokenOut",
          "type": "address"
        },
        {
          "internalType": "uint256",
          "name": "amountIn",
          "type": "uint256"
        },
        {
          "internalType": "uint256",
          "name": "minAmountOut",
          "type": "uint256"
        }
      ],
      "name": "swap",
      "outputs": [],
      "stateMutability": "nonpayable",
      "type": "function"
    },
    {
      "inputs": [
        {
          "internalType": "address",
          "name": "",
          "type": "address"
        }
      ],
      "name": "totalFeesCollected",
      "outputs": [
        {
          "internalType": "uint256",
          "name": "",
          "type": "uint256"
        }
      ],
      "stateMutability": "view",
      "type": "function"
    },
    {
      "inputs": [
        {
          "internalType": "address",
          "name": "newOwner",
          "type": "address"
        }
      ],
      "name": "transferOwnership",
      "outputs": [],
      "stateMutability": "nonpayable",
      "type": "function"
    },
    {
      "inputs": [],
      "name": "unpause",
      "outputs": [],
      "stateMutability": "nonpayable",
      "type": "function"
    }
  ],
  "bytecode": "0x6080604052601e6006556103e86007556103e860085534801561002157600080fd5b5061002b33610050565b600180556002805460ff19169055600980546001600160a01b031916331790556100a0565b600080546001600160a01b038381166001600160a01b0319831681178455604051919092169283917f8be0079c531659141344cd1fd0a4f28419497f9722a3daafe3b4186f6b6457e09190a35050565b6128c9806100af6000396000f3fe608060405234801561001057600080fd5b50600436106101c45760003560e01c806388a40eed116100f9578063d134a4d011610097578063e74b981b11610071578063e74b981b146104e7578063f2fde38b146104fa578063f758b24d1461050d578063fe0291561461052057600080fd5b8063d134a4d014610463578063d73792a9146104cb578063e2dc85dc146104d457600080fd5b806395ccea67116100d357806395ccea67146103ba578063a15bf11e146103cd578063b13aa2d614610428578063c515ee231461043b57600080fd5b806388a40eed146102e45780638da5cb5b14610304578063901754d71461031557600080fd5b80634aa06652116101665780635c975abb116101405780635c975abb146102ab5780635f70fdb5146102c1578063715018a6146102d45780638456cb59146102dc57600080fd5b80634aa066521461027c57806351810fb51461028f57806358f85880146102a257600080fd5b80633351733f116101a25780633351733f146102035780633f4ba83a14610216578063469048401461021e578063486e51f41461024957600080fd5b806307d33455146101c9578063252cf2d2146101e55780632dbfa735146101ee575b600080fd5b6101d260065481565b6040519081526020015b60405180910390f35b6101d260075481565b6102016101fc3660046125bb565b610533565b005b6102016102113660046125ee565b6107c7565b610201610c7b565b600954610231906001600160a01b031681565b6040516001600160a01b0390911681526020016101dc565b61025c6102573660046125bb565b610c8d565b6040805194855260208501939093529183015260608201526080016101dc565b6101d261028a366004612643565b610dbb565b61020161029d366004612643565b61102d565b6101d260085481565b60025460ff1660405190151581526020016101dc565b6102016102cf36600461267f565b6112b1565b610201611308565b61020161131a565b6101d26102f2366004612698565b60056020526000908152604090205481565b6000546001600160a01b0316610231565b6103786103233660046125bb565b6003602081815260009384526040808520909152918352912080546001820154600283015493830154600484015460058501546006909501546001600160a01b03948516969490931694919290919060ff1687565b604080516001600160a01b039889168152979096166020880152948601939093526060850191909152608084015260a0830152151560c082015260e0016101dc565b6102016103c83660046126b3565b61132a565b61040d6103db3660046126dd565b600460209081526000938452604080852082529284528284209052825290208054600182015460029092015490919083565b604080519384526020840192909252908201526060016101dc565b61020161043636600461267f565b61141b565b61044e610449366004612643565b61147a565b604080519283526020830191909152016101dc565b61044e6104713660046126dd565b6001600160a01b039283166000908152600460209081526040808320948616835293815283822092909416815290835281902081516060810183528154808252600183015494820185905260029092015492019190915291565b6101d261271081565b6102016104e2366004612720565b61162f565b6102016104f5366004612698565b611a79565b610201610508366004612698565b611af1565b6101d261051b3660046126dd565b611b6a565b61020161052e36600461276d565b611d0c565b61053b6121e1565b6001600160a01b03808316600090815260036020908152604080832093851683529290529081206006015460ff16610597576001600160a01b0380831660009081526003602090815260408083209387168352929052206105bd565b6001600160a01b0380841660009081526003602090815260408083209386168352929052205b600681015490915060ff166105ed5760405162461bcd60e51b81526004016105e4906127af565b60405180910390fd5b3360009081526004602090815260408083206001600160a01b03878116855290835281842090861684529091529020805461066a5760405162461bcd60e51b815260206004820152601e60248201527f426173654445583a206e6f206c697175696469747920706f736974696f6e000060448201526064016105e4565b60048201546001600160a01b038516600090815260056020526040812054835491929161069791906127fc565b6106a19190612829565b9050600081116106f35760405162461bcd60e51b815260206004820152601960248201527f426173654445583a206e6f206665657320746f20636c61696d0000000000000060448201526064016105e4565b6000600283015560405163a9059cbb60e01b8152336004820152602481018290526001600160a01b0386169063a9059cbb906044016020604051808303816000875af1158015610747573d6000803e3d6000fd5b505050506040513d601f19601f8201168201806040525081019061076b919061284b565b6107b75760405162461bcd60e51b815260206004820152601c60248201527f426173654445583a20666565207472616e73666572206661696c65640000000060448201526064016105e4565b5050506107c360018055565b5050565b6107cf6121e1565b6107d761223a565b6001600160a01b0380871660009081526003602090815260408083209389168352929052206006015460ff1661081f5760405162461bcd60e51b81526004016105e4906127af565b60008411801561082f5750600083115b6108765760405162461bcd60e51b8152602060048201526018602482015277426173654445583a20696e76616c696420616d6f756e747360401b60448201526064016105e4565b6001600160a01b038087166000908152600360209081526040808320938916835292905290812060048101549091908103610923576007546108c06108bb87896127fc565b612280565b6108ca919061286d565b905060075481101561091e5760405162461bcd60e51b815260206004820152601f60248201527f426173654445583a20696e73756666696369656e74206c69717569646974790060448201526064016105e4565b6109d4565b6000826002015483600401548861093a91906127fc565b6109449190612829565b90506000836003015484600401548861095d91906127fc565b6109679190612829565b9050610973828261236f565b92508588101580156109855750848710155b6109d15760405162461bcd60e51b815260206004820152601d60248201527f426173654445583a20696e73756666696369656e7420616d6f756e747300000060448201526064016105e4565b50505b6040516323b872dd60e01b8152336004820152306024820152604481018790526001600160a01b038916906323b872dd906064016020604051808303816000875af1158015610a27573d6000803e3d6000fd5b505050506040513d601f19601f82011682018060405250810190610a4b919061284b565b610a975760405162461bcd60e51b815260206004820152601a60248201527f426173654445583a207472616e736665722041206661696c656400000000000060448201526064016105e4565b6040516323b872dd60e01b8152336004820152306024820152604481018690526001600160a01b038816906323b872dd906064016020604051808303816000875af1158015610aea573d6000803e3d6000fd5b505050506040513d601f19601f82011682018060405250810190610b0e919061284b565b610b5a5760405162461bcd60e51b815260206004820152601a60248201527f426173654445583a207472616e736665722042206661696c656400000000000060448201526064016105e4565b85826002016000828254610b6e9190612880565b9250508190555084826003016000828254610b899190612880565b9250508190555080826004016000828254610ba49190612880565b90915550503360009081526004602090815260408083206001600160a01b038c81168552908352818420908b16845290915281208054839290610be8908490612880565b90915550503360008181526004602090815260408083206001600160a01b038d8116808652918452828520908d16808652908452938290204260019091015581518b81529283018a90529082018590529192907f43c967b388d3a4ccad3f7ab80167852e322e5a3fde9893f530252281b2ae8b709060600160405180910390a45050610c7360018055565b505050505050565b610c83612389565b610c8b6123e3565b565b6001600160a01b038083166000908152600360209081526040808320938516835292905290812060060154819081908190819060ff16610cf1576001600160a01b038087166000908152600360209081526040808320938b16835292905220610d17565b6001600160a01b038088166000908152600360209081526040808320938a168352929052205b6040805160e08101825282546001600160a01b03908116825260018401541660208201526002830154918101919091526003820154606082015260048201546080820152600582015460a082015260069091015460ff16151560c08201819052909150610d965760405162461bcd60e51b81526004016105e4906127af565b60408101516060820151608083015160a0909301519199909850919650945092505050565b6001600160a01b03808416600090815260036020908152604080832093861683529290529081206006015460ff1680610e1c57506001600160a01b0380841660009081526003602090815260408083209388168352929052206006015460ff165b610e385760405162461bcd60e51b81526004016105e4906127af565b6001600160a01b03808516600090815260036020908152604080832093871683529290529081206006015460ff16610e94576001600160a01b038085166000908152600360209081526040808320938916835292905220610eba565b6001600160a01b0380861660009081526003602090815260408083209388168352929052205b6040805160e08101825282546001600160a01b039081168083526001850154821660208401526002850154938301939093526003840154606083015260048401546080830152600584015460a083015260069093015460ff16151560c08201529250600091871614610f30578160600151610f36565b81604001515b90506000866001600160a01b031683600001516001600160a01b031614610f61578260400151610f67565b82606001515b9050600085118015610f795750600082115b8015610f855750600081115b610fcc5760405162461bcd60e51b8152602060048201526018602482015277426173654445583a20696e76616c696420616d6f756e747360401b60448201526064016105e4565b60008360a00151612710610fe0919061286d565b610fea90876127fc565b90506000610ff883836127fc565b9050600082611009612710876127fc565b6110139190612880565b905061101f8183612829565b9a9950505050505050505050565b611035612389565b816001600160a01b0316836001600160a01b0316036110965760405162461bcd60e51b815260206004820152601960248201527f426173654445583a206964656e746963616c20746f6b656e730000000000000060448201526064016105e4565b6001600160a01b038316158015906110b657506001600160a01b03821615155b6110fa5760405162461bcd60e51b8152602060048201526015602482015274426173654445583a207a65726f206164647265737360581b60448201526064016105e4565b6001600160a01b0380841660009081526003602090815260408083209386168352929052206006015460ff161561116a5760405162461bcd60e51b8152602060048201526014602482015273426173654445583a20706f6f6c2065786973747360601b60448201526064016105e4565b60008115611178578161117c565b6006545b90506103e88111156111c85760405162461bcd60e51b8152602060048201526015602482015274084c2e6ca888ab07440cccaca40e8dede40d0d2ced605b1b60448201526064016105e4565b6040805160e0810182526001600160a01b0386811680835286821660208085018281526000868801818152606088018281526080890183815260a08a018c8152600160c08c018181528a87526003808a528e88208b89529099528d87209c518d546001600160a01b0319908116918e16919091178e559751918d01805490981691909b1617909555915160028a015551938801939093559151600487015551600586015592516006909401805460ff19169415159490941790935592513093917f9c5d829b9b23efc461f9aeef91979ec04bb903feb3bee4f26d22114abfc7335b91a450505050565b6112b9612389565b6103e88111156113035760405162461bcd60e51b8152602060048201526015602482015274084c2e6ca888ab07440cccaca40e8dede40d0d2ced605b1b60448201526064016105e4565b600655565b611310612389565b610c8b6000612435565b611322612389565b610c8b612485565b611332612389565b816001600160a01b031663a9059cbb6113536000546001600160a01b031690565b6040516001600160e01b031960e084901b1681526001600160a01b039091166004820152602481018490526044016020604051808303816000875af11580156113a0573d6000803e3d6000fd5b505050506040513d601f19601f820116820180604052508101906113c4919061284b565b6107c35760405162461bcd60e51b815260206004820152602260248201527f426173654445583a20656d657267656e6379207769746864726177206661696c604482015261195960f21b60648201526084016105e4565b611423612389565b6107d08111156114755760405162461bcd60e51b815260206004820152601e60248201527f426173654445583a2070726f746f636f6c2066656520746f6f2068696768000060448201526064016105e4565b600855565b600080611488858585610dbb565b6001600160a01b0380871660009081526003602090815260408083209389168352929052908120600601549193509060ff166114e8576001600160a01b038086166000908152600360209081526040808320938a1683529290522061150e565b6001600160a01b0380871660009081526003602090815260408083209389168352929052205b6040805160e08101825282546001600160a01b039081168083526001850154821660208401526002850154938301939093526003840154606083015260048401546080830152600584015460a083015260069093015460ff16151560c0820152925060009188161461158457816060015161158a565b81604001515b90506000876001600160a01b031683600001516001600160a01b0316146115b55782604001516115bb565b82606001515b90506000826115d283670de0b6b3a76400006127fc565b6115dc9190612829565b90506000876115f388670de0b6b3a76400006127fc565b6115fd9190612829565b90508161160a828261286d565b611616906127106127fc565b6116209190612829565b95505050505050935093915050565b6116376121e1565b6001600160a01b0380861660009081526003602090815260408083209388168352929052206006015460ff1661167f5760405162461bcd60e51b81526004016105e4906127af565b600083116116cf5760405162461bcd60e51b815260206004820152601a60248201527f426173654445583a20696e76616c6964206c697175696469747900000000000060448201526064016105e4565b6001600160a01b0380861660008181526003602090815260408083209489168084529482528083203384526004835281842094845293825280832094835293905291909120548411156117645760405162461bcd60e51b815260206004820152601f60248201527f426173654445583a20696e73756666696369656e74206c69717569646974790060448201526064016105e4565b6000816004015482600201548661177b91906127fc565b6117859190612829565b90506000826004015483600301548761179e91906127fc565b6117a89190612829565b90508482101580156117ba5750838110155b6118065760405162461bcd60e51b815260206004820152601d60248201527f426173654445583a20696e73756666696369656e7420616d6f756e747300000060448201526064016105e4565b8183600201600082825461181a919061286d565b9250508190555080836003016000828254611835919061286d565b9250508190555085836004016000828254611850919061286d565b90915550503360009081526004602090815260408083206001600160a01b038c81168552908352818420908b1684529091528120805488929061189490849061286d565b909155505060405163a9059cbb60e01b8152336004820152602481018390526001600160a01b0389169063a9059cbb906044016020604051808303816000875af11580156118e6573d6000803e3d6000fd5b505050506040513d601f19601f8201168201806040525081019061190a919061284b565b6119565760405162461bcd60e51b815260206004820152601a60248201527f426173654445583a207472616e736665722041206661696c656400000000000060448201526064016105e4565b60405163a9059cbb60e01b8152336004820152602481018290526001600160a01b0388169063a9059cbb906044016020604051808303816000875af11580156119a3573d6000803e3d6000fd5b505050506040513d601f19601f820116820180604052508101906119c7919061284b565b611a135760405162461bcd60e51b815260206004820152601a60248201527f426173654445583a207472616e736665722042206661696c656400000000000060448201526064016105e4565b60408051838152602081018390529081018790526001600160a01b0380891691908a169033907fd765e08eef31c0983ecca03ecd166297ac485ecd5dd69e291c848f0a020333c19060600160405180910390a4505050611a7260018055565b5050505050565b611a81612389565b6001600160a01b038116611acf5760405162461bcd60e51b8152602060048201526015602482015274426173654445583a207a65726f206164647265737360581b60448201526064016105e4565b600980546001600160a01b0319166001600160a01b0392909216919091179055565b611af9612389565b6001600160a01b038116611b5e5760405162461bcd60e51b815260206004820152602660248201527f4f776e61626c653a206e6577206f776e657220697320746865207a65726f206160448201526564647265737360d01b60648201526084016105e4565b611b6781612435565b50565b6001600160a01b038083166000908152600360209081526040808320938516835292905290812060060154819060ff16611bc8576001600160a01b038084166000908152600360209081526040808320938816835292905220611bee565b6001600160a01b0380851660009081526003602090815260408083209387168352929052205b6040805160e08101825282546001600160a01b03908116825260018401541660208201526002830154918101919091526003820154606082015260048201546080820152600582015460a082015260069091015460ff16151560c08201819052909150611c6d5760405162461bcd60e51b81526004016105e4906127af565b6001600160a01b038086166000908152600460209081526040808320888516845282528083209387168352928152908290208251606081018452815481526001820154928101929092526002015491810191909152608082015115611d035760808201516001600160a01b0386166000908152600560205260409020548251611cf691906127fc565b611d009190612829565b92505b50509392505050565b611d146121e1565b611d1c61223a565b6001600160a01b0380851660009081526003602090815260408083209387168352929052206006015460ff1680611d7b57506001600160a01b0380841660009081526003602090815260408083209388168352929052206006015460ff165b611d975760405162461bcd60e51b81526004016105e4906127af565b60008211611de75760405162461bcd60e51b815260206004820152601760248201527f426173654445583a20696e76616c696420616d6f756e7400000000000000000060448201526064016105e4565b6001600160a01b03808516600090815260036020908152604080832093871683529290529081206006015460ff16611e43576001600160a01b038085166000908152600360209081526040808320938916835292905220611e69565b6001600160a01b0380861660009081526003602090815260408083209388168352929052205b90506000611e78868686610dbb565b905082811015611eca5760405162461bcd60e51b815260206004820152601c60248201527f426173654445583a20696e73756666696369656e74206f75747075740000000060448201526064016105e4565b6000612710836005015486611edf91906127fc565b611ee99190612829565b9050600061271060085483611efe91906127fc565b611f089190612829565b90506000611f16828461286d565b6040516323b872dd60e01b8152336004820152306024820152604481018990529091506001600160a01b038a16906323b872dd906064016020604051808303816000875af1158015611f6c573d6000803e3d6000fd5b505050506040513d601f19601f82011682018060405250810190611f90919061284b565b611fd75760405162461bcd60e51b815260206004820152601860248201527710985cd95111560e881d1c985b9cd9995c8819985a5b195960421b60448201526064016105e4565b84546001600160a01b03808b169116036120255786856002016000828254611fff9190612880565b925050819055508385600301600082825461201a919061286d565b9091555061205a9050565b868560030160008282546120399190612880565b9250508190555083856002016000828254612054919061286d565b90915550505b60405163a9059cbb60e01b8152336004820152602481018590526001600160a01b0389169063a9059cbb906044016020604051808303816000875af11580156120a7573d6000803e3d6000fd5b505050506040513d601f19601f820116820180604052508101906120cb919061284b565b6121125760405162461bcd60e51b815260206004820152601860248201527710985cd95111560e881d1c985b9cd9995c8819985a5b195960421b60448201526064016105e4565b6001600160a01b0389166000908152600560205260408120805484929061213a908490612880565b909155505060408051888152602081018690526001600160a01b03808b1692908c169133917f764f0dc063c06f32d89a3f3af80c0db4be8a090901f589a478b447e0a51f09f1910160405180910390a4886001600160a01b03167f06c5efeff5c320943d265dc4e5f1af95ad523555ce0c1957e367dda5514572df836040516121c591815260200190565b60405180910390a250505050506121db60018055565b50505050565b6002600154036122335760405162461bcd60e51b815260206004820152601f60248201527f5265656e7472616e637947756172643a207265656e7472616e742063616c6c0060448201526064016105e4565b6002600155565b60025460ff1615610c8b5760405162461bcd60e51b815260206004820152601060248201526f14185d5cd8589b194e881c185d5cd95960821b60448201526064016105e4565b60008160000361229257506000919050565b6000600161229f846124c2565b901c6001901b905060018184816122b8576122b8612813565b048201901c905060018184816122d0576122d0612813565b048201901c905060018184816122e8576122e8612813565b048201901c9050600181848161230057612300612813565b048201901c9050600181848161231857612318612813565b048201901c9050600181848161233057612330612813565b048201901c9050600181848161234857612348612813565b048201901c90506123688182858161236257612362612813565b0461236f565b9392505050565b600081831061237e5781612380565b825b90505b92915050565b6000546001600160a01b03163314610c8b5760405162461bcd60e51b815260206004820181905260248201527f4f776e61626c653a2063616c6c6572206973206e6f7420746865206f776e657260448201526064016105e4565b6123eb612556565b6002805460ff191690557f5db9ee0a495bf2e6ff9c91a7834c1ba4fdd244a5e8aa4e537bd38aeae4b073aa335b6040516001600160a01b03909116815260200160405180910390a1565b600080546001600160a01b038381166001600160a01b0319831681178455604051919092169283917f8be0079c531659141344cd1fd0a4f28419497f9722a3daafe3b4186f6b6457e09190a35050565b61248d61223a565b6002805460ff191660011790557f62e78cea01bee320cd4e420270b5ea74000d11b0c9f74754ebdbfc544b05a2586124183390565b600080608083901c156124d757608092831c92015b604083901c156124e957604092831c92015b602083901c156124fb57602092831c92015b601083901c1561250d57601092831c92015b600883901c1561251f57600892831c92015b600483901c1561253157600492831c92015b600283901c1561254357600292831c92015b600183901c156123835760010192915050565b60025460ff16610c8b5760405162461bcd60e51b815260206004820152601460248201527314185d5cd8589b194e881b9bdd081c185d5cd95960621b60448201526064016105e4565b80356001600160a01b03811681146125b657600080fd5b919050565b600080604083850312156125ce57600080fd5b6125d78361259f565b91506125e56020840161259f565b90509250929050565b60008060008060008060c0878903121561260757600080fd5b6126108761259f565b955061261e6020880161259f565b95989597505050506040840135936060810135936080820135935060a0909101359150565b60008060006060848603121561265857600080fd5b6126618461259f565b925061266f6020850161259f565b9150604084013590509250925092565b60006020828403121561269157600080fd5b5035919050565b6000602082840312156126aa57600080fd5b6123808261259f565b600080604083850312156126c657600080fd5b6126cf8361259f565b946020939093013593505050565b6000806000606084860312156126f257600080fd5b6126fb8461259f565b92506127096020850161259f565b91506127176040850161259f565b90509250925092565b600080600080600060a0868803121561273857600080fd5b6127418661259f565b945061274f6020870161259f565b94979496505050506040830135926060810135926080909101359150565b6000806000806080858703121561278357600080fd5b61278c8561259f565b935061279a6020860161259f565b93969395505050506040820135916060013590565b6020808252601c908201527f426173654445583a20706f6f6c20646f6573206e6f7420657869737400000000604082015260600190565b634e487b7160e01b600052601160045260246000fd5b8082028115828204841417612383576123836127e6565b634e487b7160e01b600052601260045260246000fd5b60008261284657634e487b7160e01b600052601260045260246000fd5b500490565b60006020828403121561285d57600080fd5b8151801515811461236857600080fd5b81810381811115612383576123836127e6565b80820180821115612383576123836127e656fea2646970667358221220c70c7b61cafa58bfa5b9bd297e91254b6aac3686ea258def133222bfff0409be64736f6c63430008130033",
  "linkReferences": {},
  "deployedLinkReferences": {}
}