{
  "_format": "hh-sol-artifact-1",
  "contractName": "BaseNFT",
  "sourceName": "contracts/examples/BaseNFT.sol",
  "abi": [
    {
      "inputs": [
        {
          "internalType": "string",
          "name": "name",
          "type": "string"
        },
        {
          "internalType": "string",
          "name": "symbol",
          "type": "string"
        },
        {
          "internalType": "string",
          "name": "baseURI",
          "type": "string"
        }
      ],
      "stateMutability": "nonpayable",
      "type": "constructor"
    },
    {
      "anonymous": false,
      "inputs": [
        {
          "indexed": true,
          "internalType": "address",
          "name": "owner",
          "type": "address"
        },
        {
          "indexed": true,
          "internalType": "address",
          "name": "approved",
          "type": "address"
        },
        {
          "indexed": true,
          "internalType": "uint256",
          "name": "tokenId",
          "type": "uint256"
        }
      ],
      "name": "Approval",
      "type": "event"
    },
    {
      "anonymous": false,
      "inputs": [
        {
          "indexed": true,
          "internalType": "address",
          "name": "owner",
          "type": "address"
        },
        {
          "indexed": true,
          "internalType": "address",
          "name": "operator",
          "type": "address"
        },
        {
          "indexed": false,
          "internalType": "bool",
          "name": "approved",
          "type": "bool"
        }
      ],
      "name": "ApprovalForAll",
      "type": "event"
    },
    {
      "anonymous": false,
      "inputs": [
        {
          "indexed": true,
          "internalType": "address",
          "name": "previousOwner",
          "type": "address"
        },
        {
          "indexed": true,
          "internalType": "address",
          "name": "newOwner",
          "type": "address"
        }
      ],
      "name": "OwnershipTransferred",
      "type": "event"
    },
    {
      "anonymous": false,
      "inputs": [
        {
          "indexed": false,
          "internalType": "address",
          "name": "account",
          "type": "address"
        }
      ],
      "name": "Paused",
      "type": "event"
    },
    {
      "anonymous": false,
      "inputs": [
        {
          "indexed": true,
          "internalType": "address",
          "name": "from",
          "type": "address"
        },
        {
          "indexed": true,
          "internalType": "address",
          "name": "to",
          "type": "address"
        },
        {
          "indexed": true,
          "internalType": "uint256",
          "name": "tokenId",
          "type": "uint256"
        }
      ],
      "name": "Transfer",
      "type": "event"
    },
    {
      "anonymous": false,
      "inputs": [
        {
          "indexed": false,
          "internalType": "address",
          "name": "account",
          "type": "address"
        }
      ],
      "name": "Unpaused",
      "type": "event"
    },
    {
      "inputs": [],
      "name": "MAX_MINT_PER_TX",
      "outputs": [
        {
          "internalType": "uint256",
          "name": "",
          "type": "uint256"
        }
      ],
      "stateMutability": "view",
      "type": "function"
    },
    {
      "inputs": [],
      "name": "MAX_SUPPLY",
      "outputs": [
        {
          "internalType": "uint256",
          "name": "",
          "type": "uint256"
        }
      ],
      "stateMutability": "view",
      "type": "function"
    },
    {
      "inputs": [],
      "name": "PRICE",
      "outputs": [
        {
          "internalType": "uint256",
          "name": "",
          "type": "uint256"
        }
      ],
      "stateMutability": "view",
      "type": "function"
    },
    {
      "inputs": [
        {
          "internalType": "address",
          "name": "to",
          "type": "address"
        },
        {
          "internalType": "uint256",
          "name": "tokenId",
          "type": "uint256"
        }
      ],
      "name": "approve",
      "outputs": [],
      "stateMutability": "nonpayable",
      "type": "function"
    },
    {
      "inputs": [
        {
          "internalType": "address",
          "name": "owner",
          "type": "address"
        }
      ],
      "name": "balanceOf",
      "outputs": [
        {
          "internalType": "uint256",
          "name": "",
          "type": "uint256"
        }
      ],
      "stateMutability": "view",
      "type": "function"
    },
    {
      "inputs": [
        {
          "internalType": "uint256",
          "name": "tokenId",
          "type": "uint256"
        }
      ],
      "name": "getApproved",
      "outputs": [
        {
          "internalType": "address",
          "name": "",
          "type": "address"
        }
      ],
      "stateMutability": "view",
      "type": "function"
    },
    {
      "inputs": [],
      "name": "getCurrentTokenId",
      "outputs": [
        {
          "internalType": "uint256",
          "name": "",
          "type": "uint256"
        }
      ],
      "stateMutability": "view",
      "type": "function"
    },
    {
      "inputs": [
        {
          "internalType": "address",
          "name": "owner",
          "type": "address"
        },
        {
          "internalType": "address",
          "name": "operator",
          "type": "address"
        }
      ],
      "name": "isApprovedForAll",
      "outputs": [
        {
          "internalType": "bool",
          "name": "",
          "type": "bool"
        }
      ],
      "stateMutability": "view",
      "type": "function"
    },
    {
      "inputs": [],
      "name": "mint",
      "outputs": [],
      "stateMutability": "payable",
      "type": "function"
    },
    {
      "inputs": [
        {
          "internalType": "uint256",
          "name": "quantity",
          "type": "uint256"
        }
      ],
      "name": "mintBatch",
      "outputs": [],
      "stateMutability": "payable",
      "type": "function"
    },
    {
      "inputs": [],
      "name": "mintingEnabled",
      "outputs": [
        {
          "internalType": "bool",
          "name": "",
          "type": "bool"
        }
      ],
      "stateMutability": "view",
      "type": "function"
    },
    {
      "inputs": [],
      "name": "name",
      "outputs": [
        {
          "internalType": "string",
          "name": "",
          "type": "string"
        }
      ],
      "stateMutability": "view",
      "type": "function"
    },
    {
      "inputs": [],
      "name": "owner",
      "outputs": [
        {
          "internalType": "address",
          "name": "",
          "type": "address"
        }
      ],
      "stateMutability": "view",
      "type": "function"
    },
    {
      "inputs": [
        {
          "internalType": "address",
          "name": "to",
          "type": "address"
        },
        {
          "internalType": "uint256",
          "name": "quantity",
          "type": "uint256"
        }
      ],
      "name": "ownerMint",
      "outputs": [],
      "stateMutability": "nonpayable",
      "type": "function"
    },
    {
      "inputs": [
        {
          "internalType": "uint256",
          "name": "tokenId",
          "type": "uint256"
        }
      ],
      "name": "ownerOf",
      "outputs": [
        {
          "internalType": "address",
          "name": "",
          "type": "address"
        }
      ],
      "stateMutability": "view",
      "type": "function"
    },
    {
      "inputs": [],
      "name": "pause",
      "outputs": [],
      "stateMutability": "nonpayable",
      "type": "function"
    },
    {
      "inputs": [],
      "name": "paused",
      "outputs": [
        {
          "internalType": "bool",
          "name": "",
          "type": "bool"
        }
      ],
      "stateMutability": "view",
      "type": "function"
    },
    {
      "inputs": [],
      "name": "renounceOwnership",
      "outputs": [],
      "stateMutability": "nonpayable",
      "type": "function"
    },
    {
      "inputs": [
        {
          "internalType": "address",
          "name": "from",
          "type": "address"
        },
        {
          "internalType": "address",
          "name": "to",
          "type": "address"
        },
        {
          "internalType": "uint256",
          "name": "tokenId",
          "type": "uint256"
        }
      ],
      "name": "safeTransferFrom",
      "outputs": [],
      "stateMutability": "nonpayable",
      "type": "function"
    },
    {
      "inputs": [
        {
          "internalType": "address",
          "name": "from",
          "type": "address"
        },
        {
          "internalType": "address",
          "name": "to",
          "type": "address"
        },
        {
          "internalType": "uint256",
          "name": "tokenId",
          "type": "uint256"
        },
        {
          "internalType": "bytes",
          "name": "data",
          "type": "bytes"
        }
      ],
      "name": "safeTransferFrom",
      "outputs": [],
      "stateMutability": "nonpayable",
      "type": "function"
    },
    {
      "inputs": [
        {
          "internalType": "address",
          "name": "operator",
          "type": "address"
        },
        {
          "internalType": "bool",
          "name": "approved",
          "type": "bool"
        }
      ],
      "name": "setApprovalForAll",
      "outputs": [],
      "stateMutability": "nonpayable",
      "type": "function"
    },
    {
      "inputs": [
        {
          "internalType": "string",
          "name": "baseURI",
          "type": "string"
        }
      ],
      "name": "setBaseURI",
      "outputs": [],
      "stateMutability": "nonpayable",
      "type": "function"
    },
    {
      "inputs": [
        {
          "internalType": "bytes4",
          "name": "interfaceId",
          "type": "bytes4"
        }
      ],
      "name": "supportsInterface",
      "outputs": [
        {
          "internalType": "bool",
          "name": "",
          "type": "bool"
        }
      ],
      "stateMutability": "view",
      "type": "function"
    },
    {
      "inputs": [],
      "name": "symbol",
      "outputs": [
        {
          "internalType": "string",
          "name": "",
          "type": "string"
        }
      ],
      "stateMutability": "view",
      "type": "function"
    },
    {
      "inputs": [],
      "name": "toggleMinting",
      "outputs": [],
      "stateMutability": "nonpayable",
      "type": "function"
    },
    {
      "inputs": [
        {
          "internalType": "uint256",
          "name": "tokenId",
          "type": "uint256"
        }
      ],
      "name": "tokenURI",
      "outputs": [
        {
          "internalType": "string",
          "name": "",
          "type": "string"
        }
      ],
      "stateMutability": "view",
      "type": "function"
    },
    {
      "inputs": [],
      "name": "totalSupply",
      "outputs": [
        {
          "internalType": "uint256",
          "name": "",
          "type": "uint256"
        }
      ],
      "stateMutability": "view",
      "type": "function"
    },
    {
      "inputs": [
        {
          "internalType": "address",
          "name": "from",
          "type": "address"
        },
        {
          "internalType": "address",
          "name": "to",
          "type": "address"
        },
        {
          "internalType": "uint256",
          "name": "tokenId",
          "type": "uint256"
        }
      ],
      "name": "transferFrom",
      "outputs": [],
      "stateMutability": "nonpayable",
      "type": "function"
    },
    {
      "inputs": [
        {
          "internalType": "address",
          "name": "newOwner",
          "type": "address"
        }
      ],
      "name": "transferOwnership",
      "outputs": [],
      "stateMutability": "nonpayable",
      "type": "function"
    },
    {
      "inputs": [],
      "name": "unpause",
      "outputs": [],
      "stateMutability": "nonpayable",
      "type": "function"
    },
    {
      "inputs": [],
      "name": "withdraw",
      "outputs": [],
      "stateMutability": "nonpayable",
      "type": "function"
    }
  ],
  "bytecode": "0x608060405260006007556009805460ff191660011790553480156200002357600080fd5b50604051620022c3380380620022c38339810160408190526200004691620001c2565b82826000620000568382620002e2565b506001620000658282620002e2565b505050620000826200007c620000a760201b60201c565b620000ab565b6006805460ff60a01b1916905560086200009d8282620002e2565b50505050620003ae565b3390565b600680546001600160a01b038381166001600160a01b0319831681179093556040519116919082907f8be0079c531659141344cd1fd0a4f28419497f9722a3daafe3b4186f6b6457e090600090a35050565b634e487b7160e01b600052604160045260246000fd5b600082601f8301126200012557600080fd5b81516001600160401b0380821115620001425762000142620000fd565b604051601f8301601f19908116603f011681019082821181831017156200016d576200016d620000fd565b816040528381526020925086838588010111156200018a57600080fd5b600091505b83821015620001ae57858201830151818301840152908201906200018f565b600093810190920192909252949350505050565b600080600060608486031215620001d857600080fd5b83516001600160401b0380821115620001f057600080fd5b620001fe8783880162000113565b945060208601519150808211156200021557600080fd5b620002238783880162000113565b935060408601519150808211156200023a57600080fd5b50620002498682870162000113565b9150509250925092565b600181811c908216806200026857607f821691505b6020821081036200028957634e487b7160e01b600052602260045260246000fd5b50919050565b601f821115620002dd57600081815260208120601f850160051c81016020861015620002b85750805b601f850160051c820191505b81811015620002d957828155600101620002c4565b5050505b505050565b81516001600160401b03811115620002fe57620002fe620000fd565b62000316816200030f845462000253565b846200028f565b602080601f8311600181146200034e5760008415620003355750858301515b600019600386901b1c1916600185901b178555620002d9565b600085815260208120601f198616915b828110156200037f578886015182559484019460019091019084016200035e565b50858210156200039e5787850151600019600388901b60f8161c191681555b5050505050600190811b01905550565b611f0580620003be6000396000f3fe6080604052600436106101d85760003560e01c80635c975abb116101025780638ecad72111610095578063b88d4fde11610064578063b88d4fde146104c3578063c87b56dd146104e3578063e985e9c514610503578063f2fde38b1461052357600080fd5b80638ecad7211461045f57806395d89b41146104745780639fd6db1214610489578063a22cb465146104a357600080fd5b80637d55094d116100d15780637d55094d146103fc5780638456cb59146104115780638d859f3e146104265780638da5cb5b1461044157600080fd5b80635c975abb146103885780636352211e146103a757806370a08231146103c7578063715018a6146103e757600080fd5b806323b872dd1161017a57806342842e0e1161014957806342842e0e14610328578063484b973c1461034857806355f804b314610368578063561892361461029657600080fd5b806323b872dd146102c857806332cb6b0c146102e85780633ccfd60b146102fe5780633f4ba83a1461031357600080fd5b8063095ea7b3116101b6578063095ea7b31461026c5780631249c58b1461028e57806318160ddd1461029657806320e409b4146102b557600080fd5b806301ffc9a7146101dd57806306fdde0314610212578063081812fc14610234575b600080fd5b3480156101e957600080fd5b506101fd6101f83660046118cb565b610543565b60405190151581526020015b60405180910390f35b34801561021e57600080fd5b50610227610595565b6040516102099190611938565b34801561024057600080fd5b5061025461024f36600461194b565b610627565b6040516001600160a01b039091168152602001610209565b34801561027857600080fd5b5061028c610287366004611980565b61064e565b005b61028c610768565b3480156102a257600080fd5b506007545b604051908152602001610209565b61028c6102c336600461194b565b61088f565b3480156102d457600080fd5b5061028c6102e33660046119aa565b610a4d565b3480156102f457600080fd5b506102a761271081565b34801561030a57600080fd5b5061028c610a7e565b34801561031f57600080fd5b5061028c610b88565b34801561033457600080fd5b5061028c6103433660046119aa565b610b98565b34801561035457600080fd5b5061028c610363366004611980565b610bb3565b34801561037457600080fd5b5061028c610383366004611a72565b610c58565b34801561039457600080fd5b50600654600160a01b900460ff166101fd565b3480156103b357600080fd5b506102546103c236600461194b565b610c6c565b3480156103d357600080fd5b506102a76103e2366004611abb565b610ccc565b3480156103f357600080fd5b5061028c610d52565b34801561040857600080fd5b5061028c610d64565b34801561041d57600080fd5b5061028c610d80565b34801561043257600080fd5b506102a7662386f26fc1000081565b34801561044d57600080fd5b506006546001600160a01b0316610254565b34801561046b57600080fd5b506102a7600a81565b34801561048057600080fd5b50610227610d90565b34801561049557600080fd5b506009546101fd9060ff1681565b3480156104af57600080fd5b5061028c6104be366004611ad6565b610d9f565b3480156104cf57600080fd5b5061028c6104de366004611b12565b610daa565b3480156104ef57600080fd5b506102276104fe36600461194b565b610de2565b34801561050f57600080fd5b506101fd61051e366004611b8e565b610e49565b34801561052f57600080fd5b5061028c61053e366004611abb565b610e77565b60006001600160e01b031982166380ac58cd60e01b148061057457506001600160e01b03198216635b5e139f60e01b145b8061058f57506301ffc9a760e01b6001600160e01b03198316145b92915050565b6060600080546105a490611bc1565b80601f01602080910402602001604051908101604052809291908181526020018280546105d090611bc1565b801561061d5780601f106105f25761010080835404028352916020019161061d565b820191906000526020600020905b81548152906001019060200180831161060057829003601f168201915b5050505050905090565b600061063282610ef0565b506000908152600460205260409020546001600160a01b031690565b600061065982610c6c565b9050806001600160a01b0316836001600160a01b0316036106cb5760405162461bcd60e51b815260206004820152602160248201527f4552433732313a20617070726f76616c20746f2063757272656e74206f776e656044820152603960f91b60648201526084015b60405180910390fd5b336001600160a01b03821614806106e757506106e78133610e49565b6107595760405162461bcd60e51b815260206004820152603d60248201527f4552433732313a20617070726f76652063616c6c6572206973206e6f7420746f60448201527f6b656e206f776e6572206f7220617070726f76656420666f7220616c6c00000060648201526084016106c2565b6107638383610f4f565b505050565b610770610fbd565b60095460ff166107c25760405162461bcd60e51b815260206004820152601c60248201527f426173654e46543a206d696e74696e672069732064697361626c65640000000060448201526064016106c2565b612710600754106108155760405162461bcd60e51b815260206004820152601b60248201527f426173654e46543a206d617820737570706c792072656163686564000000000060448201526064016106c2565b662386f26fc1000034101561086c5760405162461bcd60e51b815260206004820152601d60248201527f426173654e46543a20696e73756666696369656e74207061796d656e7400000060448201526064016106c2565b6007805490600061087c83611c11565b919050555061088d3360075461100a565b565b610897610fbd565b60095460ff166108e95760405162461bcd60e51b815260206004820152601c60248201527f426173654e46543a206d696e74696e672069732064697361626c65640000000060448201526064016106c2565b600a81111561094c5760405162461bcd60e51b815260206004820152602960248201527f426173654e46543a2065786365656473206d6178206d696e742070657220747260448201526830b739b0b1ba34b7b760b91b60648201526084016106c2565b6127108160075461095d9190611c2a565b11156109ab5760405162461bcd60e51b815260206004820181905260248201527f426173654e46543a20776f756c6420657863656564206d617820737570706c7960448201526064016106c2565b6109bc81662386f26fc10000611c3d565b341015610a0b5760405162461bcd60e51b815260206004820152601d60248201527f426173654e46543a20696e73756666696369656e74207061796d656e7400000060448201526064016106c2565b60005b81811015610a495760078054906000610a2683611c11565b9190505550610a373360075461100a565b80610a4181611c11565b915050610a0e565b5050565b610a573382611024565b610a735760405162461bcd60e51b81526004016106c290611c54565b610763838383611083565b610a866111e7565b4780610ad45760405162461bcd60e51b815260206004820152601f60248201527f426173654e46543a206e6f2062616c616e636520746f2077697468647261770060448201526064016106c2565b6000610ae86006546001600160a01b031690565b6001600160a01b03168260405160006040518083038185875af1925050503d8060008114610b32576040519150601f19603f3d011682016040523d82523d6000602084013e610b37565b606091505b5050905080610a495760405162461bcd60e51b815260206004820152601a60248201527f426173654e46543a207769746864726177616c206661696c656400000000000060448201526064016106c2565b610b906111e7565b61088d611241565b61076383838360405180602001604052806000815250610daa565b610bbb6111e7565b61271081600754610bcc9190611c2a565b1115610c1a5760405162461bcd60e51b815260206004820181905260248201527f426173654e46543a20776f756c6420657863656564206d617820737570706c7960448201526064016106c2565b60005b818110156107635760078054906000610c3583611c11565b9190505550610c468360075461100a565b80610c5081611c11565b915050610c1d565b610c606111e7565b6008610a498282611cef565b6000818152600260205260408120546001600160a01b03168061058f5760405162461bcd60e51b8152602060048201526018602482015277115490cdcc8c4e881a5b9d985b1a59081d1bdad95b88125160421b60448201526064016106c2565b60006001600160a01b038216610d365760405162461bcd60e51b815260206004820152602960248201527f4552433732313a2061646472657373207a65726f206973206e6f7420612076616044820152683634b21037bbb732b960b91b60648201526084016106c2565b506001600160a01b031660009081526003602052604090205490565b610d5a6111e7565b61088d6000611296565b610d6c6111e7565b6009805460ff19811660ff90911615179055565b610d886111e7565b61088d6112e8565b6060600180546105a490611bc1565b610a4933838361132b565b610db43383611024565b610dd05760405162461bcd60e51b81526004016106c290611c54565b610ddc848484846113f9565b50505050565b6060610ded82610ef0565b6000610df761142c565b90506000815111610e175760405180602001604052806000815250610e42565b80610e218461143b565b604051602001610e32929190611daf565b6040516020818303038152906040525b9392505050565b6001600160a01b03918216600090815260056020908152604080832093909416825291909152205460ff1690565b610e7f6111e7565b6001600160a01b038116610ee45760405162461bcd60e51b815260206004820152602660248201527f4f776e61626c653a206e6577206f776e657220697320746865207a65726f206160448201526564647265737360d01b60648201526084016106c2565b610eed81611296565b50565b6000818152600260205260409020546001600160a01b0316610eed5760405162461bcd60e51b8152602060048201526018602482015277115490cdcc8c4e881a5b9d985b1a59081d1bdad95b88125160421b60448201526064016106c2565b600081815260046020526040902080546001600160a01b0319166001600160a01b0384169081179091558190610f8482610c6c565b6001600160a01b03167f8c5be1e5ebec7d5bd14f71427d1e84f3dd0314c0f7b2291e5b200ac8c7c3b92560405160405180910390a45050565b600654600160a01b900460ff161561088d5760405162461bcd60e51b815260206004820152601060248201526f14185d5cd8589b194e881c185d5cd95960821b60448201526064016106c2565b610a498282604051806020016040528060008152506114ce565b60008061103083610c6c565b9050806001600160a01b0316846001600160a01b0316148061105757506110578185610e49565b8061107b5750836001600160a01b031661107084610627565b6001600160a01b0316145b949350505050565b826001600160a01b031661109682610c6c565b6001600160a01b0316146110bc5760405162461bcd60e51b81526004016106c290611dde565b6001600160a01b03821661111e5760405162461bcd60e51b8152602060048201526024808201527f4552433732313a207472616e7366657220746f20746865207a65726f206164646044820152637265737360e01b60648201526084016106c2565b826001600160a01b031661113182610c6c565b6001600160a01b0316146111575760405162461bcd60e51b81526004016106c290611dde565b600081815260046020908152604080832080546001600160a01b03199081169091556001600160a01b0387811680865260038552838620805460001901905590871680865283862080546001019055868652600290945282852080549092168417909155905184937fddf252ad1be2c89b69c2b068fc378daa952ba7f163c4a11628f55a4df523b3ef91a4505050565b6006546001600160a01b0316331461088d5760405162461bcd60e51b815260206004820181905260248201527f4f776e61626c653a2063616c6c6572206973206e6f7420746865206f776e657260448201526064016106c2565b611249611501565b6006805460ff60a01b191690557f5db9ee0a495bf2e6ff9c91a7834c1ba4fdd244a5e8aa4e537bd38aeae4b073aa335b6040516001600160a01b03909116815260200160405180910390a1565b600680546001600160a01b038381166001600160a01b0319831681179093556040519116919082907f8be0079c531659141344cd1fd0a4f28419497f9722a3daafe3b4186f6b6457e090600090a35050565b6112f0610fbd565b6006805460ff60a01b1916600160a01b1790557f62e78cea01bee320cd4e420270b5ea74000d11b0c9f74754ebdbfc544b05a2586112793390565b816001600160a01b0316836001600160a01b03160361138c5760405162461bcd60e51b815260206004820152601960248201527f4552433732313a20617070726f766520746f2063616c6c65720000000000000060448201526064016106c2565b6001600160a01b03838116600081815260056020908152604080832094871680845294825291829020805460ff191686151590811790915591519182527f17307eab39ab6107e8899845ad3d59bd9653f200f220920489ca2b5937696c31910160405180910390a3505050565b611404848484611083565b61141084848484611551565b610ddc5760405162461bcd60e51b81526004016106c290611e23565b6060600880546105a490611bc1565b6060600061144883611652565b600101905060008167ffffffffffffffff811115611468576114686119e6565b6040519080825280601f01601f191660200182016040528015611492576020820181803683370190505b5090508181016020015b600019016f181899199a1a9b1b9c1cb0b131b232b360811b600a86061a8153600a850494508461149c57509392505050565b6114d8838361172a565b6114e56000848484611551565b6107635760405162461bcd60e51b81526004016106c290611e23565b600654600160a01b900460ff1661088d5760405162461bcd60e51b815260206004820152601460248201527314185d5cd8589b194e881b9bdd081c185d5cd95960621b60448201526064016106c2565b60006001600160a01b0384163b1561164757604051630a85bd0160e11b81526001600160a01b0385169063150b7a0290611595903390899088908890600401611e75565b6020604051808303816000875af19250505080156115d0575060408051601f3d908101601f191682019092526115cd91810190611eb2565b60015b61162d573d8080156115fe576040519150601f19603f3d011682016040523d82523d6000602084013e611603565b606091505b5080516000036116255760405162461bcd60e51b81526004016106c290611e23565b805181602001fd5b6001600160e01b031916630a85bd0160e11b14905061107b565b506001949350505050565b60008072184f03e93ff9f4daa797ed6e38ed64bf6a1f0160401b83106116915772184f03e93ff9f4daa797ed6e38ed64bf6a1f0160401b830492506040015b6d04ee2d6d415b85acef810000000083106116bd576d04ee2d6d415b85acef8100000000830492506020015b662386f26fc1000083106116db57662386f26fc10000830492506010015b6305f5e10083106116f3576305f5e100830492506008015b612710831061170757612710830492506004015b60648310611719576064830492506002015b600a831061058f5760010192915050565b6001600160a01b0382166117805760405162461bcd60e51b815260206004820181905260248201527f4552433732313a206d696e7420746f20746865207a65726f206164647265737360448201526064016106c2565b6000818152600260205260409020546001600160a01b0316156117e55760405162461bcd60e51b815260206004820152601c60248201527f4552433732313a20746f6b656e20616c7265616479206d696e7465640000000060448201526064016106c2565b6000818152600260205260409020546001600160a01b03161561184a5760405162461bcd60e51b815260206004820152601c60248201527f4552433732313a20746f6b656e20616c7265616479206d696e7465640000000060448201526064016106c2565b6001600160a01b038216600081815260036020908152604080832080546001019055848352600290915280822080546001600160a01b0319168417905551839291907fddf252ad1be2c89b69c2b068fc378daa952ba7f163c4a11628f55a4df523b3ef908290a45050565b6001600160e01b031981168114610eed57600080fd5b6000602082840312156118dd57600080fd5b8135610e42816118b5565b60005b838110156119035781810151838201526020016118eb565b50506000910152565b600081518084526119248160208601602086016118e8565b601f01601f19169290920160200192915050565b602081526000610e42602083018461190c565b60006020828403121561195d57600080fd5b5035919050565b80356001600160a01b038116811461197b57600080fd5b919050565b6000806040838503121561199357600080fd5b61199c83611964565b946020939093013593505050565b6000806000606084860312156119bf57600080fd5b6119c884611964565b92506119d660208501611964565b9150604084013590509250925092565b634e487b7160e01b600052604160045260246000fd5b600067ffffffffffffffff80841115611a1757611a176119e6565b604051601f8501601f19908116603f01168101908282118183101715611a3f57611a3f6119e6565b81604052809350858152868686011115611a5857600080fd5b858560208301376000602087830101525050509392505050565b600060208284031215611a8457600080fd5b813567ffffffffffffffff811115611a9b57600080fd5b8201601f81018413611aac57600080fd5b61107b848235602084016119fc565b600060208284031215611acd57600080fd5b610e4282611964565b60008060408385031215611ae957600080fd5b611af283611964565b915060208301358015158114611b0757600080fd5b809150509250929050565b60008060008060808587031215611b2857600080fd5b611b3185611964565b9350611b3f60208601611964565b925060408501359150606085013567ffffffffffffffff811115611b6257600080fd5b8501601f81018713611b7357600080fd5b611b82878235602084016119fc565b91505092959194509250565b60008060408385031215611ba157600080fd5b611baa83611964565b9150611bb860208401611964565b90509250929050565b600181811c90821680611bd557607f821691505b602082108103611bf557634e487b7160e01b600052602260045260246000fd5b50919050565b634e487b7160e01b600052601160045260246000fd5b600060018201611c2357611c23611bfb565b5060010190565b8082018082111561058f5761058f611bfb565b808202811582820484141761058f5761058f611bfb565b6020808252602d908201527f4552433732313a2063616c6c6572206973206e6f7420746f6b656e206f776e6560408201526c1c881bdc88185c1c1c9bdd9959609a1b606082015260800190565b601f82111561076357600081815260208120601f850160051c81016020861015611cc85750805b601f850160051c820191505b81811015611ce757828155600101611cd4565b505050505050565b815167ffffffffffffffff811115611d0957611d096119e6565b611d1d81611d178454611bc1565b84611ca1565b602080601f831160018114611d525760008415611d3a5750858301515b600019600386901b1c1916600185901b178555611ce7565b600085815260208120601f198616915b82811015611d8157888601518255948401946001909101908401611d62565b5085821015611d9f5787850151600019600388901b60f8161c191681555b5050505050600190811b01905550565b60008351611dc18184602088016118e8565b835190830190611dd58183602088016118e8565b01949350505050565b60208082526025908201527f4552433732313a207472616e736665722066726f6d20696e636f72726563742060408201526437bbb732b960d91b606082015260800190565b60208082526032908201527f4552433732313a207472616e7366657220746f206e6f6e20455243373231526560408201527131b2b4bb32b91034b6b83632b6b2b73a32b960711b606082015260800190565b6001600160a01b0385811682528416602082015260408101839052608060608201819052600090611ea89083018461190c565b9695505050505050565b600060208284031215611ec457600080fd5b8151610e42816118b556fea26469706673582212207705abae64aa33ae6e3b5b303a45ac68922752a3dcb74c06edc6df6cba73815b64736f6c63430008130033",
  "linkReferences": {},
  "deployedLinkReferences": {}
}