{
  "_format": "hh-sol-artifact-1",
  "contractName": "BaseMarketplace",
  "sourceName": "contracts/examples/BaseMarketplace.sol",
  "abi": [
    {
      "inputs": [],
      "stateMutability": "nonpayable",
      "type": "constructor"
    },
    {
      "anonymous": false,
      "inputs": [
        {
          "indexed": true,
          "internalType": "address",
          "name": "seller",
          "type": "address"
        },
        {
          "indexed": true,
          "internalType": "address",
          "name": "nftContract",
          "type": "address"
        },
        {
          "indexed": true,
          "internalType": "uint256",
          "name": "tokenId",
          "type": "uint256"
        },
        {
          "indexed": false,
          "internalType": "uint256",
          "name": "startingPrice",
          "type": "uint256"
        },
        {
          "indexed": false,
          "internalType": "uint256",
          "name": "endTime",
          "type": "uint256"
        }
      ],
      "name": "AuctionCreated",
      "type": "event"
    },
    {
      "anonymous": false,
      "inputs": [
        {
          "indexed": true,
          "internalType": "address",
          "name": "winner",
          "type": "address"
        },
        {
          "indexed": true,
          "internalType": "address",
          "name": "seller",
          "type": "address"
        },
        {
          "indexed": true,
          "internalType": "address",
          "name": "nftContract",
          "type": "address"
        },
        {
          "indexed": false,
          "internalType": "uint256",
          "name": "tokenId",
          "type": "uint256"
        },
        {
          "indexed": false,
          "internalType": "uint256",
          "name": "winningBid",
          "type": "uint256"
        }
      ],
      "name": "AuctionEnded",
      "type": "event"
    },
    {
      "anonymous": false,
      "inputs": [
        {
          "indexed": true,
          "internalType": "address",
          "name": "bidder",
          "type": "address"
        },
        {
          "indexed": true,
          "internalType": "address",
          "name": "nftContract",
          "type": "address"
        },
        {
          "indexed": true,
          "internalType": "uint256",
          "name": "tokenId",
          "type": "uint256"
        },
        {
          "indexed": false,
          "internalType": "uint256",
          "name": "bidAmount",
          "type": "uint256"
        }
      ],
      "name": "BidPlaced",
      "type": "event"
    },
    {
      "anonymous": false,
      "inputs": [
        {
          "indexed": true,
          "internalType": "address",
          "name": "feeRecipient",
          "type": "address"
        },
        {
          "indexed": false,
          "internalType": "uint256",
          "name": "amount",
          "type": "uint256"
        },
        {
          "indexed": false,
          "internalType": "address",
          "name": "paymentToken",
          "type": "address"
        }
      ],
      "name": "FeeCollected",
      "type": "event"
    },
    {
      "anonymous": false,
      "inputs": [
        {
          "indexed": true,
          "internalType": "address",
          "name": "seller",
          "type": "address"
        },
        {
          "indexed": true,
          "internalType": "address",
          "name": "nftContract",
          "type": "address"
        },
        {
          "indexed": true,
          "internalType": "uint256",
          "name": "tokenId",
          "type": "uint256"
        }
      ],
      "name": "ItemDelisted",
      "type": "event"
    },
    {
      "anonymous": false,
      "inputs": [
        {
          "indexed": true,
          "internalType": "address",
          "name": "seller",
          "type": "address"
        },
        {
          "indexed": true,
          "internalType": "address",
          "name": "nftContract",
          "type": "address"
        },
        {
          "indexed": true,
          "internalType": "uint256",
          "name": "tokenId",
          "type": "uint256"
        },
        {
          "indexed": false,
          "internalType": "uint256",
          "name": "price",
          "type": "uint256"
        },
        {
          "indexed": false,
          "internalType": "address",
          "name": "paymentToken",
          "type": "address"
        }
      ],
      "name": "ItemListed",
      "type": "event"
    },
    {
      "anonymous": false,
      "inputs": [
        {
          "indexed": true,
          "internalType": "address",
          "name": "seller",
          "type": "address"
        },
        {
          "indexed": true,
          "internalType": "address",
          "name": "buyer",
          "type": "address"
        },
        {
          "indexed": true,
          "internalType": "address",
          "name": "nftContract",
          "type": "address"
        },
        {
          "indexed": false,
          "internalType": "uint256",
          "name": "tokenId",
          "type": "uint256"
        },
        {
          "indexed": false,
          "internalType": "uint256",
          "name": "price",
          "type": "uint256"
        },
        {
          "indexed": false,
          "internalType": "address",
          "name": "paymentToken",
          "type": "address"
        }
      ],
      "name": "ItemSold",
      "type": "event"
    },
    {
      "anonymous": false,
      "inputs": [
        {
          "indexed": true,
          "internalType": "address",
          "name": "previousOwner",
          "type": "address"
        },
        {
          "indexed": true,
          "internalType": "address",
          "name": "newOwner",
          "type": "address"
        }
      ],
      "name": "OwnershipTransferred",
      "type": "event"
    },
    {
      "anonymous": false,
      "inputs": [
        {
          "indexed": false,
          "internalType": "address",
          "name": "account",
          "type": "address"
        }
      ],
      "name": "Paused",
      "type": "event"
    },
    {
      "anonymous": false,
      "inputs": [
        {
          "indexed": true,
          "internalType": "address",
          "name": "recipient",
          "type": "address"
        },
        {
          "indexed": true,
          "internalType": "address",
          "name": "nftContract",
          "type": "address"
        },
        {
          "indexed": true,
          "internalType": "uint256",
          "name": "tokenId",
          "type": "uint256"
        },
        {
          "indexed": false,
          "internalType": "uint256",
          "name": "amount",
          "type": "uint256"
        }
      ],
      "name": "RoyaltyPaid",
      "type": "event"
    },
    {
      "anonymous": false,
      "inputs": [
        {
          "indexed": false,
          "internalType": "address",
          "name": "account",
          "type": "address"
        }
      ],
      "name": "Unpaused",
      "type": "event"
    },
    {
      "inputs": [],
      "name": "FEE_DENOMINATOR",
      "outputs": [
        {
          "internalType": "uint256",
          "name": "",
          "type": "uint256"
        }
      ],
      "stateMutability": "view",
      "type": "function"
    },
    {
      "inputs": [
        {
          "internalType": "address",
          "name": "token",
          "type": "address"
        }
      ],
      "name": "addSupportedPaymentToken",
      "outputs": [],
      "stateMutability": "nonpayable",
      "type": "function"
    },
    {
      "inputs": [
        {
          "internalType": "bytes32",
          "name": "",
          "type": "bytes32"
        },
        {
          "internalType": "uint256",
          "name": "",
          "type": "uint256"
        }
      ],
      "name": "auctionBids",
      "outputs": [
        {
          "internalType": "address",
          "name": "bidder",
          "type": "address"
        },
        {
          "internalType": "uint256",
          "name": "amount",
          "type": "uint256"
        },
        {
          "internalType": "uint256",
          "name": "timestamp",
          "type": "uint256"
        }
      ],
      "stateMutability": "view",
      "type": "function"
    },
    {
      "inputs": [],
      "name": "auctionDuration",
      "outputs": [
        {
          "internalType": "uint256",
          "name": "",
          "type": "uint256"
        }
      ],
      "stateMutability": "view",
      "type": "function"
    },
    {
      "inputs": [
        {
          "internalType": "bytes32",
          "name": "",
          "type": "bytes32"
        }
      ],
      "name": "auctions",
      "outputs": [
        {
          "internalType": "address",
          "name": "seller",
          "type": "address"
        },
        {
          "internalType": "address",
          "name": "nftContract",
          "type": "address"
        },
        {
          "internalType": "uint256",
          "name": "tokenId",
          "type": "uint256"
        },
        {
          "internalType": "uint256",
          "name": "startingPrice",
          "type": "uint256"
        },
        {
          "internalType": "uint256",
          "name": "highestBid",
          "type": "uint256"
        },
        {
          "internalType": "address",
          "name": "highestBidder",
          "type": "address"
        },
        {
          "internalType": "uint256",
          "name": "endTime",
          "type": "uint256"
        },
        {
          "internalType": "bool",
          "name": "ended",
          "type": "bool"
        },
        {
          "internalType": "address",
          "name": "paymentToken",
          "type": "address"
        }
      ],
      "stateMutability": "view",
      "type": "function"
    },
    {
      "inputs": [
        {
          "internalType": "address",
          "name": "nftContract",
          "type": "address"
        },
        {
          "internalType": "uint256",
          "name": "tokenId",
          "type": "uint256"
        }
      ],
      "name": "buyItem",
      "outputs": [],
      "stateMutability": "payable",
      "type": "function"
    },
    {
      "inputs": [
        {
          "internalType": "address",
          "name": "nftContract",
          "type": "address"
        },
        {
          "internalType": "uint256",
          "name": "tokenId",
          "type": "uint256"
        },
        {
          "internalType": "uint256",
          "name": "startingPrice",
          "type": "uint256"
        },
        {
          "internalType": "uint256",
          "name": "duration",
          "type": "uint256"
        },
        {
          "internalType": "address",
          "name": "paymentToken",
          "type": "address"
        }
      ],
      "name": "createAuction",
      "outputs": [],
      "stateMutability": "nonpayable",
      "type": "function"
    },
    {
      "inputs": [
        {
          "internalType": "address",
          "name": "nftContract",
          "type": "address"
        },
        {
          "internalType": "uint256",
          "name": "tokenId",
          "type": "uint256"
        }
      ],
      "name": "delistItem",
      "outputs": [],
      "stateMutability": "nonpayable",
      "type": "function"
    },
    {
      "inputs": [
        {
          "internalType": "address",
          "name": "token",
          "type": "address"
        },
        {
          "internalType": "uint256",
          "name": "amount",
          "type": "uint256"
        }
      ],
      "name": "emergencyWithdraw",
      "outputs": [],
      "stateMutability": "nonpayable",
      "type": "function"
    },
    {
      "inputs": [
        {
          "internalType": "address",
          "name": "nftContract",
          "type": "address"
        },
        {
          "internalType": "uint256",
          "name": "tokenId",
          "type": "uint256"
        }
      ],
      "name": "endAuction",
      "outputs": [],
      "stateMutability": "nonpayable",
      "type": "function"
    },
    {
      "inputs": [
        {
          "internalType": "bytes32",
          "name": "",
          "type": "bytes32"
        }
      ],
      "name": "escrowActive",
      "outputs": [
        {
          "internalType": "bool",
          "name": "",
          "type": "bool"
        }
      ],
      "stateMutability": "view",
      "type": "function"
    },
    {
      "inputs": [
        {
          "internalType": "bytes32",
          "name": "",
          "type": "bytes32"
        }
      ],
      "name": "escrowEndTime",
      "outputs": [
        {
          "internalType": "uint256",
          "name": "",
          "type": "uint256"
        }
      ],
      "stateMutability": "view",
      "type": "function"
    },
    {
      "inputs": [],
      "name": "feeRecipient",
      "outputs": [
        {
          "internalType": "address",
          "name": "",
          "type": "address"
        }
      ],
      "stateMutability": "view",
      "type": "function"
    },
    {
      "inputs": [
        {
          "internalType": "address",
          "name": "nftContract",
          "type": "address"
        },
        {
          "internalType": "uint256",
          "name": "tokenId",
          "type": "uint256"
        }
      ],
      "name": "getAuction",
      "outputs": [
        {
          "components": [
            {
              "internalType": "address",
              "name": "seller",
              "type": "address"
            },
            {
              "internalType": "address",
              "name": "nftContract",
              "type": "address"
            },
            {
              "internalType": "uint256",
              "name": "tokenId",
              "type": "uint256"
            },
            {
              "internalType": "uint256",
              "name": "startingPrice",
              "type": "uint256"
            },
            {
              "internalType": "uint256",
              "name": "highestBid",
              "type": "uint256"
            },
            {
              "internalType": "address",
              "name": "highestBidder",
              "type": "address"
            },
            {
              "internalType": "uint256",
              "name": "endTime",
              "type": "uint256"
            },
            {
              "internalType": "bool",
              "name": "ended",
              "type": "bool"
            },
            {
              "internalType": "address",
              "name": "paymentToken",
              "type": "address"
            }
          ],
          "internalType": "struct BaseMarketplace.Auction",
          "name": "auction",
          "type": "tuple"
        }
      ],
      "stateMutability": "view",
      "type": "function"
    },
    {
      "inputs": [
        {
          "internalType": "address",
          "name": "nftContract",
          "type": "address"
        },
        {
          "internalType": "uint256",
          "name": "tokenId",
          "type": "uint256"
        }
      ],
      "name": "getAuctionBids",
      "outputs": [
        {
          "components": [
            {
              "internalType": "address",
              "name": "bidder",
              "type": "address"
            },
            {
              "internalType": "uint256",
              "name": "amount",
              "type": "uint256"
            },
            {
              "internalType": "uint256",
              "name": "timestamp",
              "type": "uint256"
            }
          ],
          "internalType": "struct BaseMarketplace.Bid[]",
          "name": "bids",
          "type": "tuple[]"
        }
      ],
      "stateMutability": "view",
      "type": "function"
    },
    {
      "inputs": [
        {
          "internalType": "address",
          "name": "nftContract",
          "type": "address"
        },
        {
          "internalType": "uint256",
          "name": "tokenId",
          "type": "uint256"
        }
      ],
      "name": "getListing",
      "outputs": [
        {
          "components": [
            {
              "internalType": "address",
              "name": "seller",
              "type": "address"
            },
            {
              "internalType": "address",
              "name": "nftContract",
              "type": "address"
            },
            {
              "internalType": "uint256",
              "name": "tokenId",
              "type": "uint256"
            },
            {
              "internalType": "uint256",
              "name": "price",
              "type": "uint256"
            },
            {
              "internalType": "address",
              "name": "paymentToken",
              "type": "address"
            },
            {
              "internalType": "bool",
              "name": "active",
              "type": "bool"
            },
            {
              "internalType": "uint256",
              "name": "timestamp",
              "type": "uint256"
            }
          ],
          "internalType": "struct BaseMarketplace.Listing",
          "name": "listing",
          "type": "tuple"
        }
      ],
      "stateMutability": "view",
      "type": "function"
    },
    {
      "inputs": [
        {
          "internalType": "address",
          "name": "nftContract",
          "type": "address"
        },
        {
          "internalType": "uint256",
          "name": "tokenId",
          "type": "uint256"
        }
      ],
      "name": "getRoyalty",
      "outputs": [
        {
          "internalType": "address",
          "name": "recipient",
          "type": "address"
        },
        {
          "internalType": "uint256",
          "name": "percentage",
          "type": "uint256"
        }
      ],
      "stateMutability": "view",
      "type": "function"
    },
    {
      "inputs": [
        {
          "internalType": "address",
          "name": "nftContract",
          "type": "address"
        },
        {
          "internalType": "uint256",
          "name": "tokenId",
          "type": "uint256"
        },
        {
          "internalType": "uint256",
          "name": "price",
          "type": "uint256"
        },
        {
          "internalType": "address",
          "name": "paymentToken",
          "type": "address"
        }
      ],
      "name": "listItem",
      "outputs": [],
      "stateMutability": "nonpayable",
      "type": "function"
    },
    {
      "inputs": [
        {
          "internalType": "bytes32",
          "name": "",
          "type": "bytes32"
        }
      ],
      "name": "listings",
      "outputs": [
        {
          "internalType": "address",
          "name": "seller",
          "type": "address"
        },
        {
          "internalType": "address",
          "name": "nftContract",
          "type": "address"
        },
        {
          "internalType": "uint256",
          "name": "tokenId",
          "type": "uint256"
        },
        {
          "internalType": "uint256",
          "name": "price",
          "type": "uint256"
        },
        {
          "internalType": "address",
          "name": "paymentToken",
          "type": "address"
        },
        {
          "internalType": "bool",
          "name": "active",
          "type": "bool"
        },
        {
          "internalType": "uint256",
          "name": "timestamp",
          "type": "uint256"
        }
      ],
      "stateMutability": "view",
      "type": "function"
    },
    {
      "inputs": [],
      "name": "marketplaceFee",
      "outputs": [
        {
          "internalType": "uint256",
          "name": "",
          "type": "uint256"
        }
      ],
      "stateMutability": "view",
      "type": "function"
    },
    {
      "inputs": [],
      "name": "minBidIncrement",
      "outputs": [
        {
          "internalType": "uint256",
          "name": "",
          "type": "uint256"
        }
      ],
      "stateMutability": "view",
      "type": "function"
    },
    {
      "inputs": [],
      "name": "owner",
      "outputs": [
        {
          "internalType": "address",
          "name": "",
          "type": "address"
        }
      ],
      "stateMutability": "view",
      "type": "function"
    },
    {
      "inputs": [],
      "name": "pause",
      "outputs": [],
      "stateMutability": "nonpayable",
      "type": "function"
    },
    {
      "inputs": [],
      "name": "paused",
      "outputs": [
        {
          "internalType": "bool",
          "name": "",
          "type": "bool"
        }
      ],
      "stateMutability": "view",
      "type": "function"
    },
    {
      "inputs": [
        {
          "internalType": "address",
          "name": "nftContract",
          "type": "address"
        },
        {
          "internalType": "uint256",
          "name": "tokenId",
          "type": "uint256"
        }
      ],
      "name": "placeBid",
      "outputs": [],
      "stateMutability": "payable",
      "type": "function"
    },
    {
      "inputs": [
        {
          "internalType": "address",
          "name": "token",
          "type": "address"
        }
      ],
      "name": "removeSupportedPaymentToken",
      "outputs": [],
      "stateMutability": "nonpayable",
      "type": "function"
    },
    {
      "inputs": [],
      "name": "renounceOwnership",
      "outputs": [],
      "stateMutability": "nonpayable",
      "type": "function"
    },
    {
      "inputs": [
        {
          "internalType": "address",
          "name": "",
          "type": "address"
        },
        {
          "internalType": "uint256",
          "name": "",
          "type": "uint256"
        }
      ],
      "name": "royalties",
      "outputs": [
        {
          "internalType": "address",
          "name": "recipient",
          "type": "address"
        },
        {
          "internalType": "uint256",
          "name": "percentage",
          "type": "uint256"
        }
      ],
      "stateMutability": "view",
      "type": "function"
    },
    {
      "inputs": [
        {
          "internalType": "uint256",
          "name": "newDuration",
          "type": "uint256"
        }
      ],
      "name": "setAuctionDuration",
      "outputs": [],
      "stateMutability": "nonpayable",
      "type": "function"
    },
    {
      "inputs": [
        {
          "internalType": "address",
          "name": "newFeeRecipient",
          "type": "address"
        }
      ],
      "name": "setFeeRecipient",
      "outputs": [],
      "stateMutability": "nonpayable",
      "type": "function"
    },
    {
      "inputs": [
        {
          "internalType": "uint256",
          "name": "newFee",
          "type": "uint256"
        }
      ],
      "name": "setMarketplaceFee",
      "outputs": [],
      "stateMutability": "nonpayable",
      "type": "function"
    },
    {
      "inputs": [
        {
          "internalType": "address",
          "name": "nftContract",
          "type": "address"
        },
        {
          "internalType": "uint256",
          "name": "tokenId",
          "type": "uint256"
        },
        {
          "internalType": "address",
          "name": "recipient",
          "type": "address"
        },
        {
          "internalType": "uint256",
          "name": "percentage",
          "type": "uint256"
        }
      ],
      "name": "setRoyalty",
      "outputs": [],
      "stateMutability": "nonpayable",
      "type": "function"
    },
    {
      "inputs": [
        {
          "internalType": "address",
          "name": "",
          "type": "address"
        }
      ],
      "name": "supportedPaymentTokens",
      "outputs": [
        {
          "internalType": "bool",
          "name": "",
          "type": "bool"
        }
      ],
      "stateMutability": "view",
      "type": "function"
    },
    {
      "inputs": [
        {
          "internalType": "address",
          "name": "newOwner",
          "type": "address"
        }
      ],
      "name": "transferOwnership",
      "outputs": [],
      "stateMutability": "nonpayable",
      "type": "function"
    },
    {
      "inputs": [],
      "name": "unpause",
      "outputs": [],
      "stateMutability": "nonpayable",
      "type": "function"
    }
  ],
  "bytecode": "0x608060405260fa60075562093a806009556064600a5534801561002157600080fd5b5061002b33610050565b600180556002805460ff19169055600880546001600160a01b031916331790556100a0565b600080546001600160a01b038381166001600160a01b0319831681178455604051919092169283917f8be0079c531659141344cd1fd0a4f28419497f9722a3daafe3b4186f6b6457e09190a35050565b612e2c80620000b06000396000f3fe6080604052600436106102045760003560e01c80639407ea9811610118578063c18b8db4116100a0578063e1e549c41161006f578063e1e549c414610802578063e427c0241461084d578063e74b981b1461086d578063ed45e0b21461088d578063f2fde38b146108ad57600080fd5b8063c18b8db4146106f8578063d73792a9146107ac578063d98b9bb5146107c2578063e000f2b6146107d557600080fd5b8063ad9a0369116100e7578063ad9a03691461063b578063b0b211da1461065b578063b1c5578c1461067b578063b67b6fb9146106ab578063b867cf0b146106d857600080fd5b80639407ea98146105c857806395ccea67146105e85780639f37092a14610608578063a497e6741461061b57600080fd5b80636698b6931161019b578063762a66a21161016a578063762a66a2146104c55780638456cb59146104f257806388700d1c1461050757806388cedbc41461058a5780638da5cb5b146105aa57600080fd5b80636698b693146103eb5780636a1669641461041b5780636e44a72f14610431578063715018a6146104b057600080fd5b80633f4ba83a116101d75780633f4ba83a14610358578063469048401461036f5780635930a88c146103a75780635c975abb146103c757600080fd5b80630cbf54c8146102095780631edbc5be14610232578063335b115e146102fd5780633dc37c8914610313575b600080fd5b34801561021557600080fd5b5061021f60095481565b6040519081526020015b60405180910390f35b34801561023e57600080fd5b506102a961024d366004612a04565b6004602081905260009182526040909120805460018201546002830154600384015494840154600585015460068601546007909601546001600160a01b039586169794861696939592939183169260ff82169161010090041689565b604080516001600160a01b039a8b168152988a1660208a015288019690965260608701949094526080860192909252851660a085015260c0840152151560e083015290911661010082015261012001610229565b34801561030957600080fd5b5061021f600a5481565b34801561031f57600080fd5b5061033361032e366004612a1d565b6108cd565b604080516001600160a01b039094168452602084019290925290820152606001610229565b34801561036457600080fd5b5061036d610919565b005b34801561037b57600080fd5b5060085461038f906001600160a01b031681565b6040516001600160a01b039091168152602001610229565b3480156103b357600080fd5b5061036d6103c2366004612a54565b61092b565b3480156103d357600080fd5b5060025460ff165b6040519015158152602001610229565b3480156103f757600080fd5b506103db610406366004612a04565b600c6020526000908152604090205460ff1681565b34801561042757600080fd5b5061021f60075481565b34801561043d57600080fd5b5061049161044c366004612a9e565b6001600160a01b039182166000908152600660209081526040808320938352928152908290208251808401909352805490931680835260019093015491018190529091565b604080516001600160a01b039093168352602083019190915201610229565b3480156104bc57600080fd5b5061036d610c6f565b3480156104d157600080fd5b506104e56104e0366004612a9e565b610c81565b6040516102299190612aca565b3480156104fe57600080fd5b5061036d610d86565b34801561051357600080fd5b50610527610522366004612a9e565b610d96565b604051610229919081516001600160a01b03908116825260208084015182169083015260408084015190830152606080840151908301526080808401519091169082015260a08281015115159082015260c0918201519181019190915260e00190565b34801561059657600080fd5b5061036d6105a5366004612a9e565b610e70565b3480156105b657600080fd5b506000546001600160a01b031661038f565b3480156105d457600080fd5b5061036d6105e3366004612a04565b61110e565b3480156105f457600080fd5b5061036d610603366004612a9e565b61116d565b61036d610616366004612a9e565b611253565b34801561062757600080fd5b5061036d610636366004612a04565b611649565b34801561064757600080fd5b5061036d610656366004612a9e565b611676565b34801561066757600080fd5b5061036d610676366004612b4d565b61183f565b34801561068757600080fd5b506103db610696366004612ba3565b600b6020526000908152604090205460ff1681565b3480156106b757600080fd5b5061021f6106c6366004612a04565b600d6020526000908152604090205481565b3480156106e457600080fd5b5061036d6106f3366004612ba3565b611b7e565b34801561070457600080fd5b50610765610713366004612a04565b60036020819052600091825260409091208054600182015460028301549383015460048401546005909401546001600160a01b0393841695928416949293919291821691600160a01b900460ff169087565b604080516001600160a01b03988916815296881660208801528601949094526060850192909252909316608083015291151560a082015260c081019190915260e001610229565b3480156107b857600080fd5b5061021f61271081565b61036d6107d0366004612a9e565b611ba7565b3480156107e157600080fd5b506107f56107f0366004612a9e565b61204f565b6040516102299190612bc7565b34801561080e57600080fd5b5061049161081d366004612a9e565b6006602090815260009283526040808420909152908252902080546001909101546001600160a01b039091169082565b34801561085957600080fd5b5061036d610868366004612c29565b612104565b34801561087957600080fd5b5061036d610888366004612ba3565b612291565b34801561089957600080fd5b5061036d6108a8366004612ba3565b612311565b3480156108b957600080fd5b5061036d6108c8366004612ba3565b61233d565b600560205281600052604060002081815481106108e957600080fd5b60009182526020909120600390910201805460018201546002909201546001600160a01b03909116935090915083565b6109216123b6565b610929612410565b565b610933612462565b61093b6124bb565b600082116109905760405162461bcd60e51b815260206004820152601e60248201527f426173654d61726b6574706c6163653a20696e76616c6964207072696365000060448201526064015b60405180910390fd5b6001600160a01b03811615806109be57506001600160a01b0381166000908152600b602052604090205460ff165b6109da5760405162461bcd60e51b815260040161098790612c71565b600084846040516020016109ef929190612cbb565b60408051808303601f19018152918152815160209283012060008181526003909352912060040154909150600160a01b900460ff1615610a715760405162461bcd60e51b815260206004820152601f60248201527f426173654d61726b6574706c6163653a20616c7265616479206c6973746564006044820152606401610987565b6040516323b872dd60e01b81526001600160a01b038616906323b872dd90610aa190339030908990600401612cdd565b600060405180830381600087803b158015610abb57600080fd5b505af1158015610acf573d6000803e3d6000fd5b505050506040518060e00160405280336001600160a01b03168152602001866001600160a01b03168152602001858152602001848152602001836001600160a01b03168152602001600115158152602001428152506003600083815260200190815260200160002060008201518160000160006101000a8154816001600160a01b0302191690836001600160a01b0316021790555060208201518160010160006101000a8154816001600160a01b0302191690836001600160a01b03160217905550604082015181600201556060820151816003015560808201518160040160006101000a8154816001600160a01b0302191690836001600160a01b0316021790555060a08201518160040160146101000a81548160ff02191690831515021790555060c0820151816005015590505083856001600160a01b0316336001600160a01b03167f4b3569112f949eb5abccc2f448b8f88b58a6a8d9bc127648ea07a021f964d7a68686604051610c579291909182526001600160a01b0316602082015260400190565b60405180910390a450610c6960018055565b50505050565b610c776123b6565b6109296000612501565b6040805161012081018252600080825260208201819052918101829052606081018290526080810182905260a0810182905260c0810182905260e0810182905261010081019190915260008383604051602001610cdf929190612cbb565b60408051601f19818403018152828252805160209182012060009081526004808352908390206101208501845280546001600160a01b03908116865260018201548116938601939093526002810154938501939093526003830154606085015282015460808401526005820154811660a0840152600682015460c084015260079091015460ff8116151560e084015261010090819004909116908201529150505b92915050565b610d8e6123b6565b610929612551565b6040805160e081018252600080825260208201819052918101829052606081018290526080810182905260a0810182905260c081019190915260008383604051602001610de4929190612cbb565b60408051808303601f190181528282528051602091820120600090815260038083529083902060e08501845280546001600160a01b0390811686526001820154811693860193909352600281015493850193909352820154606084015260048201549081166080840152600160a01b900460ff16151560a08301526005015460c0820152949350505050565b610e78612462565b60008282604051602001610e8d929190612cbb565b60408051601f19818403018152918152815160209283012060008181526004909352912060078101549192509060ff1615610f0a5760405162461bcd60e51b815260206004820152601e60248201527f426173654d61726b6574706c6163653a2061756374696f6e20656e64656400006044820152606401610987565b806006015442101580610f2757506000546001600160a01b031633145b610f7e5760405162461bcd60e51b815260206004820152602260248201527f426173654d61726b6574706c6163653a2061756374696f6e206e6f7420656e64604482015261195960f21b6064820152608401610987565b60078101805460ff1916600117905560058101546001600160a01b03161561109957805460048201546007830154610fcc926001600160a01b0390811692889288926101009091041661258e565b60058101546040516323b872dd60e01b81526001600160a01b03808716926323b872dd9261100292309216908890600401612cdd565b600060405180830381600087803b15801561101c57600080fd5b505af1158015611030573d6000803e3d6000fd5b50508254600584015460048501546040516001600160a01b03808b169650938416945091909216917f9cf346294584d016dcbbdcfabca044764ed28997b94dcaa450b3caa58548ba849161108c91898252602082015260400190565b60405180910390a46110ff565b80546040516323b872dd60e01b81526001600160a01b03808716926323b872dd926110cc92309216908890600401612cdd565b600060405180830381600087803b1580156110e657600080fd5b505af11580156110fa573d6000803e3d6000fd5b505050505b505061110a60018055565b5050565b6111166123b6565b6103e88111156111685760405162461bcd60e51b815260206004820152601d60248201527f426173654d61726b6574706c6163653a2066656520746f6f20686967680000006044820152606401610987565b600755565b6111756123b6565b6001600160a01b0382166111c157600080546040516001600160a01b039091169183156108fc02918491818181858888f193505050501580156111bc573d6000803e3d6000fd5b505050565b816001600160a01b031663a9059cbb6111e26000546001600160a01b031690565b6040516001600160e01b031960e084901b1681526001600160a01b039091166004820152602481018490526044016020604051808303816000875af115801561122f573d6000803e3d6000fd5b505050506040513d601f19601f820116820180604052508101906111bc9190612d01565b61125b612462565b6112636124bb565b60008282604051602001611278929190612cbb565b60408051808303601f190181529181528151602092830120600081815260039093529120600481015491925090600160a01b900460ff166112fb5760405162461bcd60e51b815260206004820152601b60248201527f426173654d61726b6574706c6163653a206e6f74206c697374656400000000006044820152606401610987565b80546001600160a01b031633036113605760405162461bcd60e51b8152602060048201526024808201527f426173654d61726b6574706c6163653a2063616e6e6f7420627579206f776e206044820152636974656d60e01b6064820152608401610987565b600381015460048201546001600160a01b031661143357803410156113d55760405162461bcd60e51b815260206004820152602560248201527f426173654d61726b6574706c6163653a20696e73756666696369656e742070616044820152641e5b595b9d60da1b6064820152608401610987565b81546113ee906001600160a01b0316868684600061258e565b8034111561142e57336108fc6114048334612d39565b6040518115909202916000818181858888f1935050505015801561142c573d6000803e3d6000fd5b505b611572565b341561148b5760405162461bcd60e51b815260206004820152602160248201527f426173654d61726b6574706c6163653a20455448206e6f7420616363657074656044820152601960fa1b6064820152608401610987565b6004808301546040516323b872dd60e01b81526001600160a01b03909116916323b872dd916114c09133913091879101612cdd565b6020604051808303816000875af11580156114df573d6000803e3d6000fd5b505050506040513d601f19601f820116820180604052508101906115039190612d01565b61154f5760405162461bcd60e51b815260206004820152601f60248201527f426173654d61726b6574706c6163653a207061796d656e74206661696c6564006044820152606401610987565b81546004830154611572916001600160a01b03908116918891889186911661258e565b6040516323b872dd60e01b81526001600160a01b038616906323b872dd906115a290309033908990600401612cdd565b600060405180830381600087803b1580156115bc57600080fd5b505af11580156115d0573d6000803e3d6000fd5b5050505060048201805460ff60a01b198116909155825460408051878152602081018590526001600160a01b039384169181019190915287831692339216907fab7bb13ba78fbf4466a766da6be5849f7f2eace417bb4be51911d24d846625d0906060015b60405180910390a450505061110a60018055565b6116516123b6565b600081116116715760405162461bcd60e51b815260040161098790612d4c565b600955565b61167e612462565b60008282604051602001611693929190612cbb565b60408051808303601f190181529181528151602092830120600081815260039093529120600481015491925090600160a01b900460ff166117165760405162461bcd60e51b815260206004820152601b60248201527f426173654d61726b6574706c6163653a206e6f74206c697374656400000000006044820152606401610987565b80546001600160a01b031633148061173857506000546001600160a01b031633145b6117845760405162461bcd60e51b815260206004820152601f60248201527f426173654d61726b6574706c6163653a206e6f7420617574686f72697a6564006044820152606401610987565b80546040516323b872dd60e01b81526001600160a01b03808716926323b872dd926117b792309216908890600401612cdd565b600060405180830381600087803b1580156117d157600080fd5b505af11580156117e5573d6000803e3d6000fd5b50505060048201805460ff60a01b1916905550805460405184916001600160a01b03808816929116907f397300c72a6c609cb21fe94d97d75a0f725aabc36b15ebd477658327e92d990790600090a4505061110a60018055565b611847612462565b61184f6124bb565b600083116118af5760405162461bcd60e51b815260206004820152602760248201527f426173654d61726b6574706c6163653a20696e76616c6964207374617274696e6044820152666720707269636560c81b6064820152608401610987565b600082116118cf5760405162461bcd60e51b815260040161098790612d4c565b6001600160a01b03811615806118fd57506001600160a01b0381166000908152600b602052604090205460ff165b6119195760405162461bcd60e51b815260040161098790612c71565b6000858560405160200161192e929190612cbb565b60408051601f1981840301815291815281516020928301206000818152600490935291206007015490915060ff16156119a95760405162461bcd60e51b815260206004820152601f60248201527f426173654d61726b6574706c6163653a2061756374696f6e20657869737473006044820152606401610987565b6040516323b872dd60e01b81526001600160a01b038716906323b872dd906119d990339030908a90600401612cdd565b600060405180830381600087803b1580156119f357600080fd5b505af1158015611a07573d6000803e3d6000fd5b505060408051610120810182523381526001600160a01b038a1660208201529081018890526060810187905260006080820181905260a082015291505060c08101611a528542612d8d565b8152600060208083018290526001600160a01b03868116604094850152858352600480835292849020855181546001600160a01b03199081169184169190911782559286015160018201805485169184169190911790559385015160028501556060850151600385015560808501519284019290925560a084015160058401805490921690831617905560c0830151600683015560e083015160079092018054610100948501516001600160a81b0319909116931515610100600160a81b031916939093179282169093029190911790915585908716337f6c82b56e0466f1a0d6b6c611bae34f410cb39f39ed86e2e3ea2356719bf9ed5887611b558842612d8d565b6040805192835260208301919091520160405180910390a450611b7760018055565b5050505050565b611b866123b6565b6001600160a01b03166000908152600b60205260409020805460ff19169055565b611baf612462565b611bb76124bb565b60008282604051602001611bcc929190612cbb565b60408051601f19818403018152918152815160209283012060008181526004909352912060078101549192509060ff1615611c495760405162461bcd60e51b815260206004820152601e60248201527f426173654d61726b6574706c6163653a2061756374696f6e20656e64656400006044820152606401610987565b80600601544210611c9c5760405162461bcd60e51b815260206004820181905260248201527f426173654d61726b6574706c6163653a2061756374696f6e20657870697265646044820152606401610987565b80546001600160a01b03163303611d085760405162461bcd60e51b815260206004820152602a60248201527f426173654d61726b6574706c6163653a2063616e6e6f7420626964206f6e206f6044820152693bb71030bab1ba34b7b760b11b6064820152608401610987565b600781015460009061010090046001600160a01b0316611d29575034611df4565b5060078101546040516323b872dd60e01b8152349161010090046001600160a01b0316906323b872dd90611d6590339030908690600401612cdd565b6020604051808303816000875af1158015611d84573d6000803e3d6000fd5b505050506040513d601f19601f82011682018060405250810190611da89190612d01565b611df45760405162461bcd60e51b815260206004820152601b60248201527f426173654d61726b6574706c6163653a20626964206661696c656400000000006044820152606401610987565b8160030154811015611e485760405162461bcd60e51b815260206004820152601c60248201527f426173654d61726b6574706c6163653a2062696420746f6f206c6f77000000006044820152606401610987565b81600401548111611e9b5760405162461bcd60e51b815260206004820152601c60248201527f426173654d61726b6574706c6163653a2062696420746f6f206c6f77000000006044820152606401610987565b60058201546001600160a01b031615611f9557600782015461010090046001600160a01b0316611f0b57600582015460048301546040516001600160a01b039092169181156108fc0291906000818181858888f19350505050158015611f05573d6000803e3d6000fd5b50611f95565b6007820154600583015460048085015460405163a9059cbb60e01b81526001600160a01b03938416928101929092526024820152610100909204169063a9059cbb906044016020604051808303816000875af1158015611f6f573d6000803e3d6000fd5b505050506040513d601f19601f82011682018060405250810190611f939190612d01565b505b6004820181905560058083018054336001600160a01b03199182168117909255600086815260209384526040808220815160608101835285815280870188815242828501908152835460018181018655948752958990209251600390960290920180549096166001600160a01b039586161786555191850191909155516002909301929092559051848152879391891692917fdd49bbb40d47a514dddcd458e9718364143bc24a0cca58439ee6f4f45e4ce10d9101611635565b606060008383604051602001612066929190612cbb565b60408051601f19818403018152828252805160209182012060008181526005835283812080548085028701850190955284865291955090929184015b828210156120f7576000848152602090819020604080516060810182526003860290920180546001600160a01b03168352600180820154848601526002909101549183019190915290835290920191016120a2565b5050505091505092915050565b6103e88111156121605760405162461bcd60e51b815260206004820152602160248201527f426173654d61726b6574706c6163653a20726f79616c747920746f6f206869676044820152600d60fb1b6064820152608401610987565b6000546001600160a01b03163314806121f257506040516331a9108f60e11b8152600481018490526001600160a01b03851690636352211e90602401602060405180830381865afa1580156121b9573d6000803e3d6000fd5b505050506040513d601f19601f820116820180604052508101906121dd9190612da0565b6001600160a01b0316336001600160a01b0316145b61223e5760405162461bcd60e51b815260206004820152601f60248201527f426173654d61726b6574706c6163653a206e6f7420617574686f72697a6564006044820152606401610987565b6040805180820182526001600160a01b039384168152602080820193845295841660009081526006875282812095815294909552909220925183546001600160a01b031916911617825551600190910155565b6122996123b6565b6001600160a01b0381166122ef5760405162461bcd60e51b815260206004820152601d60248201527f426173654d61726b6574706c6163653a207a65726f20616464726573730000006044820152606401610987565b600880546001600160a01b0319166001600160a01b0392909216919091179055565b6123196123b6565b6001600160a01b03166000908152600b60205260409020805460ff19166001179055565b6123456123b6565b6001600160a01b0381166123aa5760405162461bcd60e51b815260206004820152602660248201527f4f776e61626c653a206e6577206f776e657220697320746865207a65726f206160448201526564647265737360d01b6064820152608401610987565b6123b381612501565b50565b6000546001600160a01b031633146109295760405162461bcd60e51b815260206004820181905260248201527f4f776e61626c653a2063616c6c6572206973206e6f7420746865206f776e65726044820152606401610987565b6124186129bb565b6002805460ff191690557f5db9ee0a495bf2e6ff9c91a7834c1ba4fdd244a5e8aa4e537bd38aeae4b073aa335b6040516001600160a01b03909116815260200160405180910390a1565b6002600154036124b45760405162461bcd60e51b815260206004820152601f60248201527f5265656e7472616e637947756172643a207265656e7472616e742063616c6c006044820152606401610987565b6002600155565b60025460ff16156109295760405162461bcd60e51b815260206004820152601060248201526f14185d5cd8589b194e881c185d5cd95960821b6044820152606401610987565b600080546001600160a01b038381166001600160a01b0319831681178455604051919092169283917f8be0079c531659141344cd1fd0a4f28419497f9722a3daafe3b4186f6b6457e09190a35050565b6125596124bb565b6002805460ff191660011790557f62e78cea01bee320cd4e420270b5ea74000d11b0c9f74754ebdbfc544b05a2586124453390565b6000612710600754846125a19190612dbd565b6125ab9190612dd4565b905060006125b98285612d39565b6001600160a01b0380881660009081526006602090815260408083208a845282528083208151808301909252805490941680825260019094015491810191909152929350901561262f576127108260200151876126169190612dbd565b6126209190612dd4565b905061262c8184612d39565b92505b6001600160a01b03851661279d5783156126c7576008546040516001600160a01b039091169085156108fc029086906000818181858888f1935050505015801561267d573d6000803e3d6000fd5b5060085460408051868152600060208201526001600160a01b03909216917f36119f4f28ae3384ed31589f21ec2992cb0ebe53b11c79a24466ee74471764ed910160405180910390a25b801561275a5781516040516001600160a01b039091169082156108fc029083906000818181858888f19350505050158015612706573d6000803e3d6000fd5b5086886001600160a01b031683600001516001600160a01b03167f98ffdf4f5be5af8de356ea9db372549d2182650280d5234acb94a9955e788c568460405161275191815260200190565b60405180910390a45b8215612798576040516001600160a01b038a169084156108fc029085906000818181858888f19350505050158015612796573d6000803e3d6000fd5b505b6129b0565b83156128655760085460405163a9059cbb60e01b81526001600160a01b039182166004820152602481018690529086169063a9059cbb906044016020604051808303816000875af11580156127f6573d6000803e3d6000fd5b505050506040513d601f19601f8201168201806040525081019061281a9190612d01565b50600854604080518681526001600160a01b038881166020830152909216917f36119f4f28ae3384ed31589f21ec2992cb0ebe53b11c79a24466ee74471764ed910160405180910390a25b801561293557815160405163a9059cbb60e01b81526001600160a01b039182166004820152602481018390529086169063a9059cbb906044016020604051808303816000875af11580156128bd573d6000803e3d6000fd5b505050506040513d601f19601f820116820180604052508101906128e19190612d01565b5086886001600160a01b031683600001516001600160a01b03167f98ffdf4f5be5af8de356ea9db372549d2182650280d5234acb94a9955e788c568460405161292c91815260200190565b60405180910390a45b82156129b05760405163a9059cbb60e01b81526001600160a01b038a811660048301526024820185905286169063a9059cbb906044016020604051808303816000875af115801561298a573d6000803e3d6000fd5b505050506040513d601f19601f820116820180604052508101906129ae9190612d01565b505b505050505050505050565b60025460ff166109295760405162461bcd60e51b815260206004820152601460248201527314185d5cd8589b194e881b9bdd081c185d5cd95960621b6044820152606401610987565b600060208284031215612a1657600080fd5b5035919050565b60008060408385031215612a3057600080fd5b50508035926020909101359150565b6001600160a01b03811681146123b357600080fd5b60008060008060808587031215612a6a57600080fd5b8435612a7581612a3f565b935060208501359250604085013591506060850135612a9381612a3f565b939692955090935050565b60008060408385031215612ab157600080fd5b8235612abc81612a3f565b946020939093013593505050565b81516001600160a01b03908116825260208084015182169083015260408084015190830152606080840151908301526080808401519083015260a083810151918216908301526101208201905060c083015160c083015260e0830151612b3460e084018215159052565b50610100928301516001600160a01b0316919092015290565b600080600080600060a08688031215612b6557600080fd5b8535612b7081612a3f565b94506020860135935060408601359250606086013591506080860135612b9581612a3f565b809150509295509295909350565b600060208284031215612bb557600080fd5b8135612bc081612a3f565b9392505050565b602080825282518282018190526000919060409081850190868401855b82811015612c1c57815180516001600160a01b0316855286810151878601528501518585015260609093019290850190600101612be4565b5091979650505050505050565b60008060008060808587031215612c3f57600080fd5b8435612c4a81612a3f565b9350602085013592506040850135612c6181612a3f565b9396929550929360600135925050565b6020808252602a908201527f426173654d61726b6574706c6163653a20756e737570706f727465642070617960408201526936b2b73a103a37b5b2b760b11b606082015260800190565b60609290921b6bffffffffffffffffffffffff19168252601482015260340190565b6001600160a01b039384168152919092166020820152604081019190915260600190565b600060208284031215612d1357600080fd5b81518015158114612bc057600080fd5b634e487b7160e01b600052601160045260246000fd5b81810381811115610d8057610d80612d23565b60208082526021908201527f426173654d61726b6574706c6163653a20696e76616c6964206475726174696f6040820152603760f91b606082015260800190565b80820180821115610d8057610d80612d23565b600060208284031215612db257600080fd5b8151612bc081612a3f565b8082028115828204841417610d8057610d80612d23565b600082612df157634e487b7160e01b600052601260045260246000fd5b50049056fea2646970667358221220b1642ab89ebf54bf554cafd80d701bfda8deda8f3c047bfaff238bd01862232064736f6c63430008130033",
  "linkReferences": {},
  "deployedLinkReferences": {}
}