{
  "_format": "hh-sol-artifact-1",
  "contractName": "BalanceTracker",
  "sourceName": "contracts/examples/BalanceTracker.sol",
  "abi": [
    {
      "anonymous": false,
      "inputs": [
        {
          "indexed": true,
          "internalType": "address",
          "name": "token",
          "type": "address"
        },
        {
          "indexed": true,
          "internalType": "address",
          "name": "account",
          "type": "address"
        },
        {
          "indexed": false,
          "internalType": "uint256",
          "name": "balance",
          "type": "uint256"
        },
        {
          "indexed": false,
          "internalType": "uint256",
          "name": "timestamp",
          "type": "uint256"
        }
      ],
      "name": "BalanceTracked",
      "type": "event"
    },
    {
      "anonymous": false,
      "inputs": [
        {
          "indexed": true,
          "internalType": "address",
          "name": "previousOwner",
          "type": "address"
        },
        {
          "indexed": true,
          "internalType": "address",
          "name": "newOwner",
          "type": "address"
        }
      ],
      "name": "OwnershipTransferred",
      "type": "event"
    },
    {
      "anonymous": false,
      "inputs": [
        {
          "indexed": true,
          "internalType": "address",
          "name": "token",
          "type": "address"
        },
        {
          "indexed": true,
          "internalType": "address",
          "name": "from",
          "type": "address"
        },
        {
          "indexed": true,
          "internalType": "address",
          "name": "to",
          "type": "address"
        },
        {
          "indexed": false,
          "internalType": "uint256",
          "name": "amount",
          "type": "uint256"
        },
        {
          "indexed": false,
          "internalType": "uint256",
          "name": "timestamp",
          "type": "uint256"
        }
      ],
      "name": "TransactionTracked",
      "type": "event"
    },
    {
      "inputs": [
        {
          "internalType": "address",
          "name": "token",
          "type": "address"
        }
      ],
      "name": "addSupportedToken",
      "outputs": [],
      "stateMutability": "nonpayable",
      "type": "function"
    },
    {
      "inputs": [
        {
          "internalType": "address",
          "name": "",
          "type": "address"
        },
        {
          "internalType": "address",
          "name": "",
          "type": "address"
        },
        {
          "internalType": "uint256",
          "name": "",
          "type": "uint256"
        }
      ],
      "name": "balanceHistory",
      "outputs": [
        {
          "internalType": "uint256",
          "name": "balance",
          "type": "uint256"
        },
        {
          "internalType": "uint256",
          "name": "timestamp",
          "type": "uint256"
        },
        {
          "internalType": "string",
          "name": "reason",
          "type": "string"
        }
      ],
      "stateMutability": "view",
      "type": "function"
    },
    {
      "inputs": [
        {
          "internalType": "address",
          "name": "token",
          "type": "address"
        },
        {
          "internalType": "address",
          "name": "account",
          "type": "address"
        }
      ],
      "name": "checkBalance",
      "outputs": [
        {
          "internalType": "uint256",
          "name": "balance",
          "type": "uint256"
        },
        {
          "internalType": "uint256",
          "name": "lastCheck",
          "type": "uint256"
        },
        {
          "internalType": "uint256",
          "name": "totalRecords",
          "type": "uint256"
        }
      ],
      "stateMutability": "nonpayable",
      "type": "function"
    },
    {
      "inputs": [
        {
          "internalType": "address[]",
          "name": "tokens",
          "type": "address[]"
        },
        {
          "internalType": "address[]",
          "name": "accounts",
          "type": "address[]"
        }
      ],
      "name": "checkMultipleBalances",
      "outputs": [
        {
          "internalType": "uint256[][]",
          "name": "balances",
          "type": "uint256[][]"
        }
      ],
      "stateMutability": "nonpayable",
      "type": "function"
    },
    {
      "inputs": [
        {
          "internalType": "address",
          "name": "token",
          "type": "address"
        },
        {
          "internalType": "address",
          "name": "account",
          "type": "address"
        }
      ],
      "name": "getAccountStats",
      "outputs": [
        {
          "internalType": "uint256",
          "name": "currentBalance",
          "type": "uint256"
        },
        {
          "internalType": "uint256",
          "name": "totalRecords",
          "type": "uint256"
        },
        {
          "internalType": "uint256",
          "name": "lastActivity",
          "type": "uint256"
        },
        {
          "internalType": "uint256",
          "name": "accountAge",
          "type": "uint256"
        }
      ],
      "stateMutability": "view",
      "type": "function"
    },
    {
      "inputs": [
        {
          "internalType": "address",
          "name": "token",
          "type": "address"
        },
        {
          "internalType": "address",
          "name": "account",
          "type": "address"
        },
        {
          "internalType": "uint256",
          "name": "timestamp",
          "type": "uint256"
        }
      ],
      "name": "getBalanceAt",
      "outputs": [
        {
          "internalType": "uint256",
          "name": "balance",
          "type": "uint256"
        }
      ],
      "stateMutability": "view",
      "type": "function"
    },
    {
      "inputs": [
        {
          "internalType": "address",
          "name": "token",
          "type": "address"
        },
        {
          "internalType": "address",
          "name": "account",
          "type": "address"
        },
        {
          "internalType": "uint256",
          "name": "limit",
          "type": "uint256"
        }
      ],
      "name": "getBalanceHistory",
      "outputs": [
        {
          "components": [
            {
              "internalType": "uint256",
              "name": "balance",
              "type": "uint256"
            },
            {
              "internalType": "uint256",
              "name": "timestamp",
              "type": "uint256"
            },
            {
              "internalType": "string",
              "name": "reason",
              "type": "string"
            }
          ],
          "internalType": "struct BalanceTracker.BalanceRecord[]",
          "name": "records",
          "type": "tuple[]"
        }
      ],
      "stateMutability": "view",
      "type": "function"
    },
    {
      "inputs": [],
      "name": "getSupportedTokenCount",
      "outputs": [
        {
          "internalType": "uint256",
          "name": "count",
          "type": "uint256"
        }
      ],
      "stateMutability": "view",
      "type": "function"
    },
    {
      "inputs": [
        {
          "internalType": "address",
          "name": "token",
          "type": "address"
        }
      ],
      "name": "isTokenSupported",
      "outputs": [
        {
          "internalType": "bool",
          "name": "supported",
          "type": "bool"
        }
      ],
      "stateMutability": "view",
      "type": "function"
    },
    {
      "inputs": [
        {
          "internalType": "address",
          "name": "",
          "type": "address"
        },
        {
          "internalType": "address",
          "name": "",
          "type": "address"
        }
      ],
      "name": "lastBalanceCheck",
      "outputs": [
        {
          "internalType": "uint256",
          "name": "",
          "type": "uint256"
        }
      ],
      "stateMutability": "view",
      "type": "function"
    },
    {
      "inputs": [],
      "name": "owner",
      "outputs": [
        {
          "internalType": "address",
          "name": "",
          "type": "address"
        }
      ],
      "stateMutability": "view",
      "type": "function"
    },
    {
      "inputs": [
        {
          "internalType": "address",
          "name": "token",
          "type": "address"
        },
        {
          "internalType": "address",
          "name": "account",
          "type": "address"
        },
        {
          "internalType": "string",
          "name": "reason",
          "type": "string"
        }
      ],
      "name": "recordBalanceUpdate",
      "outputs": [],
      "stateMutability": "nonpayable",
      "type": "function"
    },
    {
      "inputs": [
        {
          "internalType": "address",
          "name": "token",
          "type": "address"
        }
      ],
      "name": "removeSupportedToken",
      "outputs": [],
      "stateMutability": "nonpayable",
      "type": "function"
    },
    {
      "inputs": [],
      "name": "renounceOwnership",
      "outputs": [],
      "stateMutability": "nonpayable",
      "type": "function"
    },
    {
      "inputs": [
        {
          "internalType": "address",
          "name": "",
          "type": "address"
        }
      ],
      "name": "supportedTokens",
      "outputs": [
        {
          "internalType": "bool",
          "name": "",
          "type": "bool"
        }
      ],
      "stateMutability": "view",
      "type": "function"
    },
    {
      "inputs": [
        {
          "internalType": "address",
          "name": "token",
          "type": "address"
        },
        {
          "internalType": "address",
          "name": "from",
          "type": "address"
        },
        {
          "internalType": "address",
          "name": "to",
          "type": "address"
        },
        {
          "internalType": "uint256",
          "name": "amount",
          "type": "uint256"
        },
        {
          "internalType": "string",
          "name": "reason",
          "type": "string"
        }
      ],
      "name": "trackTransaction",
      "outputs": [],
      "stateMutability": "nonpayable",
      "type": "function"
    },
    {
      "inputs": [
        {
          "internalType": "address",
          "name": "newOwner",
          "type": "address"
        }
      ],
      "name": "transferOwnership",
      "outputs": [],
      "stateMutability": "nonpayable",
      "type": "function"
    }
  ],
  "bytecode": "0x608060405234801561001057600080fd5b5061001a33610023565b60018055610073565b600080546001600160a01b038381166001600160a01b0319831681178455604051919092169283917f8be0079c531659141344cd1fd0a4f28419497f9722a3daafe3b4186f6b6457e09190a35050565b611cab806100826000396000f3fe608060405234801561001057600080fd5b506004361061010b5760003560e01c806377b76ec3116100a25780638da5cb5b116100715780638da5cb5b146102a4578063c26783f0146102bf578063ce67be26146102d2578063e43d75f2146102d9578063f2fde38b146102fb57600080fd5b806377b76ec31461020b57806384ed3bc614610239578063865c6cd31461025957806389bae26a1461028457600080fd5b80636d69fcaf116100de5780636d69fcaf146101b1578063715018a6146101c457806375151b63146101cc57806376319190146101f857600080fd5b8063224b5c34146101105780635ef6e2d71461013657806361a763611461014b57806368c4ac261461017e575b600080fd5b61012361011e36600461162f565b61030e565b6040519081526020015b60405180910390f35b6101496101443660046116b4565b610447565b005b61015e610159366004611715565b61056d565b60408051948552602085019390935291830152606082015260800161012d565b6101a161018c366004611748565b60046020526000908152604090205460ff1681565b604051901515815260200161012d565b6101496101bf366004611748565b6106d5565b610149610765565b6101a16101da366004611748565b6001600160a01b031660009081526004602052604090205460ff1690565b610149610206366004611748565b610779565b61021e610219366004611715565b6107a2565b6040805193845260208401929092529082015260600161012d565b61024c6102473660046117a8565b6109cb565b60405161012d9190611808565b610123610267366004611715565b600360209081526000928352604080842090915290825290205481565b61029761029236600461162f565b610ed4565b60405161012d91906118e2565b6000546040516001600160a01b03909116815260200161012d565b6101496102cd366004611961565b6110b6565b6000610123565b6102ec6102e736600461162f565b6112bd565b60405161012d939291906119e0565b610149610309366004611748565b611399565b6001600160a01b0380841660009081526002602090815260408083209386168352929052908120805482036103b3576040516370a0823160e01b81526001600160a01b0385811660048301528691908216906370a0823190602401602060405180830381865afa158015610386573d6000803e3d6000fd5b505050506040513d601f19601f820116820180604052508101906103aa9190611a08565b92505050610440565b80545b80156104395783826103c9600184611a37565b815481106103d9576103d9611a50565b9060005260206000209060030201600101541161042757816103fc600183611a37565b8154811061040c5761040c611a50565b90600052602060002090600302016000015492505050610440565b8061043181611a66565b9150506103b6565b5060009150505b9392505050565b6001600160a01b038416600090815260046020526040902054849060ff1661048a5760405162461bcd60e51b815260040161048190611a7d565b60405180910390fd5b6001600160a01b0384166104ff5760405162461bcd60e51b815260206004820152603660248201527f42616c616e6365547261636b65723a2063616e6e6f74207570646174652062616044820152756c616e636520666f72207a65726f206164647265737360501b6064820152608401610481565b61056685856040518060400160405280600d81526020016c4d616e75616c2055706461746560981b81525086868080601f01602080910402602001604051908101604052809392919081815260200183838082843760009201919091525061141292505050565b5050505050565b6040516370a0823160e01b81526001600160a01b0382811660048301526000918291829182918791908216906370a0823190602401602060405180830381865afa1580156105bf573d6000803e3d6000fd5b505050506040513d601f19601f820116820180604052508101906105e39190611a08565b6001600160a01b038089166000908152600260209081526040808320938b1683529290522054909550935083156106c2576001600160a01b038088166000908152600260209081526040808320938a16835292905220610644600186611a37565b8154811061065457610654611a50565b60009182526020808320600160039093020191909101546001600160a01b03808b168452600283526040808520918b16855292529082208054919550919061069e5761069e611a50565b906000526020600020906003020160010154426106bb9190611a37565b91506106cb565b60009250600091505b5092959194509250565b6106dd611569565b6001600160a01b0381166107415760405162461bcd60e51b815260206004820152602560248201527f42616c616e6365547261636b65723a20696e76616c696420746f6b656e206164604482015264647265737360d81b6064820152608401610481565b6001600160a01b03166000908152600460205260409020805460ff19166001179055565b61076d611569565b61077760006115c3565b565b610781611569565b6001600160a01b03166000908152600460205260409020805460ff19169055565b6001600160a01b03821660009081526004602052604081205481908190859060ff166107e05760405162461bcd60e51b815260040161048190611a7d565b6001600160a01b0385166108545760405162461bcd60e51b815260206004820152603560248201527f42616c616e6365547261636b65723a2063616e6e6f7420636865636b2062616c604482015274616e636520666f72207a65726f206164647265737360581b6064820152608401610481565b6040516370a0823160e01b81526001600160a01b0386811660048301528791908216906370a0823190602401602060405180830381865afa15801561089d573d6000803e3d6000fd5b505050506040513d601f19601f820116820180604052508101906108c19190611a08565b6001600160a01b038881166000818152600360208181526040808420958d16808552958252808420805495855260028084528286209786529683528185208054429283905583516060810185528a815280860193845284518086018652600d81526c42616c616e636520436865636b60981b818801529481019485528254600181810185559389529590972087519590960290950193845590519083015551959a5092985096509290918201906109789082611b5f565b5050604080518781524260208201526001600160a01b03808a1693508a16917f20a342980cf3f34fbb1b234f00d545f516385e212c55d352b7515ed2d5919c91910160405180910390a350509250925092565b60608367ffffffffffffffff8111156109e6576109e6611ac0565b604051908082528060200260200182016040528015610a1957816020015b6060815260200190600190039081610a045790505b50905060005b84811015610ecb5760046000878784818110610a3d57610a3d611a50565b9050602002016020810190610a529190611748565b6001600160a01b0316815260208101919091526040016000205460ff16610a8b5760405162461bcd60e51b815260040161048190611a7d565b8267ffffffffffffffff811115610aa457610aa4611ac0565b604051908082528060200260200182016040528015610acd578160200160208202803683370190505b50828281518110610ae057610ae0611a50565b602002602001018190525060005b83811015610eb8576000878784818110610b0a57610b0a611a50565b9050602002016020810190610b1f9190611748565b9050806001600160a01b03166370a08231878785818110610b4257610b42611a50565b9050602002016020810190610b579190611748565b6040516001600160e01b031960e084901b1681526001600160a01b039091166004820152602401602060405180830381865afa158015610b9b573d6000803e3d6000fd5b505050506040513d601f19601f82011682018060405250810190610bbf9190611a08565b848481518110610bd157610bd1611a50565b60200260200101518381518110610bea57610bea611a50565b60200260200101818152505060026000898986818110610c0c57610c0c611a50565b9050602002016020810190610c219190611748565b6001600160a01b03166001600160a01b031681526020019081526020016000206000878785818110610c5557610c55611a50565b9050602002016020810190610c6a9190611748565b6001600160a01b03166001600160a01b031681526020019081526020016000206040518060600160405280868681518110610ca757610ca7611a50565b60200260200101518581518110610cc057610cc0611a50565b60209081029190910181015182524282820152604080518082018252601381527242617463682042616c616e636520436865636b60681b8184015292810192909252835460018181018655600095865294829020845160039092020190815590830151938101939093558101519091906002820190610d3f9082611b5f565b50505042600360008a8a87818110610d5957610d59611a50565b9050602002016020810190610d6e9190611748565b6001600160a01b03166001600160a01b031681526020019081526020016000206000888886818110610da257610da2611a50565b9050602002016020810190610db79190611748565b6001600160a01b03168152602081019190915260400160002055858583818110610de357610de3611a50565b9050602002016020810190610df89190611748565b6001600160a01b0316888885818110610e1357610e13611a50565b9050602002016020810190610e289190611748565b6001600160a01b03167f20a342980cf3f34fbb1b234f00d545f516385e212c55d352b7515ed2d5919c91868681518110610e6457610e64611a50565b60200260200101518581518110610e7d57610e7d611a50565b602002602001015142604051610e9d929190918252602082015260400190565b60405180910390a35080610eb081611c1f565b915050610aee565b5080610ec381611c1f565b915050610a1f565b50949350505050565b6001600160a01b0380841660009081526002602090815260408083209386168352929052208054606091908315801590610f0d57508084105b15610f155750825b8067ffffffffffffffff811115610f2e57610f2e611ac0565b604051908082528060200260200182016040528015610f8357816020015b610f7060405180606001604052806000815260200160008152602001606081525090565b815260200190600190039081610f4c5790505b50925060005b818110156110ac57825483908290610fa390600190611a37565b610fad9190611a37565b81548110610fbd57610fbd611a50565b90600052602060002090600302016040518060600160405290816000820154815260200160018201548152602001600282018054610ffa90611ad6565b80601f016020809104026020016040519081016040528092919081815260200182805461102690611ad6565b80156110735780601f1061104857610100808354040283529160200191611073565b820191906000526020600020905b81548152906001019060200180831161105657829003601f168201915b50505050508152505084828151811061108e5761108e611a50565b602002602001018190525080806110a490611c1f565b915050610f89565b5050509392505050565b6001600160a01b038616600090815260046020526040902054869060ff166110f05760405162461bcd60e51b815260040161048190611a7d565b6001600160a01b03861615158061110f57506001600160a01b03851615155b6111655760405162461bcd60e51b815260206004820152602160248201527f42616c616e6365547261636b65723a20696e76616c69642061646472657373656044820152607360f81b6064820152608401610481565b846001600160a01b0316866001600160a01b0316886001600160a01b03167ffaad36b7f90b2b25ac4680e8fcfdaa38a04ecb32901a5643346c710e6cabfe7c87426040516111bd929190918252602082015260400190565b60405180910390a46001600160a01b0386161561123d5761123d87876040518060400160405280600f81526020016e151c985b9cd858dd1a5bdb8813dd5d608a1b81525086868080601f01602080910402602001604051908101604052809392919081815260200183838082843760009201919091525061141292505050565b6001600160a01b038516156112b4576112b487866040518060400160405280600e81526020016d2a3930b739b0b1ba34b7b71024b760911b81525086868080601f01602080910402602001604051908101604052809392919081815260200183838082843760009201919091525061141292505050565b50505050505050565b600260205282600052604060002060205281600052604060002081815481106112e557600080fd5b9060005260206000209060030201600092509250505080600001549080600101549080600201805461131690611ad6565b80601f016020809104026020016040519081016040528092919081815260200182805461134290611ad6565b801561138f5780601f106113645761010080835404028352916020019161138f565b820191906000526020600020905b81548152906001019060200180831161137257829003601f168201915b5050505050905083565b6113a1611569565b6001600160a01b0381166114065760405162461bcd60e51b815260206004820152602660248201527f4f776e61626c653a206e6577206f776e657220697320746865207a65726f206160448201526564647265737360d01b6064820152608401610481565b61140f816115c3565b50565b6040516370a0823160e01b81526001600160a01b03848116600483015285916000918316906370a0823190602401602060405180830381865afa15801561145d573d6000803e3d6000fd5b505050506040513d601f19601f820116820180604052508101906114819190611a08565b905060008484604051602001611498929190611c38565b60408051601f198184030181526001600160a01b03808b16600090815260026020818152858320938d1683529283528482206060870186528887524287850190815295870185815281546001818101845592855294909320875160039095020193845594519483019490945551919450918201906115169082611b5f565b5050604080518481524260208201526001600160a01b03808a1693508a16917f20a342980cf3f34fbb1b234f00d545f516385e212c55d352b7515ed2d5919c91910160405180910390a350505050505050565b6000546001600160a01b031633146107775760405162461bcd60e51b815260206004820181905260248201527f4f776e61626c653a2063616c6c6572206973206e6f7420746865206f776e65726044820152606401610481565b600080546001600160a01b038381166001600160a01b0319831681178455604051919092169283917f8be0079c531659141344cd1fd0a4f28419497f9722a3daafe3b4186f6b6457e09190a35050565b80356001600160a01b038116811461162a57600080fd5b919050565b60008060006060848603121561164457600080fd5b61164d84611613565b925061165b60208501611613565b9150604084013590509250925092565b60008083601f84011261167d57600080fd5b50813567ffffffffffffffff81111561169557600080fd5b6020830191508360208285010111156116ad57600080fd5b9250929050565b600080600080606085870312156116ca57600080fd5b6116d385611613565b93506116e160208601611613565b9250604085013567ffffffffffffffff8111156116fd57600080fd5b6117098782880161166b565b95989497509550505050565b6000806040838503121561172857600080fd5b61173183611613565b915061173f60208401611613565b90509250929050565b60006020828403121561175a57600080fd5b61044082611613565b60008083601f84011261177557600080fd5b50813567ffffffffffffffff81111561178d57600080fd5b6020830191508360208260051b85010111156116ad57600080fd5b600080600080604085870312156117be57600080fd5b843567ffffffffffffffff808211156117d657600080fd5b6117e288838901611763565b909650945060208701359150808211156117fb57600080fd5b5061170987828801611763565b6000602080830181845280855180835260408601915060408160051b87010192508387016000805b8381101561188457888603603f19018552825180518088529088019088880190845b8181101561186e5783518352928a0192918a0191600101611852565b5090975050509386019391860191600101611830565b509398975050505050505050565b60005b838110156118ad578181015183820152602001611895565b50506000910152565b600081518084526118ce816020860160208601611892565b601f01601f19169290920160200192915050565b60006020808301818452808551808352604092508286019150828160051b87010184880160005b8381101561195357888303603f190185528151805184528781015188850152860151606087850181905261193f818601836118b6565b968901969450505090860190600101611909565b509098975050505050505050565b60008060008060008060a0878903121561197a57600080fd5b61198387611613565b955061199160208801611613565b945061199f60408801611613565b935060608701359250608087013567ffffffffffffffff8111156119c257600080fd5b6119ce89828a0161166b565b979a9699509497509295939492505050565b8381528260208201526060604082015260006119ff60608301846118b6565b95945050505050565b600060208284031215611a1a57600080fd5b5051919050565b634e487b7160e01b600052601160045260246000fd5b81810381811115611a4a57611a4a611a21565b92915050565b634e487b7160e01b600052603260045260246000fd5b600081611a7557611a75611a21565b506000190190565b60208082526023908201527f42616c616e6365547261636b65723a20746f6b656e206e6f7420737570706f726040820152621d195960ea1b606082015260800190565b634e487b7160e01b600052604160045260246000fd5b600181811c90821680611aea57607f821691505b602082108103611b0a57634e487b7160e01b600052602260045260246000fd5b50919050565b601f821115611b5a57600081815260208120601f850160051c81016020861015611b375750805b601f850160051c820191505b81811015611b5657828155600101611b43565b5050505b505050565b815167ffffffffffffffff811115611b7957611b79611ac0565b611b8d81611b878454611ad6565b84611b10565b602080601f831160018114611bc25760008415611baa5750858301515b600019600386901b1c1916600185901b178555611b56565b600085815260208120601f198616915b82811015611bf157888601518255948401946001909101908401611bd2565b5085821015611c0f5787850151600019600388901b60f8161c191681555b5050505050600190811b01905550565b600060018201611c3157611c31611a21565b5060010190565b60008351611c4a818460208801611892565b6101d160f51b9083019081528351611c69816002840160208801611892565b0160020194935050505056fea2646970667358221220dd465bc2a253365e79d39cae11dfeb53c83e3857f6b19dcd3ea392b15dc7027564736f6c63430008130033",
  "linkReferences": {},
  "deployedLinkReferences": {}
}