{
  "_format": "hh-sol-artifact-1",
  "contractName": "BalanceManager",
  "sourceName": "contracts/examples/BalanceManager.sol",
  "abi": [
    {
      "inputs": [
        {
          "internalType": "string",
          "name": "name",
          "type": "string"
        },
        {
          "internalType": "string",
          "name": "symbol",
          "type": "string"
        },
        {
          "internalType": "uint256",
          "name": "initialSupply",
          "type": "uint256"
        }
      ],
      "stateMutability": "nonpayable",
      "type": "constructor"
    },
    {
      "anonymous": false,
      "inputs": [
        {
          "indexed": true,
          "internalType": "address",
          "name": "owner",
          "type": "address"
        },
        {
          "indexed": true,
          "internalType": "address",
          "name": "spender",
          "type": "address"
        },
        {
          "indexed": false,
          "internalType": "uint256",
          "name": "value",
          "type": "uint256"
        }
      ],
      "name": "Approval",
      "type": "event"
    },
    {
      "anonymous": false,
      "inputs": [
        {
          "indexed": true,
          "internalType": "address",
          "name": "account",
          "type": "address"
        },
        {
          "indexed": false,
          "internalType": "uint256",
          "name": "balance",
          "type": "uint256"
        },
        {
          "indexed": false,
          "internalType": "uint256",
          "name": "timestamp",
          "type": "uint256"
        }
      ],
      "name": "BalanceChecked",
      "type": "event"
    },
    {
      "anonymous": false,
      "inputs": [
        {
          "indexed": true,
          "internalType": "address",
          "name": "account",
          "type": "address"
        },
        {
          "indexed": false,
          "internalType": "uint256",
          "name": "oldBalance",
          "type": "uint256"
        },
        {
          "indexed": false,
          "internalType": "uint256",
          "name": "newBalance",
          "type": "uint256"
        },
        {
          "indexed": false,
          "internalType": "string",
          "name": "reason",
          "type": "string"
        }
      ],
      "name": "BalanceUpdated",
      "type": "event"
    },
    {
      "anonymous": false,
      "inputs": [
        {
          "indexed": true,
          "internalType": "address",
          "name": "previousOwner",
          "type": "address"
        },
        {
          "indexed": true,
          "internalType": "address",
          "name": "newOwner",
          "type": "address"
        }
      ],
      "name": "OwnershipTransferred",
      "type": "event"
    },
    {
      "anonymous": false,
      "inputs": [
        {
          "indexed": true,
          "internalType": "address",
          "name": "from",
          "type": "address"
        },
        {
          "indexed": true,
          "internalType": "address",
          "name": "to",
          "type": "address"
        },
        {
          "indexed": false,
          "internalType": "uint256",
          "name": "amount",
          "type": "uint256"
        },
        {
          "indexed": false,
          "internalType": "uint256",
          "name": "timestamp",
          "type": "uint256"
        }
      ],
      "name": "TransactionProcessed",
      "type": "event"
    },
    {
      "anonymous": false,
      "inputs": [
        {
          "indexed": true,
          "internalType": "address",
          "name": "from",
          "type": "address"
        },
        {
          "indexed": true,
          "internalType": "address",
          "name": "to",
          "type": "address"
        },
        {
          "indexed": false,
          "internalType": "uint256",
          "name": "value",
          "type": "uint256"
        }
      ],
      "name": "Transfer",
      "type": "event"
    },
    {
      "inputs": [],
      "name": "DECIMALS",
      "outputs": [
        {
          "internalType": "uint8",
          "name": "",
          "type": "uint8"
        }
      ],
      "stateMutability": "view",
      "type": "function"
    },
    {
      "inputs": [],
      "name": "MAX_SUPPLY",
      "outputs": [
        {
          "internalType": "uint256",
          "name": "",
          "type": "uint256"
        }
      ],
      "stateMutability": "view",
      "type": "function"
    },
    {
      "inputs": [
        {
          "internalType": "address",
          "name": "owner",
          "type": "address"
        },
        {
          "internalType": "address",
          "name": "spender",
          "type": "address"
        }
      ],
      "name": "allowance",
      "outputs": [
        {
          "internalType": "uint256",
          "name": "",
          "type": "uint256"
        }
      ],
      "stateMutability": "view",
      "type": "function"
    },
    {
      "inputs": [
        {
          "internalType": "address",
          "name": "spender",
          "type": "address"
        },
        {
          "internalType": "uint256",
          "name": "amount",
          "type": "uint256"
        }
      ],
      "name": "approve",
      "outputs": [
        {
          "internalType": "bool",
          "name": "",
          "type": "bool"
        }
      ],
      "stateMutability": "nonpayable",
      "type": "function"
    },
    {
      "inputs": [
        {
          "internalType": "address",
          "name": "",
          "type": "address"
        },
        {
          "internalType": "uint256",
          "name": "",
          "type": "uint256"
        }
      ],
      "name": "balanceHistory",
      "outputs": [
        {
          "internalType": "uint256",
          "name": "balance",
          "type": "uint256"
        },
        {
          "internalType": "uint256",
          "name": "timestamp",
          "type": "uint256"
        },
        {
          "internalType": "string",
          "name": "reason",
          "type": "string"
        }
      ],
      "stateMutability": "view",
      "type": "function"
    },
    {
      "inputs": [
        {
          "internalType": "address",
          "name": "account",
          "type": "address"
        }
      ],
      "name": "balanceOf",
      "outputs": [
        {
          "internalType": "uint256",
          "name": "",
          "type": "uint256"
        }
      ],
      "stateMutability": "view",
      "type": "function"
    },
    {
      "inputs": [
        {
          "internalType": "address",
          "name": "from",
          "type": "address"
        },
        {
          "internalType": "uint256",
          "name": "amount",
          "type": "uint256"
        }
      ],
      "name": "burn",
      "outputs": [],
      "stateMutability": "nonpayable",
      "type": "function"
    },
    {
      "inputs": [
        {
          "internalType": "address",
          "name": "account",
          "type": "address"
        }
      ],
      "name": "checkBalance",
      "outputs": [
        {
          "internalType": "uint256",
          "name": "balance",
          "type": "uint256"
        },
        {
          "internalType": "uint256",
          "name": "lastCheck",
          "type": "uint256"
        },
        {
          "internalType": "uint256",
          "name": "totalTransactions",
          "type": "uint256"
        }
      ],
      "stateMutability": "nonpayable",
      "type": "function"
    },
    {
      "inputs": [
        {
          "internalType": "address[]",
          "name": "accounts",
          "type": "address[]"
        }
      ],
      "name": "checkMultipleBalances",
      "outputs": [
        {
          "internalType": "uint256[]",
          "name": "balances",
          "type": "uint256[]"
        }
      ],
      "stateMutability": "nonpayable",
      "type": "function"
    },
    {
      "inputs": [],
      "name": "decimals",
      "outputs": [
        {
          "internalType": "uint8",
          "name": "",
          "type": "uint8"
        }
      ],
      "stateMutability": "pure",
      "type": "function"
    },
    {
      "inputs": [
        {
          "internalType": "address",
          "name": "spender",
          "type": "address"
        },
        {
          "internalType": "uint256",
          "name": "subtractedValue",
          "type": "uint256"
        }
      ],
      "name": "decreaseAllowance",
      "outputs": [
        {
          "internalType": "bool",
          "name": "",
          "type": "bool"
        }
      ],
      "stateMutability": "nonpayable",
      "type": "function"
    },
    {
      "inputs": [
        {
          "internalType": "address",
          "name": "account",
          "type": "address"
        }
      ],
      "name": "getAccountStats",
      "outputs": [
        {
          "internalType": "uint256",
          "name": "currentBalance",
          "type": "uint256"
        },
        {
          "internalType": "uint256",
          "name": "totalTransactions",
          "type": "uint256"
        },
        {
          "internalType": "uint256",
          "name": "lastActivity",
          "type": "uint256"
        },
        {
          "internalType": "uint256",
          "name": "accountAge",
          "type": "uint256"
        }
      ],
      "stateMutability": "view",
      "type": "function"
    },
    {
      "inputs": [
        {
          "internalType": "address",
          "name": "account",
          "type": "address"
        },
        {
          "internalType": "uint256",
          "name": "timestamp",
          "type": "uint256"
        }
      ],
      "name": "getBalanceAt",
      "outputs": [
        {
          "internalType": "uint256",
          "name": "balance",
          "type": "uint256"
        }
      ],
      "stateMutability": "view",
      "type": "function"
    },
    {
      "inputs": [
        {
          "internalType": "address",
          "name": "account",
          "type": "address"
        },
        {
          "internalType": "uint256",
          "name": "limit",
          "type": "uint256"
        }
      ],
      "name": "getBalanceHistory",
      "outputs": [
        {
          "components": [
            {
              "internalType": "uint256",
              "name": "balance",
              "type": "uint256"
            },
            {
              "internalType": "uint256",
              "name": "timestamp",
              "type": "uint256"
            },
            {
              "internalType": "string",
              "name": "reason",
              "type": "string"
            }
          ],
          "internalType": "struct BalanceManager.BalanceSnapshot[]",
          "name": "snapshots",
          "type": "tuple[]"
        }
      ],
      "stateMutability": "view",
      "type": "function"
    },
    {
      "inputs": [
        {
          "internalType": "address",
          "name": "spender",
          "type": "address"
        },
        {
          "internalType": "uint256",
          "name": "addedValue",
          "type": "uint256"
        }
      ],
      "name": "increaseAllowance",
      "outputs": [
        {
          "internalType": "bool",
          "name": "",
          "type": "bool"
        }
      ],
      "stateMutability": "nonpayable",
      "type": "function"
    },
    {
      "inputs": [
        {
          "internalType": "address",
          "name": "",
          "type": "address"
        }
      ],
      "name": "lastBalanceCheck",
      "outputs": [
        {
          "internalType": "uint256",
          "name": "",
          "type": "uint256"
        }
      ],
      "stateMutability": "view",
      "type": "function"
    },
    {
      "inputs": [
        {
          "internalType": "address",
          "name": "to",
          "type": "address"
        },
        {
          "internalType": "uint256",
          "name": "amount",
          "type": "uint256"
        }
      ],
      "name": "mint",
      "outputs": [],
      "stateMutability": "nonpayable",
      "type": "function"
    },
    {
      "inputs": [],
      "name": "name",
      "outputs": [
        {
          "internalType": "string",
          "name": "",
          "type": "string"
        }
      ],
      "stateMutability": "view",
      "type": "function"
    },
    {
      "inputs": [],
      "name": "owner",
      "outputs": [
        {
          "internalType": "address",
          "name": "",
          "type": "address"
        }
      ],
      "stateMutability": "view",
      "type": "function"
    },
    {
      "inputs": [],
      "name": "renounceOwnership",
      "outputs": [],
      "stateMutability": "nonpayable",
      "type": "function"
    },
    {
      "inputs": [],
      "name": "symbol",
      "outputs": [
        {
          "internalType": "string",
          "name": "",
          "type": "string"
        }
      ],
      "stateMutability": "view",
      "type": "function"
    },
    {
      "inputs": [],
      "name": "totalSupply",
      "outputs": [
        {
          "internalType": "uint256",
          "name": "",
          "type": "uint256"
        }
      ],
      "stateMutability": "view",
      "type": "function"
    },
    {
      "inputs": [
        {
          "internalType": "address",
          "name": "to",
          "type": "address"
        },
        {
          "internalType": "uint256",
          "name": "amount",
          "type": "uint256"
        }
      ],
      "name": "transfer",
      "outputs": [
        {
          "internalType": "bool",
          "name": "success",
          "type": "bool"
        }
      ],
      "stateMutability": "nonpayable",
      "type": "function"
    },
    {
      "inputs": [
        {
          "internalType": "address",
          "name": "from",
          "type": "address"
        },
        {
          "internalType": "address",
          "name": "to",
          "type": "address"
        },
        {
          "internalType": "uint256",
          "name": "amount",
          "type": "uint256"
        }
      ],
      "name": "transferFrom",
      "outputs": [
        {
          "internalType": "bool",
          "name": "success",
          "type": "bool"
        }
      ],
      "stateMutability": "nonpayable",
      "type": "function"
    },
    {
      "inputs": [
        {
          "internalType": "address",
          "name": "newOwner",
          "type": "address"
        }
      ],
      "name": "transferOwnership",
      "outputs": [],
      "stateMutability": "nonpayable",
      "type": "function"
    },
    {
      "inputs": [
        {
          "internalType": "address",
          "name": "account",
          "type": "address"
        },
        {
          "internalType": "uint256",
          "name": "newBalance",
          "type": "uint256"
        },
        {
          "internalType": "string",
          "name": "reason",
          "type": "string"
        }
      ],
      "name": "updateBalance",
      "outputs": [],
      "stateMutability": "nonpayable",
      "type": "function"
    }
  ],
  "bytecode": "0x60806040523480156200001157600080fd5b50604051620022ad380380620022ad8339810160408190526200003491620002e9565b82826003620000448382620003ea565b506004620000538282620003ea565b505050620000706200006a6200010660201b60201c565b6200010a565b60016006556b033b2e3c9fd0803ce8000000811115620000f15760405162461bcd60e51b815260206004820152603160248201527f42616c616e63654d616e616765723a20696e697469616c20737570706c792065604482015270786365656473206d617820737570706c7960781b60648201526084015b60405180910390fd5b620000fd33826200015c565b505050620004de565b3390565b600580546001600160a01b038381166001600160a01b0319831681179093556040519116919082907f8be0079c531659141344cd1fd0a4f28419497f9722a3daafe3b4186f6b6457e090600090a35050565b6001600160a01b038216620001b45760405162461bcd60e51b815260206004820152601f60248201527f45524332303a206d696e7420746f20746865207a65726f2061646472657373006044820152606401620000e8565b8060026000828254620001c89190620004b6565b90915550506001600160a01b038216600081815260208181526040808320805486019055518481527fddf252ad1be2c89b69c2b068fc378daa952ba7f163c4a11628f55a4df523b3ef910160405180910390a35050565b505050565b634e487b7160e01b600052604160045260246000fd5b600082601f8301126200024c57600080fd5b81516001600160401b038082111562000269576200026962000224565b604051601f8301601f19908116603f0116810190828211818310171562000294576200029462000224565b81604052838152602092508683858801011115620002b157600080fd5b600091505b83821015620002d55785820183015181830184015290820190620002b6565b600093810190920192909252949350505050565b600080600060608486031215620002ff57600080fd5b83516001600160401b03808211156200031757600080fd5b62000325878388016200023a565b945060208601519150808211156200033c57600080fd5b506200034b868287016200023a565b925050604084015190509250925092565b600181811c908216806200037157607f821691505b6020821081036200039257634e487b7160e01b600052602260045260246000fd5b50919050565b601f8211156200021f57600081815260208120601f850160051c81016020861015620003c15750805b601f850160051c820191505b81811015620003e257828155600101620003cd565b505050505050565b81516001600160401b0381111562000406576200040662000224565b6200041e816200041784546200035c565b8462000398565b602080601f8311600181146200045657600084156200043d5750858301515b600019600386901b1c1916600185901b178555620003e2565b600085815260208120601f198616915b82811015620004875788860151825594840194600190910190840162000466565b5085821015620004a65787850151600019600388901b60f8161c191681555b5050505050600190811b01905550565b80820180821115620004d857634e487b7160e01b600052601160045260246000fd5b92915050565b611dbf80620004ee6000396000f3fe608060405234801561001057600080fd5b506004361061018e5760003560e01c806370a08231116100de578063a457c2d711610097578063c68c9f9711610071578063c68c9f97146103a9578063dd2c888e146103c9578063dd62ed3e146103eb578063f2fde38b146103fe57600080fd5b8063a457c2d714610370578063a9059cbb14610383578063be00cdf01461039657600080fd5b806370a08231146102e9578063715018a6146103125780638a01f5f01461031a5780638da5cb5b1461033a57806395d89b41146103555780639dc29fac1461035d57600080fd5b80632e0f26251161014b5780633950935111610125578063395093511461027357806340c10f19146102865780635f5152261461029b5780636dc07896146102c957600080fd5b80632e0f26251461023f578063313ce5671461025957806332cb6b0c1461026057600080fd5b806306fdde0314610193578063095ea7b3146101b157806318160ddd146101d457806323b872dd146101e657806326ca8adb146101f957806328cdfaeb1461020c575b600080fd5b61019b610411565b6040516101a891906118a2565b60405180910390f35b6101c46101bf3660046118d1565b6104a3565b60405190151581526020016101a8565b6002545b6040519081526020016101a8565b6101c46101f43660046118fb565b6104bd565b6101d86102073660046118d1565b61057e565b61021f61021a366004611937565b61064f565b6040805194855260208501939093529183015260608201526080016101a8565b610247601281565b60405160ff90911681526020016101a8565b6012610247565b6101d86b033b2e3c9fd0803ce800000081565b6101c46102813660046118d1565b610748565b6102996102943660046118d1565b61076a565b005b6102ae6102a9366004611937565b61085b565b604080519384526020840192909252908201526060016101a8565b6102dc6102d7366004611952565b6109c4565b6040516101a891906119c7565b6101d86102f7366004611937565b6001600160a01b031660009081526020819052604090205490565b610299610a79565b6101d8610328366004611937565b60086020526000908152604090205481565b6005546040516001600160a01b0390911681526020016101a8565b61019b610a8d565b61029961036b3660046118d1565b610a9c565b6101c461037e3660046118d1565b610afd565b6101c46103913660046118d1565b610b83565b6102996103a4366004611a0b565b610c36565b6103bc6103b73660046118d1565b610dae565b6040516101a89190611a92565b6103dc6103d73660046118d1565b610f82565b6040516101a893929190611b11565b6101d86103f9366004611b39565b611051565b61029961040c366004611937565b61107c565b60606003805461042090611b6c565b80601f016020809104026020016040519081016040528092919081815260200182805461044c90611b6c565b80156104995780601f1061046e57610100808354040283529160200191610499565b820191906000526020600020905b81548152906001019060200180831161047c57829003601f168201915b5050505050905090565b6000336104b18185856110f5565b60019150505b92915050565b60006104c761121a565b6104f78484846040518060400160405280600c81526020016b5472616e7366657246726f6d60a01b815250611273565b6105028484846112c1565b9050801561056d5761053c846040518060400160405280601081526020016f151c985b9cd9995c919c9bdb4813dd5d60821b8152506112da565b61056d836040518060400160405280600f81526020016e2a3930b739b332b9233937b69024b760891b8152506112da565b6105776001600655565b9392505050565b6001600160a01b0382166000908152600760205260408120805482036105be5750506001600160a01b0382166000908152602081905260409020546104b7565b80545b80156106445783826105d4600184611bbc565b815481106105e4576105e4611bcf565b906000526020600020906003020160010154116106325781610607600183611bbc565b8154811061061757610617611bcf565b906000526020600020906003020160000154925050506104b7565b8061063c81611be5565b9150506105c1565b506000949350505050565b600080600080610674856001600160a01b031660009081526020819052604090205490565b6001600160a01b0386166000908152600760205260409020549094509250821561073a576001600160a01b03851660009081526007602052604090206106bb600185611bbc565b815481106106cb576106cb611bcf565b906000526020600020906003020160010154915060076000866001600160a01b03166001600160a01b0316815260200190815260200160002060008154811061071657610716611bcf565b906000526020600020906003020160010154426107339190611bbc565b9050610741565b5060009050805b9193509193565b6000336104b181858561075b8383611051565b6107659190611bfc565b6110f5565b610772611396565b6b033b2e3c9fd0803ce80000008161078960025490565b6107939190611bfc565b11156107fe5760405162461bcd60e51b815260206004820152602f60248201527f42616c616e63654d616e616765723a206d696e74696e6720776f756c6420657860448201526e63656564206d617820737570706c7960881b60648201526084015b60405180910390fd5b6108276000838360405180604001604052806004815260200163135a5b9d60e21b815250611273565b61083182826113f0565b6108578260405180604001604052806004815260200163135a5b9d60e21b8152506112da565b5050565b600080806001600160a01b0384166108d35760405162461bcd60e51b815260206004820152603560248201527f42616c616e63654d616e616765723a2063616e6e6f7420636865636b2062616c604482015274616e636520666f72207a65726f206164647265737360581b60648201526084016107f5565b5050506001600160a01b038116600090815260208181526040808320546008835281842080546007855283862080544293849055855160608101875285815280880194855286518088018852600d81526c42616c616e636520436865636b60981b818a0152968101968752825460018181018555938a5297909820885160039098020196875592519086015592519194929390929160028201906109779082611c73565b5050604080518581524260208201526001600160a01b03871692507f9468e18bb1981b041160c19ded9e7099309f1ae4223f48496fd2c7afb7df979c910160405180910390a29193909250565b60608167ffffffffffffffff8111156109df576109df611c0f565b604051908082528060200260200182016040528015610a08578160200160208202803683370190505b50905060005b82811015610a7257610a40848483818110610a2b57610a2b611bcf565b90506020020160208101906102a99190611937565b905050828281518110610a5557610a55611bcf565b602090810291909101015280610a6a81611d33565b915050610a0e565b5092915050565b610a81611396565b610a8b60006114af565b565b60606004805461042090611b6c565b610aa4611396565b610acd8260008360405180604001604052806004815260200163213ab93760e11b815250611273565b610ad78282611501565b6108578260405180604001604052806004815260200163213ab93760e11b8152506112da565b60003381610b0b8286611051565b905083811015610b6b5760405162461bcd60e51b815260206004820152602560248201527f45524332303a2064656372656173656420616c6c6f77616e63652062656c6f77604482015264207a65726f60d81b60648201526084016107f5565b610b7882868684036110f5565b506001949350505050565b6000610b8d61121a565b6000339050610bbe818585604051806040016040528060088152602001672a3930b739b332b960c11b815250611273565b610bc88484611630565b91508115610c2b57610bfe816040518060400160405280600c81526020016b151c985b9cd9995c8813dd5d60a21b8152506112da565b610c2b846040518060400160405280600b81526020016a2a3930b739b332b91024b760a91b8152506112da565b506104b76001600655565b610c3e611396565b6001600160a01b038416610cb35760405162461bcd60e51b815260206004820152603660248201527f42616c616e63654d616e616765723a2063616e6e6f74207570646174652062616044820152756c616e636520666f72207a65726f206164647265737360501b60648201526084016107f5565b6001600160a01b038416600090815260208181526040808320546007835292819020815160608101835287815242818501528251601f87018590048502810185018452868152919390928301919087908790819084018382808284376000920182905250939094525050835460018181018655948252602091829020845160039092020190815590830151938101939093555060408101519091906002820190610d5d9082611c73565b505050846001600160a01b03167f2e0f2fb300c0cc541e23fccef0e861bbf59e3e43efea15a9ae25545fbf27e39382868686604051610d9f9493929190611d4c565b60405180910390a25050505050565b6001600160a01b03821660009081526007602052604090208054606091908315801590610dda57508084105b15610de25750825b8067ffffffffffffffff811115610dfb57610dfb611c0f565b604051908082528060200260200182016040528015610e5057816020015b610e3d60405180606001604052806000815260200160008152602001606081525090565b815260200190600190039081610e195790505b50925060005b81811015610f7957825483908290610e7090600190611bbc565b610e7a9190611bbc565b81548110610e8a57610e8a611bcf565b90600052602060002090600302016040518060600160405290816000820154815260200160018201548152602001600282018054610ec790611b6c565b80601f0160208091040260200160405190810160405280929190818152602001828054610ef390611b6c565b8015610f405780601f10610f1557610100808354040283529160200191610f40565b820191906000526020600020905b815481529060010190602001808311610f2357829003601f168201915b505050505081525050848281518110610f5b57610f5b611bcf565b60200260200101819052508080610f7190611d33565b915050610e56565b50505092915050565b60076020528160005260406000208181548110610f9e57600080fd5b906000526020600020906003020160009150915050806000015490806001015490806002018054610fce90611b6c565b80601f0160208091040260200160405190810160405280929190818152602001828054610ffa90611b6c565b80156110475780601f1061101c57610100808354040283529160200191611047565b820191906000526020600020905b81548152906001019060200180831161102a57829003601f168201915b5050505050905083565b6001600160a01b03918216600090815260016020908152604080832093909416825291909152205490565b611084611396565b6001600160a01b0381166110e95760405162461bcd60e51b815260206004820152602660248201527f4f776e61626c653a206e6577206f776e657220697320746865207a65726f206160448201526564647265737360d01b60648201526084016107f5565b6110f2816114af565b50565b6001600160a01b0383166111575760405162461bcd60e51b8152602060048201526024808201527f45524332303a20617070726f76652066726f6d20746865207a65726f206164646044820152637265737360e01b60648201526084016107f5565b6001600160a01b0382166111b85760405162461bcd60e51b815260206004820152602260248201527f45524332303a20617070726f766520746f20746865207a65726f206164647265604482015261737360f01b60648201526084016107f5565b6001600160a01b0383811660008181526001602090815260408083209487168084529482529182902085905590518481527f8c5be1e5ebec7d5bd14f71427d1e84f3dd0314c0f7b2291e5b200ac8c7c3b92591015b60405180910390a3505050565b60026006540361126c5760405162461bcd60e51b815260206004820152601f60248201527f5265656e7472616e637947756172643a207265656e7472616e742063616c6c0060448201526064016107f5565b6002600655565b604080518381524260208201526001600160a01b0380861692908716917fe3ffb771775132f85296cf03ac6398788e525ebfb446281b95d82c8e35900be6910160405180910390a350505050565b6000336112cf85828561163e565b610b788585856116b8565b6001600160a01b0382166000908152602081815260408083205460078352818420825160608101845282815242818601908152938101878152825460018082018555938852959096208151600390960201948555925190840155925190919060028201906113489082611c73565b505050826001600160a01b03167f2e0f2fb300c0cc541e23fccef0e861bbf59e3e43efea15a9ae25545fbf27e3936000838560405161138993929190611b11565b60405180910390a2505050565b6005546001600160a01b03163314610a8b5760405162461bcd60e51b815260206004820181905260248201527f4f776e61626c653a2063616c6c6572206973206e6f7420746865206f776e657260448201526064016107f5565b6001600160a01b0382166114465760405162461bcd60e51b815260206004820152601f60248201527f45524332303a206d696e7420746f20746865207a65726f20616464726573730060448201526064016107f5565b80600260008282546114589190611bfc565b90915550506001600160a01b038216600081815260208181526040808320805486019055518481527fddf252ad1be2c89b69c2b068fc378daa952ba7f163c4a11628f55a4df523b3ef910160405180910390a35050565b600580546001600160a01b038381166001600160a01b0319831681179093556040519116919082907f8be0079c531659141344cd1fd0a4f28419497f9722a3daafe3b4186f6b6457e090600090a35050565b6001600160a01b0382166115615760405162461bcd60e51b815260206004820152602160248201527f45524332303a206275726e2066726f6d20746865207a65726f206164647265736044820152607360f81b60648201526084016107f5565b6001600160a01b038216600090815260208190526040902054818110156115d55760405162461bcd60e51b815260206004820152602260248201527f45524332303a206275726e20616d6f756e7420657863656564732062616c616e604482015261636560f01b60648201526084016107f5565b6001600160a01b0383166000818152602081815260408083208686039055600280548790039055518581529192917fddf252ad1be2c89b69c2b068fc378daa952ba7f163c4a11628f55a4df523b3ef910161120d565b505050565b6000336104b18185856116b8565b600061164a8484611051565b905060001981146116b257818110156116a55760405162461bcd60e51b815260206004820152601d60248201527f45524332303a20696e73756666696369656e7420616c6c6f77616e636500000060448201526064016107f5565b6116b284848484036110f5565b50505050565b6001600160a01b03831661171c5760405162461bcd60e51b815260206004820152602560248201527f45524332303a207472616e736665722066726f6d20746865207a65726f206164604482015264647265737360d81b60648201526084016107f5565b6001600160a01b03821661177e5760405162461bcd60e51b815260206004820152602360248201527f45524332303a207472616e7366657220746f20746865207a65726f206164647260448201526265737360e81b60648201526084016107f5565b6001600160a01b038316600090815260208190526040902054818110156117f65760405162461bcd60e51b815260206004820152602660248201527f45524332303a207472616e7366657220616d6f756e7420657863656564732062604482015265616c616e636560d01b60648201526084016107f5565b6001600160a01b03848116600081815260208181526040808320878703905593871680835291849020805487019055925185815290927fddf252ad1be2c89b69c2b068fc378daa952ba7f163c4a11628f55a4df523b3ef910160405180910390a36116b2565b6000815180845260005b8181101561188257602081850181015186830182015201611866565b506000602082860101526020601f19601f83011685010191505092915050565b602081526000610577602083018461185c565b80356001600160a01b03811681146118cc57600080fd5b919050565b600080604083850312156118e457600080fd5b6118ed836118b5565b946020939093013593505050565b60008060006060848603121561191057600080fd5b611919846118b5565b9250611927602085016118b5565b9150604084013590509250925092565b60006020828403121561194957600080fd5b610577826118b5565b6000806020838503121561196557600080fd5b823567ffffffffffffffff8082111561197d57600080fd5b818501915085601f83011261199157600080fd5b8135818111156119a057600080fd5b8660208260051b85010111156119b557600080fd5b60209290920196919550909350505050565b6020808252825182820181905260009190848201906040850190845b818110156119ff578351835292840192918401916001016119e3565b50909695505050505050565b60008060008060608587031215611a2157600080fd5b611a2a856118b5565b935060208501359250604085013567ffffffffffffffff80821115611a4e57600080fd5b818701915087601f830112611a6257600080fd5b813581811115611a7157600080fd5b886020828501011115611a8357600080fd5b95989497505060200194505050565b60006020808301818452808551808352604092508286019150828160051b87010184880160005b83811015611b0357888303603f1901855281518051845287810151888501528601516060878501819052611aef8186018361185c565b968901969450505090860190600101611ab9565b509098975050505050505050565b838152826020820152606060408201526000611b30606083018461185c565b95945050505050565b60008060408385031215611b4c57600080fd5b611b55836118b5565b9150611b63602084016118b5565b90509250929050565b600181811c90821680611b8057607f821691505b602082108103611ba057634e487b7160e01b600052602260045260246000fd5b50919050565b634e487b7160e01b600052601160045260246000fd5b818103818111156104b7576104b7611ba6565b634e487b7160e01b600052603260045260246000fd5b600081611bf457611bf4611ba6565b506000190190565b808201808211156104b7576104b7611ba6565b634e487b7160e01b600052604160045260246000fd5b601f82111561162b57600081815260208120601f850160051c81016020861015611c4c5750805b601f850160051c820191505b81811015611c6b57828155600101611c58565b505050505050565b815167ffffffffffffffff811115611c8d57611c8d611c0f565b611ca181611c9b8454611b6c565b84611c25565b602080601f831160018114611cd65760008415611cbe5750858301515b600019600386901b1c1916600185901b178555611c6b565b600085815260208120601f198616915b82811015611d0557888601518255948401946001909101908401611ce6565b5085821015611d235787850151600019600388901b60f8161c191681555b5050505050600190811b01905550565b600060018201611d4557611d45611ba6565b5060010190565b84815283602082015260606040820152816060820152818360808301376000818301608090810191909152601f909201601f19160101939250505056fea26469706673582212201125b81ec0be0b06ac5fb42894428cfc8da6ca70d19392f3a5952ecd708385a864736f6c63430008130033",
  "linkReferences": {},
  "deployedLinkReferences": {}
}