{
  "_format": "hh-sol-artifact-1",
  "contractName": "BaseVesting",
  "sourceName": "contracts/examples/BaseVesting.sol",
  "abi": [
    {
      "inputs": [
        {
          "internalType": "address",
          "name": "_vestingToken",
          "type": "address"
        }
      ],
      "stateMutability": "nonpayable",
      "type": "constructor"
    },
    {
      "anonymous": false,
      "inputs": [
        {
          "indexed": true,
          "internalType": "address",
          "name": "token",
          "type": "address"
        },
        {
          "indexed": false,
          "internalType": "uint256",
          "name": "amount",
          "type": "uint256"
        }
      ],
      "name": "EmergencyWithdraw",
      "type": "event"
    },
    {
      "anonymous": false,
      "inputs": [
        {
          "indexed": true,
          "internalType": "address",
          "name": "previousOwner",
          "type": "address"
        },
        {
          "indexed": true,
          "internalType": "address",
          "name": "newOwner",
          "type": "address"
        }
      ],
      "name": "OwnershipTransferred",
      "type": "event"
    },
    {
      "anonymous": false,
      "inputs": [
        {
          "indexed": false,
          "internalType": "address",
          "name": "account",
          "type": "address"
        }
      ],
      "name": "Paused",
      "type": "event"
    },
    {
      "anonymous": false,
      "inputs": [
        {
          "indexed": true,
          "internalType": "address",
          "name": "beneficiary",
          "type": "address"
        },
        {
          "indexed": false,
          "internalType": "uint256",
          "name": "amount",
          "type": "uint256"
        }
      ],
      "name": "TokensVested",
      "type": "event"
    },
    {
      "anonymous": false,
      "inputs": [
        {
          "indexed": false,
          "internalType": "address",
          "name": "account",
          "type": "address"
        }
      ],
      "name": "Unpaused",
      "type": "event"
    },
    {
      "anonymous": false,
      "inputs": [
        {
          "indexed": true,
          "internalType": "address",
          "name": "beneficiary",
          "type": "address"
        },
        {
          "indexed": false,
          "internalType": "uint256",
          "name": "totalAmount",
          "type": "uint256"
        },
        {
          "indexed": false,
          "internalType": "uint256",
          "name": "cliffDuration",
          "type": "uint256"
        },
        {
          "indexed": false,
          "internalType": "uint256",
          "name": "vestingDuration",
          "type": "uint256"
        }
      ],
      "name": "VestingScheduleCreated",
      "type": "event"
    },
    {
      "anonymous": false,
      "inputs": [
        {
          "indexed": true,
          "internalType": "address",
          "name": "beneficiary",
          "type": "address"
        }
      ],
      "name": "VestingScheduleRevoked",
      "type": "event"
    },
    {
      "inputs": [
        {
          "internalType": "address",
          "name": "withdrawer",
          "type": "address"
        }
      ],
      "name": "addEmergencyWithdrawer",
      "outputs": [],
      "stateMutability": "nonpayable",
      "type": "function"
    },
    {
      "inputs": [
        {
          "internalType": "address",
          "name": "newVestingToken",
          "type": "address"
        }
      ],
      "name": "changeVestingToken",
      "outputs": [],
      "stateMutability": "nonpayable",
      "type": "function"
    },
    {
      "inputs": [
        {
          "internalType": "address",
          "name": "beneficiary",
          "type": "address"
        },
        {
          "internalType": "uint256",
          "name": "totalAmount",
          "type": "uint256"
        },
        {
          "internalType": "uint256",
          "name": "cliffDuration",
          "type": "uint256"
        },
        {
          "internalType": "uint256",
          "name": "vestingDuration",
          "type": "uint256"
        },
        {
          "internalType": "bool",
          "name": "revocable",
          "type": "bool"
        }
      ],
      "name": "createVestingSchedule",
      "outputs": [],
      "stateMutability": "nonpayable",
      "type": "function"
    },
    {
      "inputs": [
        {
          "internalType": "address[]",
          "name": "beneficiaries",
          "type": "address[]"
        },
        {
          "internalType": "uint256[]",
          "name": "totalAmounts",
          "type": "uint256[]"
        },
        {
          "internalType": "uint256[]",
          "name": "cliffDurations",
          "type": "uint256[]"
        },
        {
          "internalType": "uint256[]",
          "name": "vestingDurations",
          "type": "uint256[]"
        },
        {
          "internalType": "bool[]",
          "name": "revocables",
          "type": "bool[]"
        }
      ],
      "name": "createVestingSchedulesBatch",
      "outputs": [],
      "stateMutability": "nonpayable",
      "type": "function"
    },
    {
      "inputs": [],
      "name": "emergencyMode",
      "outputs": [
        {
          "internalType": "bool",
          "name": "",
          "type": "bool"
        }
      ],
      "stateMutability": "view",
      "type": "function"
    },
    {
      "inputs": [
        {
          "internalType": "uint256",
          "name": "amount",
          "type": "uint256"
        }
      ],
      "name": "emergencyWithdraw",
      "outputs": [],
      "stateMutability": "nonpayable",
      "type": "function"
    },
    {
      "inputs": [
        {
          "internalType": "address",
          "name": "",
          "type": "address"
        }
      ],
      "name": "emergencyWithdrawers",
      "outputs": [
        {
          "internalType": "bool",
          "name": "",
          "type": "bool"
        }
      ],
      "stateMutability": "view",
      "type": "function"
    },
    {
      "inputs": [
        {
          "internalType": "address",
          "name": "beneficiary",
          "type": "address"
        }
      ],
      "name": "getBeneficiaryInfo",
      "outputs": [
        {
          "internalType": "uint256",
          "name": "totalAmount",
          "type": "uint256"
        },
        {
          "internalType": "uint256",
          "name": "releasedAmount",
          "type": "uint256"
        },
        {
          "internalType": "uint256",
          "name": "vestedAmount",
          "type": "uint256"
        },
        {
          "internalType": "uint256",
          "name": "releasableAmount",
          "type": "uint256"
        }
      ],
      "stateMutability": "view",
      "type": "function"
    },
    {
      "inputs": [
        {
          "internalType": "address",
          "name": "beneficiary",
          "type": "address"
        }
      ],
      "name": "getReleasableAmount",
      "outputs": [
        {
          "internalType": "uint256",
          "name": "amount",
          "type": "uint256"
        }
      ],
      "stateMutability": "view",
      "type": "function"
    },
    {
      "inputs": [
        {
          "internalType": "address",
          "name": "beneficiary",
          "type": "address"
        }
      ],
      "name": "getVestedAmount",
      "outputs": [
        {
          "internalType": "uint256",
          "name": "amount",
          "type": "uint256"
        }
      ],
      "stateMutability": "view",
      "type": "function"
    },
    {
      "inputs": [
        {
          "internalType": "address",
          "name": "beneficiary",
          "type": "address"
        }
      ],
      "name": "getVestingProgress",
      "outputs": [
        {
          "internalType": "uint256",
          "name": "progressPercentage",
          "type": "uint256"
        }
      ],
      "stateMutability": "view",
      "type": "function"
    },
    {
      "inputs": [
        {
          "internalType": "address",
          "name": "beneficiary",
          "type": "address"
        }
      ],
      "name": "getVestingSchedule",
      "outputs": [
        {
          "components": [
            {
              "internalType": "bool",
              "name": "initialized",
              "type": "bool"
            },
            {
              "internalType": "address",
              "name": "beneficiary",
              "type": "address"
            },
            {
              "internalType": "uint256",
              "name": "cliffDuration",
              "type": "uint256"
            },
            {
              "internalType": "uint256",
              "name": "vestingDuration",
              "type": "uint256"
            },
            {
              "internalType": "uint256",
              "name": "startTime",
              "type": "uint256"
            },
            {
              "internalType": "uint256",
              "name": "totalAmount",
              "type": "uint256"
            },
            {
              "internalType": "uint256",
              "name": "releasedAmount",
              "type": "uint256"
            },
            {
              "internalType": "bool",
              "name": "revocable",
              "type": "bool"
            }
          ],
          "internalType": "struct BaseVesting.VestingSchedule",
          "name": "schedule",
          "type": "tuple"
        }
      ],
      "stateMutability": "view",
      "type": "function"
    },
    {
      "inputs": [],
      "name": "getVestingStats",
      "outputs": [
        {
          "internalType": "uint256",
          "name": "totalVested",
          "type": "uint256"
        },
        {
          "internalType": "uint256",
          "name": "totalReleased",
          "type": "uint256"
        },
        {
          "internalType": "uint256",
          "name": "totalPending",
          "type": "uint256"
        }
      ],
      "stateMutability": "view",
      "type": "function"
    },
    {
      "inputs": [
        {
          "internalType": "address",
          "name": "",
          "type": "address"
        }
      ],
      "name": "hasVestingSchedule",
      "outputs": [
        {
          "internalType": "bool",
          "name": "",
          "type": "bool"
        }
      ],
      "stateMutability": "view",
      "type": "function"
    },
    {
      "inputs": [],
      "name": "owner",
      "outputs": [
        {
          "internalType": "address",
          "name": "",
          "type": "address"
        }
      ],
      "stateMutability": "view",
      "type": "function"
    },
    {
      "inputs": [],
      "name": "pause",
      "outputs": [],
      "stateMutability": "nonpayable",
      "type": "function"
    },
    {
      "inputs": [],
      "name": "paused",
      "outputs": [
        {
          "internalType": "bool",
          "name": "",
          "type": "bool"
        }
      ],
      "stateMutability": "view",
      "type": "function"
    },
    {
      "inputs": [
        {
          "internalType": "address",
          "name": "beneficiary",
          "type": "address"
        }
      ],
      "name": "release",
      "outputs": [],
      "stateMutability": "nonpayable",
      "type": "function"
    },
    {
      "inputs": [
        {
          "internalType": "address[]",
          "name": "beneficiaries",
          "type": "address[]"
        }
      ],
      "name": "releaseBatch",
      "outputs": [],
      "stateMutability": "nonpayable",
      "type": "function"
    },
    {
      "inputs": [
        {
          "internalType": "address",
          "name": "withdrawer",
          "type": "address"
        }
      ],
      "name": "removeEmergencyWithdrawer",
      "outputs": [],
      "stateMutability": "nonpayable",
      "type": "function"
    },
    {
      "inputs": [],
      "name": "renounceOwnership",
      "outputs": [],
      "stateMutability": "nonpayable",
      "type": "function"
    },
    {
      "inputs": [
        {
          "internalType": "address",
          "name": "beneficiary",
          "type": "address"
        }
      ],
      "name": "revokeVestingSchedule",
      "outputs": [],
      "stateMutability": "nonpayable",
      "type": "function"
    },
    {
      "inputs": [
        {
          "internalType": "bool",
          "name": "enabled",
          "type": "bool"
        }
      ],
      "name": "setEmergencyMode",
      "outputs": [],
      "stateMutability": "nonpayable",
      "type": "function"
    },
    {
      "inputs": [],
      "name": "totalReleasedAmount",
      "outputs": [
        {
          "internalType": "uint256",
          "name": "",
          "type": "uint256"
        }
      ],
      "stateMutability": "view",
      "type": "function"
    },
    {
      "inputs": [],
      "name": "totalVestedAmount",
      "outputs": [
        {
          "internalType": "uint256",
          "name": "",
          "type": "uint256"
        }
      ],
      "stateMutability": "view",
      "type": "function"
    },
    {
      "inputs": [
        {
          "internalType": "address",
          "name": "newOwner",
          "type": "address"
        }
      ],
      "name": "transferOwnership",
      "outputs": [],
      "stateMutability": "nonpayable",
      "type": "function"
    },
    {
      "inputs": [],
      "name": "unpause",
      "outputs": [],
      "stateMutability": "nonpayable",
      "type": "function"
    },
    {
      "inputs": [
        {
          "internalType": "address",
          "name": "",
          "type": "address"
        }
      ],
      "name": "vestingSchedules",
      "outputs": [
        {
          "internalType": "bool",
          "name": "initialized",
          "type": "bool"
        },
        {
          "internalType": "address",
          "name": "beneficiary",
          "type": "address"
        },
        {
          "internalType": "uint256",
          "name": "cliffDuration",
          "type": "uint256"
        },
        {
          "internalType": "uint256",
          "name": "vestingDuration",
          "type": "uint256"
        },
        {
          "internalType": "uint256",
          "name": "startTime",
          "type": "uint256"
        },
        {
          "internalType": "uint256",
          "name": "totalAmount",
          "type": "uint256"
        },
        {
          "internalType": "uint256",
          "name": "releasedAmount",
          "type": "uint256"
        },
        {
          "internalType": "bool",
          "name": "revocable",
          "type": "bool"
        }
      ],
      "stateMutability": "view",
      "type": "function"
    },
    {
      "inputs": [],
      "name": "vestingToken",
      "outputs": [
        {
          "internalType": "address",
          "name": "",
          "type": "address"
        }
      ],
      "stateMutability": "view",
      "type": "function"
    }
  ],
  "bytecode": "0x60806040526008805460ff191690553480156200001b57600080fd5b5060405162002518380380620025188339810160408190526200003e91620000e9565b620000493362000099565b60018080556002805460ff19908116909155600580546001600160a01b0319166001600160a01b03949094169390931790925533600090815260096020526040902080549092161790556200011b565b600080546001600160a01b038381166001600160a01b0319831681178455604051919092169283917f8be0079c531659141344cd1fd0a4f28419497f9722a3daafe3b4186f6b6457e09190a35050565b600060208284031215620000fc57600080fd5b81516001600160a01b03811681146200011457600080fd5b9392505050565b6123ed806200012b6000396000f3fe608060405234801561001057600080fd5b50600436106101cf5760003560e01c80638456cb5911610104578063be32b3f8116100a2578063e1925cb011610071578063e1925cb014610460578063f035a27214610473578063f2fde38b14610486578063fdb20ccb1461049957600080fd5b8063be32b3f814610414578063cf75cff314610427578063d5a73fdd1461043a578063df745d281461044d57600080fd5b80639f829063116100de5780639f8290631461034f578063ae6febc2146103cb578063b4a38893146103de578063b99ce2581461040157600080fd5b80638456cb59146103235780638da5cb5b1461032b5780638e2d5a421461033c57600080fd5b80633f4ba83a1161017157806364893fcb1161014b57806364893fcb146102e6578063715018a6146102ef57806382b17be0146102f757806383273cd11461031a57600080fd5b80633f4ba83a146102c05780635312ea8e146102c85780635c975abb146102db57600080fd5b806319165587116101ad578063191655871461022e57806319d152fa146102415780632afd1a7d1461026c578063366dc0831461028d57600080fd5b80630905f560146101d45780630acde981146101f65780630f19734f14610219575b600080fd5b6008546101e19060ff1681565b60405190151581526020015b60405180910390f35b6101e1610204366004611fd0565b60096020526000908152604090205460ff1681565b61022c610227366004612000565b61053d565b005b61022c61023c366004611fd0565b610855565b600554610254906001600160a01b031681565b6040516001600160a01b0390911681526020016101ed565b61027f61027a366004611fd0565b610a31565b6040519081526020016101ed565b6102a061029b366004611fd0565b610b28565b6040805194855260208501939093529183015260608201526080016101ed565b61022c610c09565b61022c6102d6366004612054565b610c1b565b60025460ff166101e1565b61027f60065481565b61022c610db2565b6102ff610dc4565b604080519384526020840192909252908201526060016101ed565b61027f60075481565b61022c610ddd565b6000546001600160a01b0316610254565b61022c61034a366004611fd0565b610ded565b61036261035d366004611fd0565b610e19565b6040516101ed91908151151581526020808301516001600160a01b03169082015260408083015190820152606080830151908201526080808301519082015260a0808301519082015260c0808301519082015260e0918201511515918101919091526101000190565b61022c6103d9366004611fd0565b610f2c565b6101e16103ec366004611fd0565b60046020526000908152604090205460ff1681565b61022c61040f3660046120b9565b610f55565b61022c6104223660046121aa565b611589565b61027f610435366004611fd0565b6115a4565b61027f610448366004611fd0565b6116e6565b61022c61045b3660046121c7565b61181b565b61022c61046e366004611fd0565b611a8a565b61022c610481366004611fd0565b611b36565b61022c610494366004611fd0565b611d1d565b6104f66104a7366004611fd0565b6003602081905260009182526040909120805460018201546002830154938301546004840154600585015460069095015460ff808616976101009096046001600160a01b031696949594911688565b6040805198151589526001600160a01b039097166020890152958701949094526060860192909252608085015260a084015260c0830152151560e0820152610100016101ed565b610545611d93565b6001600160a01b0385166105745760405162461bcd60e51b815260040161056b90612209565b60405180910390fd5b600084116105c45760405162461bcd60e51b815260206004820152601b60248201527f4261736556657374696e673a20696e76616c696420616d6f756e740000000000604482015260640161056b565b600082116106145760405162461bcd60e51b815260206004820152601d60248201527f4261736556657374696e673a20696e76616c6964206475726174696f6e000000604482015260640161056b565b6001600160a01b03851660009081526004602052604090205460ff161561067d5760405162461bcd60e51b815260206004820152601c60248201527f4261736556657374696e673a207363686564756c652065786973747300000000604482015260640161056b565b6005546040516323b872dd60e01b8152336004820152306024820152604481018690526001600160a01b03909116906323b872dd906064016020604051808303816000875af11580156106d4573d6000803e3d6000fd5b505050506040513d601f19601f820116820180604052508101906106f89190612240565b6107145760405162461bcd60e51b815260040161056b9061225d565b60408051610100808201835260018083526001600160a01b0389811660208086018281528688018b8152606088018b81524260808a0190815260a08a018f8152600060c08c018181528e151560e08e0190815298825260038089528e83209d518e5498516001600160a81b0319909916901515610100600160a81b0319161797909a16909b02959095178b5592518a890155905160028a0155519488019490945592516004808801919091559451600587015590516006958601805460ff19908116921515929092179055939052938420805490921617905580548692906107fd9084906122aa565b909155505060408051858152602081018590529081018390526001600160a01b038616907f892f1a841b10e4b041cc41d8cc47c6a6049f1ff5fa272ddf47a0aa5ad8f59d139060600160405180910390a25050505050565b61085d611ded565b610865611e46565b6001600160a01b03811660009081526004602052604090205460ff1661089d5760405162461bcd60e51b815260040161056b906122c3565b6001600160a01b0381166000908152600360205260408120906108bf83610a31565b90506000811161091b5760405162461bcd60e51b815260206004820152602160248201527f4261736556657374696e673a206e6f20746f6b656e7320746f2072656c6561736044820152606560f81b606482015260840161056b565b8082600501600082825461092f91906122aa565b92505081905550806007600082825461094891906122aa565b909155505060055460405163a9059cbb60e01b81526001600160a01b038581166004830152602482018490529091169063a9059cbb906044016020604051808303816000875af11580156109a0573d6000803e3d6000fd5b505050506040513d601f19601f820116820180604052508101906109c49190612240565b6109e05760405162461bcd60e51b815260040161056b9061225d565b826001600160a01b03167fd4691cc79b8fc72aac1e8c0d15a2ca06d71a386c983f815266f0fce713dc5ea782604051610a1b91815260200190565b60405180910390a25050610a2e60018055565b50565b6001600160a01b03811660009081526004602052604081205460ff16610a5957506000919050565b6001600160a01b0380831660009081526003602081815260409283902083516101008082018652825460ff80821615158452919004909616928101929092526001810154938201849052600281015460608301529182015460808201819052600483015460a0830152600583015460c0830152600690920154909316151560e0840152610ae691906122aa565b421015610af65750600092915050565b6000610b01846116e6565b90508160c00151811115610b215760c0820151610b1e90826122fa565b92505b5050919050565b6001600160a01b03811660009081526004602052604081205481908190819060ff16610b5f57506000925082915081905080610c02565b6001600160a01b0380861660009081526003602081815260409283902083516101008082018652825460ff808216151584529190049096169281019290925260018101549382019390935260028301546060820152908201546080820152600482015460a08201819052600583015460c08301819052600690930154909316151560e08201529195509350610bf3866116e6565b9250610bfe86610a31565b9150505b9193509193565b610c11611d93565b610c19611e8c565b565b60085460ff16610c7d5760405162461bcd60e51b815260206004820152602760248201527f4261736556657374696e673a20656d657267656e6379206d6f6465206e6f7420604482015266195b98589b195960ca1b606482015260840161056b565b3360009081526009602052604090205460ff16610cdc5760405162461bcd60e51b815260206004820152601b60248201527f4261736556657374696e673a206e6f7420617574686f72697a65640000000000604482015260640161056b565b60055460405163a9059cbb60e01b8152336004820152602481018390526001600160a01b039091169063a9059cbb906044016020604051808303816000875af1158015610d2d573d6000803e3d6000fd5b505050506040513d601f19601f82011682018060405250810190610d519190612240565b610d6d5760405162461bcd60e51b815260040161056b9061225d565b6005546040518281526001600160a01b03909116907f5fafa99d0643513820be26656b45130b01e1c03062e1266bf36f88cbd3bd96959060200160405180910390a250565b610dba611d93565b610c196000611ede565b6006546007546000610dd682846122fa565b9050909192565b610de5611d93565b610c19611f2e565b610df5611d93565b6001600160a01b03166000908152600960205260409020805460ff19166001179055565b610e6e60405180610100016040528060001515815260200160006001600160a01b0316815260200160008152602001600081526020016000815260200160008152602001600081526020016000151581525090565b6001600160a01b03821660009081526004602052604090205460ff16610ea65760405162461bcd60e51b815260040161056b906122c3565b506001600160a01b0390811660009081526003602081815260409283902083516101008082018652825460ff808216151584529190049096169281019290925260018101549382019390935260028301546060820152908201546080820152600482015460a0820152600582015460c0820152600690910154909116151560e082015290565b610f34611d93565b6001600160a01b03166000908152600960205260409020805460ff19169055565b610f5d611d93565b888714610f7c5760405162461bcd60e51b815260040161056b9061230d565b888514610f9b5760405162461bcd60e51b815260040161056b9061230d565b888314610fba5760405162461bcd60e51b815260040161056b9061230d565b888114610fd95760405162461bcd60e51b815260040161056b9061230d565b6000805b8a8110156111d15760008c8c83818110610ff957610ff961234f565b905060200201602081019061100e9190611fd0565b6001600160a01b0316036110345760405162461bcd60e51b815260040161056b90612209565b60008a8a838181106110485761104861234f565b905060200201351161109c5760405162461bcd60e51b815260206004820152601b60248201527f4261736556657374696e673a20696e76616c696420616d6f756e740000000000604482015260640161056b565b60008686838181106110b0576110b061234f565b90506020020135116111045760405162461bcd60e51b815260206004820152601d60248201527f4261736556657374696e673a20696e76616c6964206475726174696f6e000000604482015260640161056b565b600460008d8d8481811061111a5761111a61234f565b905060200201602081019061112f9190611fd0565b6001600160a01b0316815260208101919091526040016000205460ff16156111995760405162461bcd60e51b815260206004820152601c60248201527f4261736556657374696e673a207363686564756c652065786973747300000000604482015260640161056b565b8989828181106111ab576111ab61234f565b90506020020135826111bd91906122aa565b9150806111c981612365565b915050610fdd565b506005546040516323b872dd60e01b8152336004820152306024820152604481018390526001600160a01b03909116906323b872dd906064016020604051808303816000875af1158015611229573d6000803e3d6000fd5b505050506040513d601f19601f8201168201806040525081019061124d9190612240565b6112695760405162461bcd60e51b815260040161056b9061225d565b60005b8a81101561157b576040518061010001604052806001151581526020018d8d8481811061129b5761129b61234f565b90506020020160208101906112b09190611fd0565b6001600160a01b031681526020018989848181106112d0576112d061234f565b9050602002013581526020018787848181106112ee576112ee61234f565b9050602002013581526020014281526020018b8b848181106113125761131261234f565b905060200201358152602001600081526020018585848181106113375761133761234f565b905060200201602081019061134c91906121aa565b15159052600360008e8e858181106113665761136661234f565b905060200201602081019061137b9190611fd0565b6001600160a01b0390811682526020808301939093526040918201600090812085518154958701516001600160a81b0319909616901515610100600160a81b03191617610100959093169490940291909117835590830151600180840191909155606084015160028401556080840151600384015560a084015160048085019190915560c0850151600585015560e0909401516006909301805460ff1916931515939093179092559091908e8e858181106114385761143861234f565b905060200201602081019061144d9190611fd0565b6001600160a01b031681526020810191909152604001600020805460ff19169115159190911790558989828181106114875761148761234f565b905060200201356006600082825461149f91906122aa565b909155508c90508b828181106114b7576114b761234f565b90506020020160208101906114cc9190611fd0565b6001600160a01b03167f892f1a841b10e4b041cc41d8cc47c6a6049f1ff5fa272ddf47a0aa5ad8f59d138b8b848181106115085761150861234f565b905060200201358a8a858181106115215761152161234f565b9050602002013589898681811061153a5761153a61234f565b90506020020135604051611561939291909283526020830191909152604082015260600190565b60405180910390a28061157381612365565b91505061126c565b505050505050505050505050565b611591611d93565b6008805460ff1916911515919091179055565b6001600160a01b03811660009081526004602052604081205460ff166115cc57506000919050565b6001600160a01b0380831660009081526003602081815260409283902083516101008082018652825460ff80821615158452919004909616928101929092526001810154938201849052600281015460608301529182015460808201819052600483015460a0830152600583015460c0830152600690920154909316151560e084015261165991906122aa565b4210156116695750600092915050565b8060600151816080015161167d91906122aa565b421061168c5750606492915050565b600081604001518260800151426116a391906122fa565b6116ad91906122fa565b90506000826040015183606001516116c591906122fa565b9050806116d383606461237e565b6116dd9190612395565b95945050505050565b6001600160a01b03811660009081526004602052604081205460ff1661170e57506000919050565b6001600160a01b0380831660009081526003602081815260409283902083516101008082018652825460ff80821615158452919004909616928101929092526001810154938201849052600281015460608301529182015460808201819052600483015460a0830152600583015460c0830152600690920154909316151560e084015261179b91906122aa565b4210156117ab5750600092915050565b806060015181608001516117bf91906122aa565b42106117cf5760a0015192915050565b600081604001518260800151426117e691906122fa565b6117f091906122fa565b905060008260400151836060015161180891906122fa565b905080828460a001516116d3919061237e565b611823611ded565b61182b611e46565b60005b81811015611a7c576004600084848481811061184c5761184c61234f565b90506020020160208101906118619190611fd0565b6001600160a01b0316815260208101919091526040016000205460ff1615611a6a5760006003600085858581811061189b5761189b61234f565b90506020020160208101906118b09190611fd0565b6001600160a01b03166001600160a01b03168152602001908152602001600020905060006118fe8585858181106118e9576118e961234f565b905060200201602081019061027a9190611fd0565b90508015611a67578082600501600082825461191a91906122aa565b92505081905550806007600082825461193391906122aa565b90915550506005546001600160a01b031663a9059cbb86868681811061195b5761195b61234f565b90506020020160208101906119709190611fd0565b6040516001600160e01b031960e084901b1681526001600160a01b039091166004820152602481018490526044016020604051808303816000875af11580156119bd573d6000803e3d6000fd5b505050506040513d601f19601f820116820180604052508101906119e19190612240565b6119fd5760405162461bcd60e51b815260040161056b9061225d565b848484818110611a0f57611a0f61234f565b9050602002016020810190611a249190611fd0565b6001600160a01b03167fd4691cc79b8fc72aac1e8c0d15a2ca06d71a386c983f815266f0fce713dc5ea782604051611a5e91815260200190565b60405180910390a25b50505b80611a7481612365565b91505061182e565b50611a8660018055565b5050565b611a92611d93565b60065415611aee5760405162461bcd60e51b8152602060048201526024808201527f4261736556657374696e673a2076657374696e67207363686564756c657320656044820152631e1a5cdd60e21b606482015260840161056b565b6001600160a01b038116611b145760405162461bcd60e51b815260040161056b90612209565b600580546001600160a01b0319166001600160a01b0392909216919091179055565b611b3e611d93565b6001600160a01b03811660009081526004602052604090205460ff16611b765760405162461bcd60e51b815260040161056b906122c3565b6001600160a01b0381166000908152600360205260409020600681015460ff16611be25760405162461bcd60e51b815260206004820152601a60248201527f4261736556657374696e673a206e6f74207265766f6361626c65000000000000604482015260640161056b565b600081600501548260040154611bf891906122fa565b90508015611cd2576005546001600160a01b031663a9059cbb611c236000546001600160a01b031690565b6040516001600160e01b031960e084901b1681526001600160a01b039091166004820152602481018490526044016020604051808303816000875af1158015611c70573d6000803e3d6000fd5b505050506040513d601f19601f82011682018060405250810190611c949190612240565b611cb05760405162461bcd60e51b815260040161056b9061225d565b8060066000828254611cc291906122fa565b9091555050600582015460048301555b6001600160a01b038316600081815260046020526040808220805460ff19169055517f24c365587e18582fa18518c21238fb2527b5bff9bf132889dd780503b46d05879190a2505050565b611d25611d93565b6001600160a01b038116611d8a5760405162461bcd60e51b815260206004820152602660248201527f4f776e61626c653a206e6577206f776e657220697320746865207a65726f206160448201526564647265737360d01b606482015260840161056b565b610a2e81611ede565b6000546001600160a01b03163314610c195760405162461bcd60e51b815260206004820181905260248201527f4f776e61626c653a2063616c6c6572206973206e6f7420746865206f776e6572604482015260640161056b565b600260015403611e3f5760405162461bcd60e51b815260206004820152601f60248201527f5265656e7472616e637947756172643a207265656e7472616e742063616c6c00604482015260640161056b565b6002600155565b60025460ff1615610c195760405162461bcd60e51b815260206004820152601060248201526f14185d5cd8589b194e881c185d5cd95960821b604482015260640161056b565b611e94611f6b565b6002805460ff191690557f5db9ee0a495bf2e6ff9c91a7834c1ba4fdd244a5e8aa4e537bd38aeae4b073aa335b6040516001600160a01b03909116815260200160405180910390a1565b600080546001600160a01b038381166001600160a01b0319831681178455604051919092169283917f8be0079c531659141344cd1fd0a4f28419497f9722a3daafe3b4186f6b6457e09190a35050565b611f36611e46565b6002805460ff191660011790557f62e78cea01bee320cd4e420270b5ea74000d11b0c9f74754ebdbfc544b05a258611ec13390565b60025460ff16610c195760405162461bcd60e51b815260206004820152601460248201527314185d5cd8589b194e881b9bdd081c185d5cd95960621b604482015260640161056b565b80356001600160a01b0381168114611fcb57600080fd5b919050565b600060208284031215611fe257600080fd5b611feb82611fb4565b9392505050565b8015158114610a2e57600080fd5b600080600080600060a0868803121561201857600080fd5b61202186611fb4565b9450602086013593506040860135925060608601359150608086013561204681611ff2565b809150509295509295909350565b60006020828403121561206657600080fd5b5035919050565b60008083601f84011261207f57600080fd5b50813567ffffffffffffffff81111561209757600080fd5b6020830191508360208260051b85010111156120b257600080fd5b9250929050565b60008060008060008060008060008060a08b8d0312156120d857600080fd5b8a3567ffffffffffffffff808211156120f057600080fd5b6120fc8e838f0161206d565b909c509a5060208d013591508082111561211557600080fd5b6121218e838f0161206d565b909a50985060408d013591508082111561213a57600080fd5b6121468e838f0161206d565b909850965060608d013591508082111561215f57600080fd5b61216b8e838f0161206d565b909650945060808d013591508082111561218457600080fd5b506121918d828e0161206d565b915080935050809150509295989b9194979a5092959850565b6000602082840312156121bc57600080fd5b8135611feb81611ff2565b600080602083850312156121da57600080fd5b823567ffffffffffffffff8111156121f157600080fd5b6121fd8582860161206d565b90969095509350505050565b60208082526019908201527f4261736556657374696e673a207a65726f206164647265737300000000000000604082015260600190565b60006020828403121561225257600080fd5b8151611feb81611ff2565b6020808252601c908201527f4261736556657374696e673a207472616e73666572206661696c656400000000604082015260600190565b634e487b7160e01b600052601160045260246000fd5b808201808211156122bd576122bd612294565b92915050565b60208082526018908201527f4261736556657374696e673a206e6f207363686564756c650000000000000000604082015260600190565b818103818111156122bd576122bd612294565b60208082526022908201527f4261736556657374696e673a206172726179206c656e677468206d69736d61746040820152610c6d60f31b606082015260800190565b634e487b7160e01b600052603260045260246000fd5b60006001820161237757612377612294565b5060010190565b80820281158282048414176122bd576122bd612294565b6000826123b257634e487b7160e01b600052601260045260246000fd5b50049056fea26469706673582212208b370071308d36b5b891d6790a76e6f4996aeed2a87cc3b54759b02f937c36ac64736f6c63430008130033",
  "linkReferences": {},
  "deployedLinkReferences": {}
}